{
	"contracts/customERC.sol": {
		"customERC20": {
			"abi": [
				{
					"inputs": [],
					"stateMutability": "nonpayable",
					"type": "constructor"
				},
				{
					"anonymous": false,
					"inputs": [
						{
							"indexed": true,
							"internalType": "address",
							"name": "owner",
							"type": "address"
						},
						{
							"indexed": true,
							"internalType": "address",
							"name": "spender",
							"type": "address"
						},
						{
							"indexed": false,
							"internalType": "uint256",
							"name": "value",
							"type": "uint256"
						}
					],
					"name": "Approval",
					"type": "event"
				},
				{
					"anonymous": false,
					"inputs": [
						{
							"indexed": true,
							"internalType": "address",
							"name": "from",
							"type": "address"
						},
						{
							"indexed": true,
							"internalType": "address",
							"name": "to",
							"type": "address"
						},
						{
							"indexed": false,
							"internalType": "uint256",
							"name": "value",
							"type": "uint256"
						}
					],
					"name": "Transfer",
					"type": "event"
				},
				{
					"inputs": [
						{
							"internalType": "address",
							"name": "owner",
							"type": "address"
						},
						{
							"internalType": "address",
							"name": "spender",
							"type": "address"
						}
					],
					"name": "allowance",
					"outputs": [
						{
							"internalType": "uint256",
							"name": "",
							"type": "uint256"
						}
					],
					"stateMutability": "view",
					"type": "function"
				},
				{
					"inputs": [
						{
							"internalType": "address",
							"name": "spender",
							"type": "address"
						},
						{
							"internalType": "uint256",
							"name": "amount",
							"type": "uint256"
						}
					],
					"name": "approve",
					"outputs": [
						{
							"internalType": "bool",
							"name": "",
							"type": "bool"
						}
					],
					"stateMutability": "nonpayable",
					"type": "function"
				},
				{
					"inputs": [
						{
							"internalType": "address",
							"name": "account",
							"type": "address"
						}
					],
					"name": "balanceOf",
					"outputs": [
						{
							"internalType": "uint256",
							"name": "",
							"type": "uint256"
						}
					],
					"stateMutability": "view",
					"type": "function"
				},
				{
					"inputs": [],
					"name": "createToken",
					"outputs": [],
					"stateMutability": "nonpayable",
					"type": "function"
				},
				{
					"inputs": [],
					"name": "decimals",
					"outputs": [
						{
							"internalType": "uint8",
							"name": "",
							"type": "uint8"
						}
					],
					"stateMutability": "view",
					"type": "function"
				},
				{
					"inputs": [
						{
							"internalType": "address",
							"name": "spender",
							"type": "address"
						},
						{
							"internalType": "uint256",
							"name": "subtractedValue",
							"type": "uint256"
						}
					],
					"name": "decreaseAllowance",
					"outputs": [
						{
							"internalType": "bool",
							"name": "",
							"type": "bool"
						}
					],
					"stateMutability": "nonpayable",
					"type": "function"
				},
				{
					"inputs": [
						{
							"internalType": "address",
							"name": "spender",
							"type": "address"
						},
						{
							"internalType": "uint256",
							"name": "addedValue",
							"type": "uint256"
						}
					],
					"name": "increaseAllowance",
					"outputs": [
						{
							"internalType": "bool",
							"name": "",
							"type": "bool"
						}
					],
					"stateMutability": "nonpayable",
					"type": "function"
				},
				{
					"inputs": [],
					"name": "name",
					"outputs": [
						{
							"internalType": "string",
							"name": "",
							"type": "string"
						}
					],
					"stateMutability": "view",
					"type": "function"
				},
				{
					"inputs": [],
					"name": "symbol",
					"outputs": [
						{
							"internalType": "string",
							"name": "",
							"type": "string"
						}
					],
					"stateMutability": "view",
					"type": "function"
				},
				{
					"inputs": [],
					"name": "totalSupply",
					"outputs": [
						{
							"internalType": "uint256",
							"name": "",
							"type": "uint256"
						}
					],
					"stateMutability": "view",
					"type": "function"
				},
				{
					"inputs": [
						{
							"internalType": "address",
							"name": "to",
							"type": "address"
						},
						{
							"internalType": "uint256",
							"name": "amount",
							"type": "uint256"
						}
					],
					"name": "transfer",
					"outputs": [
						{
							"internalType": "bool",
							"name": "",
							"type": "bool"
						}
					],
					"stateMutability": "nonpayable",
					"type": "function"
				},
				{
					"inputs": [
						{
							"internalType": "address",
							"name": "from",
							"type": "address"
						},
						{
							"internalType": "address",
							"name": "to",
							"type": "address"
						},
						{
							"internalType": "uint256",
							"name": "amount",
							"type": "uint256"
						}
					],
					"name": "transferFrom",
					"outputs": [
						{
							"internalType": "bool",
							"name": "",
							"type": "bool"
						}
					],
					"stateMutability": "nonpayable",
					"type": "function"
				}
			],
			"devdoc": {
				"kind": "dev",
				"methods": {},
				"version": 1
			},
			"evm": {
				"assembly": "    /* \"contracts/customERC.sol\":85:312  contract customERC20 is ERC20 {\r... */\n  mstore(0x40, 0x80)\n    /* \"contracts/customERC.sol\":160:194  constructor() ERC20(\"Joan\",\"JA\"){} */\n  callvalue\n  dup1\n  iszero\n  tag_1\n  jumpi\n  0x00\n  dup1\n  revert\ntag_1:\n  pop\n    /* \"contracts/ERC20.sol\":2712:2828  constructor(string memory name_, string memory symbol_) {\r... */\n  mload(0x40)\n  dup1\n  0x40\n  add\n  0x40\n  mstore\n  dup1\n  0x04\n  dup2\n  mstore\n  0x20\n  add\n  0x4a6f616e00000000000000000000000000000000000000000000000000000000\n  dup2\n  mstore\n  pop\n  mload(0x40)\n  dup1\n  0x40\n  add\n  0x40\n  mstore\n  dup1\n  0x02\n  dup2\n  mstore\n  0x20\n  add\n  0x4a41000000000000000000000000000000000000000000000000000000000000\n  dup2\n  mstore\n  pop\n    /* \"contracts/ERC20.sol\":2787:2792  name_ */\n  dup2\n    /* \"contracts/ERC20.sol\":2779:2784  _name */\n  0x03\n    /* \"contracts/ERC20.sol\":2779:2792  _name = name_ */\n  swap1\n  dup1\n  mload\n  swap1\n  0x20\n  add\n  swap1\n  tag_5\n  swap3\n  swap2\n  swap1\n  tag_6\n  jump\t// in\ntag_5:\n  pop\n    /* \"contracts/ERC20.sol\":2813:2820  symbol_ */\n  dup1\n    /* \"contracts/ERC20.sol\":2803:2810  _symbol */\n  0x04\n    /* \"contracts/ERC20.sol\":2803:2820  _symbol = symbol_ */\n  swap1\n  dup1\n  mload\n  swap1\n  0x20\n  add\n  swap1\n  tag_7\n  swap3\n  swap2\n  swap1\n  tag_6\n  jump\t// in\ntag_7:\n  pop\n    /* \"contracts/ERC20.sol\":2712:2828  constructor(string memory name_, string memory symbol_) {\r... */\n  pop\n  pop\n    /* \"contracts/customERC.sol\":85:312  contract customERC20 is ERC20 {\r... */\n  jump(tag_9)\ntag_6:\n  dup3\n  dup1\n  sload\n  tag_10\n  swap1\n  tag_11\n  jump\t// in\ntag_10:\n  swap1\n  0x00\n  mstore\n  keccak256(0x00, 0x20)\n  swap1\n  0x1f\n  add\n  0x20\n  swap1\n  div\n  dup2\n  add\n  swap3\n  dup3\n  tag_13\n  jumpi\n  0x00\n  dup6\n  sstore\n  jump(tag_12)\ntag_13:\n  dup3\n  0x1f\n  lt\n  tag_14\n  jumpi\n  dup1\n  mload\n  not(0xff)\n  and\n  dup4\n  dup1\n  add\n  or\n  dup6\n  sstore\n  jump(tag_12)\ntag_14:\n  dup3\n  dup1\n  add\n  0x01\n  add\n  dup6\n  sstore\n  dup3\n  iszero\n  tag_12\n  jumpi\n  swap2\n  dup3\n  add\ntag_15:\n  dup3\n  dup2\n  gt\n  iszero\n  tag_16\n  jumpi\n  dup3\n  mload\n  dup3\n  sstore\n  swap2\n  0x20\n  add\n  swap2\n  swap1\n  0x01\n  add\n  swap1\n  jump(tag_15)\ntag_16:\ntag_12:\n  pop\n  swap1\n  pop\n  tag_17\n  swap2\n  swap1\n  tag_18\n  jump\t// in\ntag_17:\n  pop\n  swap1\n  jump\t// out\ntag_18:\ntag_19:\n  dup1\n  dup3\n  gt\n  iszero\n  tag_20\n  jumpi\n  0x00\n  dup2\n  0x00\n  swap1\n  sstore\n  pop\n  0x01\n  add\n  jump(tag_19)\ntag_20:\n  pop\n  swap1\n  jump\t// out\n    /* \"#utility.yul\":7:327   */\ntag_11:\n    /* \"#utility.yul\":51:57   */\n  0x00\n    /* \"#utility.yul\":88:89   */\n  0x02\n    /* \"#utility.yul\":82:86   */\n  dup3\n    /* \"#utility.yul\":78:90   */\n  div\n    /* \"#utility.yul\":68:90   */\n  swap1\n  pop\n    /* \"#utility.yul\":135:136   */\n  0x01\n    /* \"#utility.yul\":129:133   */\n  dup3\n    /* \"#utility.yul\":125:137   */\n  and\n    /* \"#utility.yul\":156:174   */\n  dup1\n    /* \"#utility.yul\":146:148   */\n  tag_23\n  jumpi\n    /* \"#utility.yul\":212:216   */\n  0x7f\n    /* \"#utility.yul\":204:210   */\n  dup3\n    /* \"#utility.yul\":200:217   */\n  and\n    /* \"#utility.yul\":190:217   */\n  swap2\n  pop\n    /* \"#utility.yul\":146:148   */\ntag_23:\n    /* \"#utility.yul\":274:276   */\n  0x20\n    /* \"#utility.yul\":266:272   */\n  dup3\n    /* \"#utility.yul\":263:277   */\n  lt\n    /* \"#utility.yul\":243:261   */\n  dup2\n    /* \"#utility.yul\":240:278   */\n  eq\n    /* \"#utility.yul\":237:239   */\n  iszero\n  tag_24\n  jumpi\n    /* \"#utility.yul\":293:311   */\n  tag_25\n  tag_26\n  jump\t// in\ntag_25:\n    /* \"#utility.yul\":237:239   */\ntag_24:\n    /* \"#utility.yul\":58:327   */\n  pop\n  swap2\n  swap1\n  pop\n  jump\t// out\n    /* \"#utility.yul\":333:513   */\ntag_26:\n    /* \"#utility.yul\":381:458   */\n  0x4e487b7100000000000000000000000000000000000000000000000000000000\n    /* \"#utility.yul\":378:379   */\n  0x00\n    /* \"#utility.yul\":371:459   */\n  mstore\n    /* \"#utility.yul\":478:482   */\n  0x22\n    /* \"#utility.yul\":475:476   */\n  0x04\n    /* \"#utility.yul\":468:483   */\n  mstore\n    /* \"#utility.yul\":502:506   */\n  0x24\n    /* \"#utility.yul\":499:500   */\n  0x00\n    /* \"#utility.yul\":492:507   */\n  revert\n    /* \"contracts/customERC.sol\":85:312  contract customERC20 is ERC20 {\r... */\ntag_9:\n  dataSize(sub_0)\n  dup1\n  dataOffset(sub_0)\n  0x00\n  codecopy\n  0x00\n  return\nstop\n\nsub_0: assembly {\n        /* \"contracts/customERC.sol\":85:312  contract customERC20 is ERC20 {\r... */\n      mstore(0x40, 0x80)\n      callvalue\n      dup1\n      iszero\n      tag_1\n      jumpi\n      0x00\n      dup1\n      revert\n    tag_1:\n      pop\n      jumpi(tag_2, lt(calldatasize, 0x04))\n      shr(0xe0, calldataload(0x00))\n      dup1\n      0x70a08231\n      gt\n      tag_15\n      jumpi\n      dup1\n      0x70a08231\n      eq\n      tag_9\n      jumpi\n      dup1\n      0x95d89b41\n      eq\n      tag_10\n      jumpi\n      dup1\n      0x9cbf9e36\n      eq\n      tag_11\n      jumpi\n      dup1\n      0xa457c2d7\n      eq\n      tag_12\n      jumpi\n      dup1\n      0xa9059cbb\n      eq\n      tag_13\n      jumpi\n      dup1\n      0xdd62ed3e\n      eq\n      tag_14\n      jumpi\n      jump(tag_2)\n    tag_15:\n      dup1\n      0x06fdde03\n      eq\n      tag_3\n      jumpi\n      dup1\n      0x095ea7b3\n      eq\n      tag_4\n      jumpi\n      dup1\n      0x18160ddd\n      eq\n      tag_5\n      jumpi\n      dup1\n      0x23b872dd\n      eq\n      tag_6\n      jumpi\n      dup1\n      0x313ce567\n      eq\n      tag_7\n      jumpi\n      dup1\n      0x39509351\n      eq\n      tag_8\n      jumpi\n    tag_2:\n      0x00\n      dup1\n      revert\n        /* \"contracts/ERC20.sol\":2874:2965  function name() public view virtual returns (string memory) {\r... */\n    tag_3:\n      tag_16\n      tag_17\n      jump\t// in\n    tag_16:\n      mload(0x40)\n      tag_18\n      swap2\n      swap1\n      tag_19\n      jump\t// in\n    tag_18:\n      mload(0x40)\n      dup1\n      swap2\n      sub\n      swap1\n      return\n        /* \"contracts/ERC20.sol\":4646:4845  function approve(address spender, uint256 amount) public virtual override returns (bool) {\r... */\n    tag_4:\n      tag_20\n      0x04\n      dup1\n      calldatasize\n      sub\n      dup2\n      add\n      swap1\n      tag_21\n      swap2\n      swap1\n      tag_22\n      jump\t// in\n    tag_21:\n      tag_23\n      jump\t// in\n    tag_20:\n      mload(0x40)\n      tag_24\n      swap2\n      swap1\n      tag_25\n      jump\t// in\n    tag_24:\n      mload(0x40)\n      dup1\n      swap2\n      sub\n      swap1\n      return\n        /* \"contracts/ERC20.sol\":3702:3810  function totalSupply() public view virtual override returns (uint256) {\r... */\n    tag_5:\n      tag_26\n      tag_27\n      jump\t// in\n    tag_26:\n      mload(0x40)\n      tag_28\n      swap2\n      swap1\n      tag_29\n      jump\t// in\n    tag_28:\n      mload(0x40)\n      dup1\n      swap2\n      sub\n      swap1\n      return\n        /* \"contracts/ERC20.sol\":5230:5523  function transferFrom(\r... */\n    tag_6:\n      tag_30\n      0x04\n      dup1\n      calldatasize\n      sub\n      dup2\n      add\n      swap1\n      tag_31\n      swap2\n      swap1\n      tag_32\n      jump\t// in\n    tag_31:\n      tag_33\n      jump\t// in\n    tag_30:\n      mload(0x40)\n      tag_34\n      swap2\n      swap1\n      tag_25\n      jump\t// in\n    tag_34:\n      mload(0x40)\n      dup1\n      swap2\n      sub\n      swap1\n      return\n        /* \"contracts/ERC20.sol\":3575:3659  function decimals() public view virtual returns (uint8) {\r... */\n    tag_7:\n      tag_35\n      tag_36\n      jump\t// in\n    tag_35:\n      mload(0x40)\n      tag_37\n      swap2\n      swap1\n      tag_38\n      jump\t// in\n    tag_37:\n      mload(0x40)\n      dup1\n      swap2\n      sub\n      swap1\n      return\n        /* \"contracts/ERC20.sol\":5764:6002  function increaseAllowance(address spender, uint256 addedValue) public virtual returns (bool) {\r... */\n    tag_8:\n      tag_39\n      0x04\n      dup1\n      calldatasize\n      sub\n      dup2\n      add\n      swap1\n      tag_40\n      swap2\n      swap1\n      tag_22\n      jump\t// in\n    tag_40:\n      tag_41\n      jump\t// in\n    tag_39:\n      mload(0x40)\n      tag_42\n      swap2\n      swap1\n      tag_25\n      jump\t// in\n    tag_42:\n      mload(0x40)\n      dup1\n      swap2\n      sub\n      swap1\n      return\n        /* \"contracts/ERC20.sol\":3851:3978  function balanceOf(address account) public view virtual override returns (uint256) {\r... */\n    tag_9:\n      tag_43\n      0x04\n      dup1\n      calldatasize\n      sub\n      dup2\n      add\n      swap1\n      tag_44\n      swap2\n      swap1\n      tag_45\n      jump\t// in\n    tag_44:\n      tag_46\n      jump\t// in\n    tag_43:\n      mload(0x40)\n      tag_47\n      swap2\n      swap1\n      tag_29\n      jump\t// in\n    tag_47:\n      mload(0x40)\n      dup1\n      swap2\n      sub\n      swap1\n      return\n        /* \"contracts/ERC20.sol\":3058:3153  function symbol() public view virtual returns (string memory) {\r... */\n    tag_10:\n      tag_48\n      tag_49\n      jump\t// in\n    tag_48:\n      mload(0x40)\n      tag_50\n      swap2\n      swap1\n      tag_19\n      jump\t// in\n    tag_50:\n      mload(0x40)\n      dup1\n      swap2\n      sub\n      swap1\n      return\n        /* \"contracts/customERC.sol\":235:307  function createToken() public {\r... */\n    tag_11:\n      tag_51\n      tag_52\n      jump\t// in\n    tag_51:\n      stop\n        /* \"contracts/ERC20.sol\":6346:6780  function decreaseAllowance(address spender, uint256 subtractedValue) public virtual returns (bool) {\r... */\n    tag_12:\n      tag_53\n      0x04\n      dup1\n      calldatasize\n      sub\n      dup2\n      add\n      swap1\n      tag_54\n      swap2\n      swap1\n      tag_22\n      jump\t// in\n    tag_54:\n      tag_55\n      jump\t// in\n    tag_53:\n      mload(0x40)\n      tag_56\n      swap2\n      swap1\n      tag_25\n      jump\t// in\n    tag_56:\n      mload(0x40)\n      dup1\n      swap2\n      sub\n      swap1\n      return\n        /* \"contracts/ERC20.sol\":4154:4345  function transfer(address to, uint256 amount) public virtual override returns (bool) {\r... */\n    tag_13:\n      tag_57\n      0x04\n      dup1\n      calldatasize\n      sub\n      dup2\n      add\n      swap1\n      tag_58\n      swap2\n      swap1\n      tag_22\n      jump\t// in\n    tag_58:\n      tag_59\n      jump\t// in\n    tag_57:\n      mload(0x40)\n      tag_60\n      swap2\n      swap1\n      tag_25\n      jump\t// in\n    tag_60:\n      mload(0x40)\n      dup1\n      swap2\n      sub\n      swap1\n      return\n        /* \"contracts/ERC20.sol\":4386:4537  function allowance(address owner, address spender) public view virtual override returns (uint256) {\r... */\n    tag_14:\n      tag_61\n      0x04\n      dup1\n      calldatasize\n      sub\n      dup2\n      add\n      swap1\n      tag_62\n      swap2\n      swap1\n      tag_63\n      jump\t// in\n    tag_62:\n      tag_64\n      jump\t// in\n    tag_61:\n      mload(0x40)\n      tag_65\n      swap2\n      swap1\n      tag_29\n      jump\t// in\n    tag_65:\n      mload(0x40)\n      dup1\n      swap2\n      sub\n      swap1\n      return\n        /* \"contracts/ERC20.sol\":2874:2965  function name() public view virtual returns (string memory) {\r... */\n    tag_17:\n        /* \"contracts/ERC20.sol\":2919:2932  string memory */\n      0x60\n        /* \"contracts/ERC20.sol\":2952:2957  _name */\n      0x03\n        /* \"contracts/ERC20.sol\":2945:2957  return _name */\n      dup1\n      sload\n      tag_67\n      swap1\n      tag_68\n      jump\t// in\n    tag_67:\n      dup1\n      0x1f\n      add\n      0x20\n      dup1\n      swap2\n      div\n      mul\n      0x20\n      add\n      mload(0x40)\n      swap1\n      dup2\n      add\n      0x40\n      mstore\n      dup1\n      swap3\n      swap2\n      swap1\n      dup2\n      dup2\n      mstore\n      0x20\n      add\n      dup3\n      dup1\n      sload\n      tag_69\n      swap1\n      tag_68\n      jump\t// in\n    tag_69:\n      dup1\n      iszero\n      tag_70\n      jumpi\n      dup1\n      0x1f\n      lt\n      tag_71\n      jumpi\n      0x0100\n      dup1\n      dup4\n      sload\n      div\n      mul\n      dup4\n      mstore\n      swap2\n      0x20\n      add\n      swap2\n      jump(tag_70)\n    tag_71:\n      dup3\n      add\n      swap2\n      swap1\n      0x00\n      mstore\n      keccak256(0x00, 0x20)\n      swap1\n    tag_72:\n      dup2\n      sload\n      dup2\n      mstore\n      swap1\n      0x01\n      add\n      swap1\n      0x20\n      add\n      dup1\n      dup4\n      gt\n      tag_72\n      jumpi\n      dup3\n      swap1\n      sub\n      0x1f\n      and\n      dup3\n      add\n      swap2\n    tag_70:\n      pop\n      pop\n      pop\n      pop\n      pop\n      swap1\n      pop\n        /* \"contracts/ERC20.sol\":2874:2965  function name() public view virtual returns (string memory) {\r... */\n      swap1\n      jump\t// out\n        /* \"contracts/ERC20.sol\":4646:4845  function approve(address spender, uint256 amount) public virtual override returns (bool) {\r... */\n    tag_23:\n        /* \"contracts/ERC20.sol\":4729:4733  bool */\n      0x00\n        /* \"contracts/ERC20.sol\":4746:4759  address owner */\n      dup1\n        /* \"contracts/ERC20.sol\":4762:4772  msg.sender */\n      caller\n        /* \"contracts/ERC20.sol\":4746:4772  address owner = msg.sender */\n      swap1\n      pop\n        /* \"contracts/ERC20.sol\":4783:4815  _approve(owner, spender, amount) */\n      tag_74\n        /* \"contracts/ERC20.sol\":4792:4797  owner */\n      dup2\n        /* \"contracts/ERC20.sol\":4799:4806  spender */\n      dup6\n        /* \"contracts/ERC20.sol\":4808:4814  amount */\n      dup6\n        /* \"contracts/ERC20.sol\":4783:4791  _approve */\n      tag_75\n        /* \"contracts/ERC20.sol\":4783:4815  _approve(owner, spender, amount) */\n      jump\t// in\n    tag_74:\n        /* \"contracts/ERC20.sol\":4833:4837  true */\n      0x01\n        /* \"contracts/ERC20.sol\":4826:4837  return true */\n      swap2\n      pop\n      pop\n        /* \"contracts/ERC20.sol\":4646:4845  function approve(address spender, uint256 amount) public virtual override returns (bool) {\r... */\n      swap3\n      swap2\n      pop\n      pop\n      jump\t// out\n        /* \"contracts/ERC20.sol\":3702:3810  function totalSupply() public view virtual override returns (uint256) {\r... */\n    tag_27:\n        /* \"contracts/ERC20.sol\":3763:3770  uint256 */\n      0x00\n        /* \"contracts/ERC20.sol\":3790:3802  _totalSupply */\n      sload(0x02)\n        /* \"contracts/ERC20.sol\":3783:3802  return _totalSupply */\n      swap1\n      pop\n        /* \"contracts/ERC20.sol\":3702:3810  function totalSupply() public view virtual override returns (uint256) {\r... */\n      swap1\n      jump\t// out\n        /* \"contracts/ERC20.sol\":5230:5523  function transferFrom(\r... */\n    tag_33:\n        /* \"contracts/ERC20.sol\":5361:5365  bool */\n      0x00\n        /* \"contracts/ERC20.sol\":5378:5393  address spender */\n      dup1\n        /* \"contracts/ERC20.sol\":5396:5406  msg.sender */\n      caller\n        /* \"contracts/ERC20.sol\":5378:5406  address spender = msg.sender */\n      swap1\n      pop\n        /* \"contracts/ERC20.sol\":5417:5455  _spendAllowance(from, spender, amount) */\n      tag_78\n        /* \"contracts/ERC20.sol\":5433:5437  from */\n      dup6\n        /* \"contracts/ERC20.sol\":5439:5446  spender */\n      dup3\n        /* \"contracts/ERC20.sol\":5448:5454  amount */\n      dup6\n        /* \"contracts/ERC20.sol\":5417:5432  _spendAllowance */\n      tag_79\n        /* \"contracts/ERC20.sol\":5417:5455  _spendAllowance(from, spender, amount) */\n      jump\t// in\n    tag_78:\n        /* \"contracts/ERC20.sol\":5466:5493  _transfer(from, to, amount) */\n      tag_80\n        /* \"contracts/ERC20.sol\":5476:5480  from */\n      dup6\n        /* \"contracts/ERC20.sol\":5482:5484  to */\n      dup6\n        /* \"contracts/ERC20.sol\":5486:5492  amount */\n      dup6\n        /* \"contracts/ERC20.sol\":5466:5475  _transfer */\n      tag_81\n        /* \"contracts/ERC20.sol\":5466:5493  _transfer(from, to, amount) */\n      jump\t// in\n    tag_80:\n        /* \"contracts/ERC20.sol\":5511:5515  true */\n      0x01\n        /* \"contracts/ERC20.sol\":5504:5515  return true */\n      swap2\n      pop\n      pop\n        /* \"contracts/ERC20.sol\":5230:5523  function transferFrom(\r... */\n      swap4\n      swap3\n      pop\n      pop\n      pop\n      jump\t// out\n        /* \"contracts/ERC20.sol\":3575:3659  function decimals() public view virtual returns (uint8) {\r... */\n    tag_36:\n        /* \"contracts/ERC20.sol\":3624:3629  uint8 */\n      0x00\n        /* \"contracts/ERC20.sol\":3649:3651  18 */\n      0x12\n        /* \"contracts/ERC20.sol\":3642:3651  return 18 */\n      swap1\n      pop\n        /* \"contracts/ERC20.sol\":3575:3659  function decimals() public view virtual returns (uint8) {\r... */\n      swap1\n      jump\t// out\n        /* \"contracts/ERC20.sol\":5764:6002  function increaseAllowance(address spender, uint256 addedValue) public virtual returns (bool) {\r... */\n    tag_41:\n        /* \"contracts/ERC20.sol\":5852:5856  bool */\n      0x00\n        /* \"contracts/ERC20.sol\":5869:5882  address owner */\n      dup1\n        /* \"contracts/ERC20.sol\":5885:5895  msg.sender */\n      caller\n        /* \"contracts/ERC20.sol\":5869:5895  address owner = msg.sender */\n      swap1\n      pop\n        /* \"contracts/ERC20.sol\":5906:5972  _approve(owner, spender, _allowances[owner][spender] + addedValue) */\n      tag_84\n        /* \"contracts/ERC20.sol\":5915:5920  owner */\n      dup2\n        /* \"contracts/ERC20.sol\":5922:5929  spender */\n      dup6\n        /* \"contracts/ERC20.sol\":5961:5971  addedValue */\n      dup6\n        /* \"contracts/ERC20.sol\":5931:5942  _allowances */\n      0x01\n        /* \"contracts/ERC20.sol\":5931:5949  _allowances[owner] */\n      0x00\n        /* \"contracts/ERC20.sol\":5943:5948  owner */\n      dup7\n        /* \"contracts/ERC20.sol\":5931:5949  _allowances[owner] */\n      0xffffffffffffffffffffffffffffffffffffffff\n      and\n      0xffffffffffffffffffffffffffffffffffffffff\n      and\n      dup2\n      mstore\n      0x20\n      add\n      swap1\n      dup2\n      mstore\n      0x20\n      add\n      0x00\n      keccak256\n        /* \"contracts/ERC20.sol\":5931:5958  _allowances[owner][spender] */\n      0x00\n        /* \"contracts/ERC20.sol\":5950:5957  spender */\n      dup10\n        /* \"contracts/ERC20.sol\":5931:5958  _allowances[owner][spender] */\n      0xffffffffffffffffffffffffffffffffffffffff\n      and\n      0xffffffffffffffffffffffffffffffffffffffff\n      and\n      dup2\n      mstore\n      0x20\n      add\n      swap1\n      dup2\n      mstore\n      0x20\n      add\n      0x00\n      keccak256\n      sload\n        /* \"contracts/ERC20.sol\":5931:5971  _allowances[owner][spender] + addedValue */\n      tag_85\n      swap2\n      swap1\n      tag_86\n      jump\t// in\n    tag_85:\n        /* \"contracts/ERC20.sol\":5906:5914  _approve */\n      tag_75\n        /* \"contracts/ERC20.sol\":5906:5972  _approve(owner, spender, _allowances[owner][spender] + addedValue) */\n      jump\t// in\n    tag_84:\n        /* \"contracts/ERC20.sol\":5990:5994  true */\n      0x01\n        /* \"contracts/ERC20.sol\":5983:5994  return true */\n      swap2\n      pop\n      pop\n        /* \"contracts/ERC20.sol\":5764:6002  function increaseAllowance(address spender, uint256 addedValue) public virtual returns (bool) {\r... */\n      swap3\n      swap2\n      pop\n      pop\n      jump\t// out\n        /* \"contracts/ERC20.sol\":3851:3978  function balanceOf(address account) public view virtual override returns (uint256) {\r... */\n    tag_46:\n        /* \"contracts/ERC20.sol\":3925:3932  uint256 */\n      0x00\n        /* \"contracts/ERC20.sol\":3952:3961  _balances */\n      dup1\n        /* \"contracts/ERC20.sol\":3952:3970  _balances[account] */\n      0x00\n        /* \"contracts/ERC20.sol\":3962:3969  account */\n      dup4\n        /* \"contracts/ERC20.sol\":3952:3970  _balances[account] */\n      0xffffffffffffffffffffffffffffffffffffffff\n      and\n      0xffffffffffffffffffffffffffffffffffffffff\n      and\n      dup2\n      mstore\n      0x20\n      add\n      swap1\n      dup2\n      mstore\n      0x20\n      add\n      0x00\n      keccak256\n      sload\n        /* \"contracts/ERC20.sol\":3945:3970  return _balances[account] */\n      swap1\n      pop\n        /* \"contracts/ERC20.sol\":3851:3978  function balanceOf(address account) public view virtual override returns (uint256) {\r... */\n      swap2\n      swap1\n      pop\n      jump\t// out\n        /* \"contracts/ERC20.sol\":3058:3153  function symbol() public view virtual returns (string memory) {\r... */\n    tag_49:\n        /* \"contracts/ERC20.sol\":3105:3118  string memory */\n      0x60\n        /* \"contracts/ERC20.sol\":3138:3145  _symbol */\n      0x04\n        /* \"contracts/ERC20.sol\":3131:3145  return _symbol */\n      dup1\n      sload\n      tag_89\n      swap1\n      tag_68\n      jump\t// in\n    tag_89:\n      dup1\n      0x1f\n      add\n      0x20\n      dup1\n      swap2\n      div\n      mul\n      0x20\n      add\n      mload(0x40)\n      swap1\n      dup2\n      add\n      0x40\n      mstore\n      dup1\n      swap3\n      swap2\n      swap1\n      dup2\n      dup2\n      mstore\n      0x20\n      add\n      dup3\n      dup1\n      sload\n      tag_90\n      swap1\n      tag_68\n      jump\t// in\n    tag_90:\n      dup1\n      iszero\n      tag_91\n      jumpi\n      dup1\n      0x1f\n      lt\n      tag_92\n      jumpi\n      0x0100\n      dup1\n      dup4\n      sload\n      div\n      mul\n      dup4\n      mstore\n      swap2\n      0x20\n      add\n      swap2\n      jump(tag_91)\n    tag_92:\n      dup3\n      add\n      swap2\n      swap1\n      0x00\n      mstore\n      keccak256(0x00, 0x20)\n      swap1\n    tag_93:\n      dup2\n      sload\n      dup2\n      mstore\n      swap1\n      0x01\n      add\n      swap1\n      0x20\n      add\n      dup1\n      dup4\n      gt\n      tag_93\n      jumpi\n      dup3\n      swap1\n      sub\n      0x1f\n      and\n      dup3\n      add\n      swap2\n    tag_91:\n      pop\n      pop\n      pop\n      pop\n      pop\n      swap1\n      pop\n        /* \"contracts/ERC20.sol\":3058:3153  function symbol() public view virtual returns (string memory) {\r... */\n      swap1\n      jump\t// out\n        /* \"contracts/customERC.sol\":235:307  function createToken() public {\r... */\n    tag_52:\n        /* \"contracts/customERC.sol\":276:299  _mint(msg.sender, 1000) */\n      tag_95\n        /* \"contracts/customERC.sol\":282:292  msg.sender */\n      caller\n        /* \"contracts/customERC.sol\":294:298  1000 */\n      0x03e8\n        /* \"contracts/customERC.sol\":276:281  _mint */\n      tag_96\n        /* \"contracts/customERC.sol\":276:299  _mint(msg.sender, 1000) */\n      jump\t// in\n    tag_95:\n        /* \"contracts/customERC.sol\":235:307  function createToken() public {\r... */\n      jump\t// out\n        /* \"contracts/ERC20.sol\":6346:6780  function decreaseAllowance(address spender, uint256 subtractedValue) public virtual returns (bool) {\r... */\n    tag_55:\n        /* \"contracts/ERC20.sol\":6439:6443  bool */\n      0x00\n        /* \"contracts/ERC20.sol\":6456:6469  address owner */\n      dup1\n        /* \"contracts/ERC20.sol\":6472:6482  msg.sender */\n      caller\n        /* \"contracts/ERC20.sol\":6456:6482  address owner = msg.sender */\n      swap1\n      pop\n        /* \"contracts/ERC20.sol\":6493:6517  uint256 currentAllowance */\n      0x00\n        /* \"contracts/ERC20.sol\":6520:6531  _allowances */\n      0x01\n        /* \"contracts/ERC20.sol\":6520:6538  _allowances[owner] */\n      0x00\n        /* \"contracts/ERC20.sol\":6532:6537  owner */\n      dup4\n        /* \"contracts/ERC20.sol\":6520:6538  _allowances[owner] */\n      0xffffffffffffffffffffffffffffffffffffffff\n      and\n      0xffffffffffffffffffffffffffffffffffffffff\n      and\n      dup2\n      mstore\n      0x20\n      add\n      swap1\n      dup2\n      mstore\n      0x20\n      add\n      0x00\n      keccak256\n        /* \"contracts/ERC20.sol\":6520:6547  _allowances[owner][spender] */\n      0x00\n        /* \"contracts/ERC20.sol\":6539:6546  spender */\n      dup7\n        /* \"contracts/ERC20.sol\":6520:6547  _allowances[owner][spender] */\n      0xffffffffffffffffffffffffffffffffffffffff\n      and\n      0xffffffffffffffffffffffffffffffffffffffff\n      and\n      dup2\n      mstore\n      0x20\n      add\n      swap1\n      dup2\n      mstore\n      0x20\n      add\n      0x00\n      keccak256\n      sload\n        /* \"contracts/ERC20.sol\":6493:6547  uint256 currentAllowance = _allowances[owner][spender] */\n      swap1\n      pop\n        /* \"contracts/ERC20.sol\":6586:6601  subtractedValue */\n      dup4\n        /* \"contracts/ERC20.sol\":6566:6582  currentAllowance */\n      dup2\n        /* \"contracts/ERC20.sol\":6566:6601  currentAllowance >= subtractedValue */\n      lt\n      iszero\n        /* \"contracts/ERC20.sol\":6558:6643  require(currentAllowance >= subtractedValue, \"ERC20: decreased allowance below zero\") */\n      tag_98\n      jumpi\n      mload(0x40)\n      0x08c379a000000000000000000000000000000000000000000000000000000000\n      dup2\n      mstore\n      0x04\n      add\n      tag_99\n      swap1\n      tag_100\n      jump\t// in\n    tag_99:\n      mload(0x40)\n      dup1\n      swap2\n      sub\n      swap1\n      revert\n    tag_98:\n        /* \"contracts/ERC20.sol\":6679:6739  _approve(owner, spender, currentAllowance - subtractedValue) */\n      tag_101\n        /* \"contracts/ERC20.sol\":6688:6693  owner */\n      dup3\n        /* \"contracts/ERC20.sol\":6695:6702  spender */\n      dup7\n        /* \"contracts/ERC20.sol\":6723:6738  subtractedValue */\n      dup7\n        /* \"contracts/ERC20.sol\":6704:6720  currentAllowance */\n      dup5\n        /* \"contracts/ERC20.sol\":6704:6738  currentAllowance - subtractedValue */\n      sub\n        /* \"contracts/ERC20.sol\":6679:6687  _approve */\n      tag_75\n        /* \"contracts/ERC20.sol\":6679:6739  _approve(owner, spender, currentAllowance - subtractedValue) */\n      jump\t// in\n    tag_101:\n        /* \"contracts/ERC20.sol\":6768:6772  true */\n      0x01\n        /* \"contracts/ERC20.sol\":6761:6772  return true */\n      swap3\n      pop\n      pop\n      pop\n        /* \"contracts/ERC20.sol\":6346:6780  function decreaseAllowance(address spender, uint256 subtractedValue) public virtual returns (bool) {\r... */\n      swap3\n      swap2\n      pop\n      pop\n      jump\t// out\n        /* \"contracts/ERC20.sol\":4154:4345  function transfer(address to, uint256 amount) public virtual override returns (bool) {\r... */\n    tag_59:\n        /* \"contracts/ERC20.sol\":4233:4237  bool */\n      0x00\n        /* \"contracts/ERC20.sol\":4250:4263  address owner */\n      dup1\n        /* \"contracts/ERC20.sol\":4266:4276  msg.sender */\n      caller\n        /* \"contracts/ERC20.sol\":4250:4276  address owner = msg.sender */\n      swap1\n      pop\n        /* \"contracts/ERC20.sol\":4287:4315  _transfer(owner, to, amount) */\n      tag_103\n        /* \"contracts/ERC20.sol\":4297:4302  owner */\n      dup2\n        /* \"contracts/ERC20.sol\":4304:4306  to */\n      dup6\n        /* \"contracts/ERC20.sol\":4308:4314  amount */\n      dup6\n        /* \"contracts/ERC20.sol\":4287:4296  _transfer */\n      tag_81\n        /* \"contracts/ERC20.sol\":4287:4315  _transfer(owner, to, amount) */\n      jump\t// in\n    tag_103:\n        /* \"contracts/ERC20.sol\":4333:4337  true */\n      0x01\n        /* \"contracts/ERC20.sol\":4326:4337  return true */\n      swap2\n      pop\n      pop\n        /* \"contracts/ERC20.sol\":4154:4345  function transfer(address to, uint256 amount) public virtual override returns (bool) {\r... */\n      swap3\n      swap2\n      pop\n      pop\n      jump\t// out\n        /* \"contracts/ERC20.sol\":4386:4537  function allowance(address owner, address spender) public view virtual override returns (uint256) {\r... */\n    tag_64:\n        /* \"contracts/ERC20.sol\":4475:4482  uint256 */\n      0x00\n        /* \"contracts/ERC20.sol\":4502:4513  _allowances */\n      0x01\n        /* \"contracts/ERC20.sol\":4502:4520  _allowances[owner] */\n      0x00\n        /* \"contracts/ERC20.sol\":4514:4519  owner */\n      dup5\n        /* \"contracts/ERC20.sol\":4502:4520  _allowances[owner] */\n      0xffffffffffffffffffffffffffffffffffffffff\n      and\n      0xffffffffffffffffffffffffffffffffffffffff\n      and\n      dup2\n      mstore\n      0x20\n      add\n      swap1\n      dup2\n      mstore\n      0x20\n      add\n      0x00\n      keccak256\n        /* \"contracts/ERC20.sol\":4502:4529  _allowances[owner][spender] */\n      0x00\n        /* \"contracts/ERC20.sol\":4521:4528  spender */\n      dup4\n        /* \"contracts/ERC20.sol\":4502:4529  _allowances[owner][spender] */\n      0xffffffffffffffffffffffffffffffffffffffff\n      and\n      0xffffffffffffffffffffffffffffffffffffffff\n      and\n      dup2\n      mstore\n      0x20\n      add\n      swap1\n      dup2\n      mstore\n      0x20\n      add\n      0x00\n      keccak256\n      sload\n        /* \"contracts/ERC20.sol\":4495:4529  return _allowances[owner][spender] */\n      swap1\n      pop\n        /* \"contracts/ERC20.sol\":4386:4537  function allowance(address owner, address spender) public view virtual override returns (uint256) {\r... */\n      swap3\n      swap2\n      pop\n      pop\n      jump\t// out\n        /* \"contracts/ERC20.sol\":9577:9955  function _approve(\r... */\n    tag_75:\n        /* \"contracts/ERC20.sol\":9730:9731  0 */\n      0x00\n        /* \"contracts/ERC20.sol\":9713:9732  owner != address(0) */\n      0xffffffffffffffffffffffffffffffffffffffff\n      and\n        /* \"contracts/ERC20.sol\":9713:9718  owner */\n      dup4\n        /* \"contracts/ERC20.sol\":9713:9732  owner != address(0) */\n      0xffffffffffffffffffffffffffffffffffffffff\n      and\n      eq\n      iszero\n        /* \"contracts/ERC20.sol\":9705:9773  require(owner != address(0), \"ERC20: approve from the zero address\") */\n      tag_106\n      jumpi\n      mload(0x40)\n      0x08c379a000000000000000000000000000000000000000000000000000000000\n      dup2\n      mstore\n      0x04\n      add\n      tag_107\n      swap1\n      tag_108\n      jump\t// in\n    tag_107:\n      mload(0x40)\n      dup1\n      swap2\n      sub\n      swap1\n      revert\n    tag_106:\n        /* \"contracts/ERC20.sol\":9811:9812  0 */\n      0x00\n        /* \"contracts/ERC20.sol\":9792:9813  spender != address(0) */\n      0xffffffffffffffffffffffffffffffffffffffff\n      and\n        /* \"contracts/ERC20.sol\":9792:9799  spender */\n      dup3\n        /* \"contracts/ERC20.sol\":9792:9813  spender != address(0) */\n      0xffffffffffffffffffffffffffffffffffffffff\n      and\n      eq\n      iszero\n        /* \"contracts/ERC20.sol\":9784:9852  require(spender != address(0), \"ERC20: approve to the zero address\") */\n      tag_109\n      jumpi\n      mload(0x40)\n      0x08c379a000000000000000000000000000000000000000000000000000000000\n      dup2\n      mstore\n      0x04\n      add\n      tag_110\n      swap1\n      tag_111\n      jump\t// in\n    tag_110:\n      mload(0x40)\n      dup1\n      swap2\n      sub\n      swap1\n      revert\n    tag_109:\n        /* \"contracts/ERC20.sol\":9893:9899  amount */\n      dup1\n        /* \"contracts/ERC20.sol\":9863:9874  _allowances */\n      0x01\n        /* \"contracts/ERC20.sol\":9863:9881  _allowances[owner] */\n      0x00\n        /* \"contracts/ERC20.sol\":9875:9880  owner */\n      dup6\n        /* \"contracts/ERC20.sol\":9863:9881  _allowances[owner] */\n      0xffffffffffffffffffffffffffffffffffffffff\n      and\n      0xffffffffffffffffffffffffffffffffffffffff\n      and\n      dup2\n      mstore\n      0x20\n      add\n      swap1\n      dup2\n      mstore\n      0x20\n      add\n      0x00\n      keccak256\n        /* \"contracts/ERC20.sol\":9863:9890  _allowances[owner][spender] */\n      0x00\n        /* \"contracts/ERC20.sol\":9882:9889  spender */\n      dup5\n        /* \"contracts/ERC20.sol\":9863:9890  _allowances[owner][spender] */\n      0xffffffffffffffffffffffffffffffffffffffff\n      and\n      0xffffffffffffffffffffffffffffffffffffffff\n      and\n      dup2\n      mstore\n      0x20\n      add\n      swap1\n      dup2\n      mstore\n      0x20\n      add\n      0x00\n      keccak256\n        /* \"contracts/ERC20.sol\":9863:9899  _allowances[owner][spender] = amount */\n      dup2\n      swap1\n      sstore\n      pop\n        /* \"contracts/ERC20.sol\":9931:9938  spender */\n      dup2\n        /* \"contracts/ERC20.sol\":9915:9947  Approval(owner, spender, amount) */\n      0xffffffffffffffffffffffffffffffffffffffff\n      and\n        /* \"contracts/ERC20.sol\":9924:9929  owner */\n      dup4\n        /* \"contracts/ERC20.sol\":9915:9947  Approval(owner, spender, amount) */\n      0xffffffffffffffffffffffffffffffffffffffff\n      and\n      0x8c5be1e5ebec7d5bd14f71427d1e84f3dd0314c0f7b2291e5b200ac8c7c3b925\n        /* \"contracts/ERC20.sol\":9940:9946  amount */\n      dup4\n        /* \"contracts/ERC20.sol\":9915:9947  Approval(owner, spender, amount) */\n      mload(0x40)\n      tag_112\n      swap2\n      swap1\n      tag_29\n      jump\t// in\n    tag_112:\n      mload(0x40)\n      dup1\n      swap2\n      sub\n      swap1\n      log3\n        /* \"contracts/ERC20.sol\":9577:9955  function _approve(\r... */\n      pop\n      pop\n      pop\n      jump\t// out\n        /* \"contracts/ERC20.sol\":10221:10674  function _spendAllowance(\r... */\n    tag_79:\n        /* \"contracts/ERC20.sol\":10356:10380  uint256 currentAllowance */\n      0x00\n        /* \"contracts/ERC20.sol\":10383:10408  allowance(owner, spender) */\n      tag_114\n        /* \"contracts/ERC20.sol\":10393:10398  owner */\n      dup5\n        /* \"contracts/ERC20.sol\":10400:10407  spender */\n      dup5\n        /* \"contracts/ERC20.sol\":10383:10392  allowance */\n      tag_64\n        /* \"contracts/ERC20.sol\":10383:10408  allowance(owner, spender) */\n      jump\t// in\n    tag_114:\n        /* \"contracts/ERC20.sol\":10356:10408  uint256 currentAllowance = allowance(owner, spender) */\n      swap1\n      pop\n        /* \"contracts/ERC20.sol\":10443:10460  type(uint256).max */\n      0xffffffffffffffffffffffffffffffffffffffffffffffffffffffffffffffff\n        /* \"contracts/ERC20.sol\":10423:10439  currentAllowance */\n      dup2\n        /* \"contracts/ERC20.sol\":10423:10460  currentAllowance != type(uint256).max */\n      eq\n        /* \"contracts/ERC20.sol\":10419:10667  if (currentAllowance != type(uint256).max) {\r... */\n      tag_115\n      jumpi\n        /* \"contracts/ERC20.sol\":10505:10511  amount */\n      dup2\n        /* \"contracts/ERC20.sol\":10485:10501  currentAllowance */\n      dup2\n        /* \"contracts/ERC20.sol\":10485:10511  currentAllowance >= amount */\n      lt\n      iszero\n        /* \"contracts/ERC20.sol\":10477:10545  require(currentAllowance >= amount, \"ERC20: insufficient allowance\") */\n      tag_116\n      jumpi\n      mload(0x40)\n      0x08c379a000000000000000000000000000000000000000000000000000000000\n      dup2\n      mstore\n      0x04\n      add\n      tag_117\n      swap1\n      tag_118\n      jump\t// in\n    tag_117:\n      mload(0x40)\n      dup1\n      swap2\n      sub\n      swap1\n      revert\n    tag_116:\n        /* \"contracts/ERC20.sol\":10589:10640  _approve(owner, spender, currentAllowance - amount) */\n      tag_119\n        /* \"contracts/ERC20.sol\":10598:10603  owner */\n      dup5\n        /* \"contracts/ERC20.sol\":10605:10612  spender */\n      dup5\n        /* \"contracts/ERC20.sol\":10633:10639  amount */\n      dup5\n        /* \"contracts/ERC20.sol\":10614:10630  currentAllowance */\n      dup5\n        /* \"contracts/ERC20.sol\":10614:10639  currentAllowance - amount */\n      sub\n        /* \"contracts/ERC20.sol\":10589:10597  _approve */\n      tag_75\n        /* \"contracts/ERC20.sol\":10589:10640  _approve(owner, spender, currentAllowance - amount) */\n      jump\t// in\n    tag_119:\n        /* \"contracts/ERC20.sol\":10419:10667  if (currentAllowance != type(uint256).max) {\r... */\n    tag_115:\n        /* \"contracts/ERC20.sol\":10221:10674  function _spendAllowance(\r... */\n      pop\n      pop\n      pop\n      pop\n      jump\t// out\n        /* \"contracts/ERC20.sol\":7164:7827  function _transfer(\r... */\n    tag_81:\n        /* \"contracts/ERC20.sol\":7311:7312  0 */\n      0x00\n        /* \"contracts/ERC20.sol\":7295:7313  from != address(0) */\n      0xffffffffffffffffffffffffffffffffffffffff\n      and\n        /* \"contracts/ERC20.sol\":7295:7299  from */\n      dup4\n        /* \"contracts/ERC20.sol\":7295:7313  from != address(0) */\n      0xffffffffffffffffffffffffffffffffffffffff\n      and\n      eq\n      iszero\n        /* \"contracts/ERC20.sol\":7287:7355  require(from != address(0), \"ERC20: transfer from the zero address\") */\n      tag_121\n      jumpi\n      mload(0x40)\n      0x08c379a000000000000000000000000000000000000000000000000000000000\n      dup2\n      mstore\n      0x04\n      add\n      tag_122\n      swap1\n      tag_123\n      jump\t// in\n    tag_122:\n      mload(0x40)\n      dup1\n      swap2\n      sub\n      swap1\n      revert\n    tag_121:\n        /* \"contracts/ERC20.sol\":7388:7389  0 */\n      0x00\n        /* \"contracts/ERC20.sol\":7374:7390  to != address(0) */\n      0xffffffffffffffffffffffffffffffffffffffff\n      and\n        /* \"contracts/ERC20.sol\":7374:7376  to */\n      dup3\n        /* \"contracts/ERC20.sol\":7374:7390  to != address(0) */\n      0xffffffffffffffffffffffffffffffffffffffff\n      and\n      eq\n      iszero\n        /* \"contracts/ERC20.sol\":7366:7430  require(to != address(0), \"ERC20: transfer to the zero address\") */\n      tag_124\n      jumpi\n      mload(0x40)\n      0x08c379a000000000000000000000000000000000000000000000000000000000\n      dup2\n      mstore\n      0x04\n      add\n      tag_125\n      swap1\n      tag_126\n      jump\t// in\n    tag_125:\n      mload(0x40)\n      dup1\n      swap2\n      sub\n      swap1\n      revert\n    tag_124:\n        /* \"contracts/ERC20.sol\":7441:7479  _beforeTokenTransfer(from, to, amount) */\n      tag_127\n        /* \"contracts/ERC20.sol\":7462:7466  from */\n      dup4\n        /* \"contracts/ERC20.sol\":7468:7470  to */\n      dup4\n        /* \"contracts/ERC20.sol\":7472:7478  amount */\n      dup4\n        /* \"contracts/ERC20.sol\":7441:7461  _beforeTokenTransfer */\n      tag_128\n        /* \"contracts/ERC20.sol\":7441:7479  _beforeTokenTransfer(from, to, amount) */\n      jump\t// in\n    tag_127:\n        /* \"contracts/ERC20.sol\":7490:7509  uint256 fromBalance */\n      0x00\n        /* \"contracts/ERC20.sol\":7512:7521  _balances */\n      dup1\n        /* \"contracts/ERC20.sol\":7512:7527  _balances[from] */\n      0x00\n        /* \"contracts/ERC20.sol\":7522:7526  from */\n      dup6\n        /* \"contracts/ERC20.sol\":7512:7527  _balances[from] */\n      0xffffffffffffffffffffffffffffffffffffffff\n      and\n      0xffffffffffffffffffffffffffffffffffffffff\n      and\n      dup2\n      mstore\n      0x20\n      add\n      swap1\n      dup2\n      mstore\n      0x20\n      add\n      0x00\n      keccak256\n      sload\n        /* \"contracts/ERC20.sol\":7490:7527  uint256 fromBalance = _balances[from] */\n      swap1\n      pop\n        /* \"contracts/ERC20.sol\":7561:7567  amount */\n      dup2\n        /* \"contracts/ERC20.sol\":7546:7557  fromBalance */\n      dup2\n        /* \"contracts/ERC20.sol\":7546:7567  fromBalance >= amount */\n      lt\n      iszero\n        /* \"contracts/ERC20.sol\":7538:7610  require(fromBalance >= amount, \"ERC20: transfer amount exceeds balance\") */\n      tag_129\n      jumpi\n      mload(0x40)\n      0x08c379a000000000000000000000000000000000000000000000000000000000\n      dup2\n      mstore\n      0x04\n      add\n      tag_130\n      swap1\n      tag_131\n      jump\t// in\n    tag_130:\n      mload(0x40)\n      dup1\n      swap2\n      sub\n      swap1\n      revert\n    tag_129:\n        /* \"contracts/ERC20.sol\":7678:7684  amount */\n      dup2\n        /* \"contracts/ERC20.sol\":7664:7675  fromBalance */\n      dup2\n        /* \"contracts/ERC20.sol\":7664:7684  fromBalance - amount */\n      sub\n        /* \"contracts/ERC20.sol\":7646:7655  _balances */\n      0x00\n        /* \"contracts/ERC20.sol\":7646:7661  _balances[from] */\n      dup1\n        /* \"contracts/ERC20.sol\":7656:7660  from */\n      dup7\n        /* \"contracts/ERC20.sol\":7646:7661  _balances[from] */\n      0xffffffffffffffffffffffffffffffffffffffff\n      and\n      0xffffffffffffffffffffffffffffffffffffffff\n      and\n      dup2\n      mstore\n      0x20\n      add\n      swap1\n      dup2\n      mstore\n      0x20\n      add\n      0x00\n      keccak256\n        /* \"contracts/ERC20.sol\":7646:7684  _balances[from] = fromBalance - amount */\n      dup2\n      swap1\n      sstore\n      pop\n        /* \"contracts/ERC20.sol\":7723:7729  amount */\n      dup2\n        /* \"contracts/ERC20.sol\":7706:7715  _balances */\n      0x00\n        /* \"contracts/ERC20.sol\":7706:7719  _balances[to] */\n      dup1\n        /* \"contracts/ERC20.sol\":7716:7718  to */\n      dup6\n        /* \"contracts/ERC20.sol\":7706:7719  _balances[to] */\n      0xffffffffffffffffffffffffffffffffffffffff\n      and\n      0xffffffffffffffffffffffffffffffffffffffff\n      and\n      dup2\n      mstore\n      0x20\n      add\n      swap1\n      dup2\n      mstore\n      0x20\n      add\n      0x00\n      keccak256\n      0x00\n        /* \"contracts/ERC20.sol\":7706:7729  _balances[to] += amount */\n      dup3\n      dup3\n      sload\n      tag_132\n      swap2\n      swap1\n      tag_86\n      jump\t// in\n    tag_132:\n      swap3\n      pop\n      pop\n      dup2\n      swap1\n      sstore\n      pop\n        /* \"contracts/ERC20.sol\":7760:7762  to */\n      dup3\n        /* \"contracts/ERC20.sol\":7745:7771  Transfer(from, to, amount) */\n      0xffffffffffffffffffffffffffffffffffffffff\n      and\n        /* \"contracts/ERC20.sol\":7754:7758  from */\n      dup5\n        /* \"contracts/ERC20.sol\":7745:7771  Transfer(from, to, amount) */\n      0xffffffffffffffffffffffffffffffffffffffff\n      and\n      0xddf252ad1be2c89b69c2b068fc378daa952ba7f163c4a11628f55a4df523b3ef\n        /* \"contracts/ERC20.sol\":7764:7770  amount */\n      dup5\n        /* \"contracts/ERC20.sol\":7745:7771  Transfer(from, to, amount) */\n      mload(0x40)\n      tag_133\n      swap2\n      swap1\n      tag_29\n      jump\t// in\n    tag_133:\n      mload(0x40)\n      dup1\n      swap2\n      sub\n      swap1\n      log3\n        /* \"contracts/ERC20.sol\":7782:7819  _afterTokenTransfer(from, to, amount) */\n      tag_134\n        /* \"contracts/ERC20.sol\":7802:7806  from */\n      dup5\n        /* \"contracts/ERC20.sol\":7808:7810  to */\n      dup5\n        /* \"contracts/ERC20.sol\":7812:7818  amount */\n      dup5\n        /* \"contracts/ERC20.sol\":7782:7801  _afterTokenTransfer */\n      tag_135\n        /* \"contracts/ERC20.sol\":7782:7819  _afterTokenTransfer(from, to, amount) */\n      jump\t// in\n    tag_134:\n        /* \"contracts/ERC20.sol\":7164:7827  function _transfer(\r... */\n      pop\n      pop\n      pop\n      pop\n      jump\t// out\n        /* \"contracts/ERC20.sol\":8063:8456  function _mint(address account, uint256 amount) internal virtual {\r... */\n    tag_96:\n        /* \"contracts/ERC20.sol\":8166:8167  0 */\n      0x00\n        /* \"contracts/ERC20.sol\":8147:8168  account != address(0) */\n      0xffffffffffffffffffffffffffffffffffffffff\n      and\n        /* \"contracts/ERC20.sol\":8147:8154  account */\n      dup3\n        /* \"contracts/ERC20.sol\":8147:8168  account != address(0) */\n      0xffffffffffffffffffffffffffffffffffffffff\n      and\n      eq\n      iszero\n        /* \"contracts/ERC20.sol\":8139:8204  require(account != address(0), \"ERC20: mint to the zero address\") */\n      tag_137\n      jumpi\n      mload(0x40)\n      0x08c379a000000000000000000000000000000000000000000000000000000000\n      dup2\n      mstore\n      0x04\n      add\n      tag_138\n      swap1\n      tag_139\n      jump\t// in\n    tag_138:\n      mload(0x40)\n      dup1\n      swap2\n      sub\n      swap1\n      revert\n    tag_137:\n        /* \"contracts/ERC20.sol\":8215:8264  _beforeTokenTransfer(address(0), account, amount) */\n      tag_140\n        /* \"contracts/ERC20.sol\":8244:8245  0 */\n      0x00\n        /* \"contracts/ERC20.sol\":8248:8255  account */\n      dup4\n        /* \"contracts/ERC20.sol\":8257:8263  amount */\n      dup4\n        /* \"contracts/ERC20.sol\":8215:8235  _beforeTokenTransfer */\n      tag_128\n        /* \"contracts/ERC20.sol\":8215:8264  _beforeTokenTransfer(address(0), account, amount) */\n      jump\t// in\n    tag_140:\n        /* \"contracts/ERC20.sol\":8291:8297  amount */\n      dup1\n        /* \"contracts/ERC20.sol\":8275:8287  _totalSupply */\n      0x02\n      0x00\n        /* \"contracts/ERC20.sol\":8275:8297  _totalSupply += amount */\n      dup3\n      dup3\n      sload\n      tag_141\n      swap2\n      swap1\n      tag_86\n      jump\t// in\n    tag_141:\n      swap3\n      pop\n      pop\n      dup2\n      swap1\n      sstore\n      pop\n        /* \"contracts/ERC20.sol\":8330:8336  amount */\n      dup1\n        /* \"contracts/ERC20.sol\":8308:8317  _balances */\n      0x00\n        /* \"contracts/ERC20.sol\":8308:8326  _balances[account] */\n      dup1\n        /* \"contracts/ERC20.sol\":8318:8325  account */\n      dup5\n        /* \"contracts/ERC20.sol\":8308:8326  _balances[account] */\n      0xffffffffffffffffffffffffffffffffffffffff\n      and\n      0xffffffffffffffffffffffffffffffffffffffff\n      and\n      dup2\n      mstore\n      0x20\n      add\n      swap1\n      dup2\n      mstore\n      0x20\n      add\n      0x00\n      keccak256\n      0x00\n        /* \"contracts/ERC20.sol\":8308:8336  _balances[account] += amount */\n      dup3\n      dup3\n      sload\n      tag_142\n      swap2\n      swap1\n      tag_86\n      jump\t// in\n    tag_142:\n      swap3\n      pop\n      pop\n      dup2\n      swap1\n      sstore\n      pop\n        /* \"contracts/ERC20.sol\":8373:8380  account */\n      dup2\n        /* \"contracts/ERC20.sol\":8352:8389  Transfer(address(0), account, amount) */\n      0xffffffffffffffffffffffffffffffffffffffff\n      and\n        /* \"contracts/ERC20.sol\":8369:8370  0 */\n      0x00\n        /* \"contracts/ERC20.sol\":8352:8389  Transfer(address(0), account, amount) */\n      0xffffffffffffffffffffffffffffffffffffffff\n      and\n      0xddf252ad1be2c89b69c2b068fc378daa952ba7f163c4a11628f55a4df523b3ef\n        /* \"contracts/ERC20.sol\":8382:8388  amount */\n      dup4\n        /* \"contracts/ERC20.sol\":8352:8389  Transfer(address(0), account, amount) */\n      mload(0x40)\n      tag_143\n      swap2\n      swap1\n      tag_29\n      jump\t// in\n    tag_143:\n      mload(0x40)\n      dup1\n      swap2\n      sub\n      swap1\n      log3\n        /* \"contracts/ERC20.sol\":8400:8448  _afterTokenTransfer(address(0), account, amount) */\n      tag_144\n        /* \"contracts/ERC20.sol\":8428:8429  0 */\n      0x00\n        /* \"contracts/ERC20.sol\":8432:8439  account */\n      dup4\n        /* \"contracts/ERC20.sol\":8441:8447  amount */\n      dup4\n        /* \"contracts/ERC20.sol\":8400:8419  _afterTokenTransfer */\n      tag_135\n        /* \"contracts/ERC20.sol\":8400:8448  _afterTokenTransfer(address(0), account, amount) */\n      jump\t// in\n    tag_144:\n        /* \"contracts/ERC20.sol\":8063:8456  function _mint(address account, uint256 amount) internal virtual {\r... */\n      pop\n      pop\n      jump\t// out\n        /* \"contracts/ERC20.sol\":11132:11257  function _beforeTokenTransfer(\r... */\n    tag_128:\n      pop\n      pop\n      pop\n      jump\t// out\n        /* \"contracts/ERC20.sol\":11727:11851  function _afterTokenTransfer(\r... */\n    tag_135:\n      pop\n      pop\n      pop\n      jump\t// out\n        /* \"#utility.yul\":7:146   */\n    tag_148:\n        /* \"#utility.yul\":53:58   */\n      0x00\n        /* \"#utility.yul\":91:97   */\n      dup2\n        /* \"#utility.yul\":78:98   */\n      calldataload\n        /* \"#utility.yul\":69:98   */\n      swap1\n      pop\n        /* \"#utility.yul\":107:140   */\n      tag_150\n        /* \"#utility.yul\":134:139   */\n      dup2\n        /* \"#utility.yul\":107:140   */\n      tag_151\n      jump\t// in\n    tag_150:\n        /* \"#utility.yul\":59:146   */\n      swap3\n      swap2\n      pop\n      pop\n      jump\t// out\n        /* \"#utility.yul\":152:291   */\n    tag_152:\n        /* \"#utility.yul\":198:203   */\n      0x00\n        /* \"#utility.yul\":236:242   */\n      dup2\n        /* \"#utility.yul\":223:243   */\n      calldataload\n        /* \"#utility.yul\":214:243   */\n      swap1\n      pop\n        /* \"#utility.yul\":252:285   */\n      tag_154\n        /* \"#utility.yul\":279:284   */\n      dup2\n        /* \"#utility.yul\":252:285   */\n      tag_155\n      jump\t// in\n    tag_154:\n        /* \"#utility.yul\":204:291   */\n      swap3\n      swap2\n      pop\n      pop\n      jump\t// out\n        /* \"#utility.yul\":297:559   */\n    tag_45:\n        /* \"#utility.yul\":356:362   */\n      0x00\n        /* \"#utility.yul\":405:407   */\n      0x20\n        /* \"#utility.yul\":393:402   */\n      dup3\n        /* \"#utility.yul\":384:391   */\n      dup5\n        /* \"#utility.yul\":380:403   */\n      sub\n        /* \"#utility.yul\":376:408   */\n      slt\n        /* \"#utility.yul\":373:375   */\n      iszero\n      tag_157\n      jumpi\n        /* \"#utility.yul\":421:422   */\n      0x00\n        /* \"#utility.yul\":418:419   */\n      dup1\n        /* \"#utility.yul\":411:423   */\n      revert\n        /* \"#utility.yul\":373:375   */\n    tag_157:\n        /* \"#utility.yul\":464:465   */\n      0x00\n        /* \"#utility.yul\":489:542   */\n      tag_158\n        /* \"#utility.yul\":534:541   */\n      dup5\n        /* \"#utility.yul\":525:531   */\n      dup3\n        /* \"#utility.yul\":514:523   */\n      dup6\n        /* \"#utility.yul\":510:532   */\n      add\n        /* \"#utility.yul\":489:542   */\n      tag_148\n      jump\t// in\n    tag_158:\n        /* \"#utility.yul\":479:542   */\n      swap2\n      pop\n        /* \"#utility.yul\":435:552   */\n      pop\n        /* \"#utility.yul\":363:559   */\n      swap3\n      swap2\n      pop\n      pop\n      jump\t// out\n        /* \"#utility.yul\":565:972   */\n    tag_63:\n        /* \"#utility.yul\":633:639   */\n      0x00\n        /* \"#utility.yul\":641:647   */\n      dup1\n        /* \"#utility.yul\":690:692   */\n      0x40\n        /* \"#utility.yul\":678:687   */\n      dup4\n        /* \"#utility.yul\":669:676   */\n      dup6\n        /* \"#utility.yul\":665:688   */\n      sub\n        /* \"#utility.yul\":661:693   */\n      slt\n        /* \"#utility.yul\":658:660   */\n      iszero\n      tag_160\n      jumpi\n        /* \"#utility.yul\":706:707   */\n      0x00\n        /* \"#utility.yul\":703:704   */\n      dup1\n        /* \"#utility.yul\":696:708   */\n      revert\n        /* \"#utility.yul\":658:660   */\n    tag_160:\n        /* \"#utility.yul\":749:750   */\n      0x00\n        /* \"#utility.yul\":774:827   */\n      tag_161\n        /* \"#utility.yul\":819:826   */\n      dup6\n        /* \"#utility.yul\":810:816   */\n      dup3\n        /* \"#utility.yul\":799:808   */\n      dup7\n        /* \"#utility.yul\":795:817   */\n      add\n        /* \"#utility.yul\":774:827   */\n      tag_148\n      jump\t// in\n    tag_161:\n        /* \"#utility.yul\":764:827   */\n      swap3\n      pop\n        /* \"#utility.yul\":720:837   */\n      pop\n        /* \"#utility.yul\":876:878   */\n      0x20\n        /* \"#utility.yul\":902:955   */\n      tag_162\n        /* \"#utility.yul\":947:954   */\n      dup6\n        /* \"#utility.yul\":938:944   */\n      dup3\n        /* \"#utility.yul\":927:936   */\n      dup7\n        /* \"#utility.yul\":923:945   */\n      add\n        /* \"#utility.yul\":902:955   */\n      tag_148\n      jump\t// in\n    tag_162:\n        /* \"#utility.yul\":892:955   */\n      swap2\n      pop\n        /* \"#utility.yul\":847:965   */\n      pop\n        /* \"#utility.yul\":648:972   */\n      swap3\n      pop\n      swap3\n      swap1\n      pop\n      jump\t// out\n        /* \"#utility.yul\":978:1530   */\n    tag_32:\n        /* \"#utility.yul\":1055:1061   */\n      0x00\n        /* \"#utility.yul\":1063:1069   */\n      dup1\n        /* \"#utility.yul\":1071:1077   */\n      0x00\n        /* \"#utility.yul\":1120:1122   */\n      0x60\n        /* \"#utility.yul\":1108:1117   */\n      dup5\n        /* \"#utility.yul\":1099:1106   */\n      dup7\n        /* \"#utility.yul\":1095:1118   */\n      sub\n        /* \"#utility.yul\":1091:1123   */\n      slt\n        /* \"#utility.yul\":1088:1090   */\n      iszero\n      tag_164\n      jumpi\n        /* \"#utility.yul\":1136:1137   */\n      0x00\n        /* \"#utility.yul\":1133:1134   */\n      dup1\n        /* \"#utility.yul\":1126:1138   */\n      revert\n        /* \"#utility.yul\":1088:1090   */\n    tag_164:\n        /* \"#utility.yul\":1179:1180   */\n      0x00\n        /* \"#utility.yul\":1204:1257   */\n      tag_165\n        /* \"#utility.yul\":1249:1256   */\n      dup7\n        /* \"#utility.yul\":1240:1246   */\n      dup3\n        /* \"#utility.yul\":1229:1238   */\n      dup8\n        /* \"#utility.yul\":1225:1247   */\n      add\n        /* \"#utility.yul\":1204:1257   */\n      tag_148\n      jump\t// in\n    tag_165:\n        /* \"#utility.yul\":1194:1257   */\n      swap4\n      pop\n        /* \"#utility.yul\":1150:1267   */\n      pop\n        /* \"#utility.yul\":1306:1308   */\n      0x20\n        /* \"#utility.yul\":1332:1385   */\n      tag_166\n        /* \"#utility.yul\":1377:1384   */\n      dup7\n        /* \"#utility.yul\":1368:1374   */\n      dup3\n        /* \"#utility.yul\":1357:1366   */\n      dup8\n        /* \"#utility.yul\":1353:1375   */\n      add\n        /* \"#utility.yul\":1332:1385   */\n      tag_148\n      jump\t// in\n    tag_166:\n        /* \"#utility.yul\":1322:1385   */\n      swap3\n      pop\n        /* \"#utility.yul\":1277:1395   */\n      pop\n        /* \"#utility.yul\":1434:1436   */\n      0x40\n        /* \"#utility.yul\":1460:1513   */\n      tag_167\n        /* \"#utility.yul\":1505:1512   */\n      dup7\n        /* \"#utility.yul\":1496:1502   */\n      dup3\n        /* \"#utility.yul\":1485:1494   */\n      dup8\n        /* \"#utility.yul\":1481:1503   */\n      add\n        /* \"#utility.yul\":1460:1513   */\n      tag_152\n      jump\t// in\n    tag_167:\n        /* \"#utility.yul\":1450:1513   */\n      swap2\n      pop\n        /* \"#utility.yul\":1405:1523   */\n      pop\n        /* \"#utility.yul\":1078:1530   */\n      swap3\n      pop\n      swap3\n      pop\n      swap3\n      jump\t// out\n        /* \"#utility.yul\":1536:1943   */\n    tag_22:\n        /* \"#utility.yul\":1604:1610   */\n      0x00\n        /* \"#utility.yul\":1612:1618   */\n      dup1\n        /* \"#utility.yul\":1661:1663   */\n      0x40\n        /* \"#utility.yul\":1649:1658   */\n      dup4\n        /* \"#utility.yul\":1640:1647   */\n      dup6\n        /* \"#utility.yul\":1636:1659   */\n      sub\n        /* \"#utility.yul\":1632:1664   */\n      slt\n        /* \"#utility.yul\":1629:1631   */\n      iszero\n      tag_169\n      jumpi\n        /* \"#utility.yul\":1677:1678   */\n      0x00\n        /* \"#utility.yul\":1674:1675   */\n      dup1\n        /* \"#utility.yul\":1667:1679   */\n      revert\n        /* \"#utility.yul\":1629:1631   */\n    tag_169:\n        /* \"#utility.yul\":1720:1721   */\n      0x00\n        /* \"#utility.yul\":1745:1798   */\n      tag_170\n        /* \"#utility.yul\":1790:1797   */\n      dup6\n        /* \"#utility.yul\":1781:1787   */\n      dup3\n        /* \"#utility.yul\":1770:1779   */\n      dup7\n        /* \"#utility.yul\":1766:1788   */\n      add\n        /* \"#utility.yul\":1745:1798   */\n      tag_148\n      jump\t// in\n    tag_170:\n        /* \"#utility.yul\":1735:1798   */\n      swap3\n      pop\n        /* \"#utility.yul\":1691:1808   */\n      pop\n        /* \"#utility.yul\":1847:1849   */\n      0x20\n        /* \"#utility.yul\":1873:1926   */\n      tag_171\n        /* \"#utility.yul\":1918:1925   */\n      dup6\n        /* \"#utility.yul\":1909:1915   */\n      dup3\n        /* \"#utility.yul\":1898:1907   */\n      dup7\n        /* \"#utility.yul\":1894:1916   */\n      add\n        /* \"#utility.yul\":1873:1926   */\n      tag_152\n      jump\t// in\n    tag_171:\n        /* \"#utility.yul\":1863:1926   */\n      swap2\n      pop\n        /* \"#utility.yul\":1818:1936   */\n      pop\n        /* \"#utility.yul\":1619:1943   */\n      swap3\n      pop\n      swap3\n      swap1\n      pop\n      jump\t// out\n        /* \"#utility.yul\":1949:2058   */\n    tag_172:\n        /* \"#utility.yul\":2030:2051   */\n      tag_174\n        /* \"#utility.yul\":2045:2050   */\n      dup2\n        /* \"#utility.yul\":2030:2051   */\n      tag_175\n      jump\t// in\n    tag_174:\n        /* \"#utility.yul\":2025:2028   */\n      dup3\n        /* \"#utility.yul\":2018:2052   */\n      mstore\n        /* \"#utility.yul\":2008:2058   */\n      pop\n      pop\n      jump\t// out\n        /* \"#utility.yul\":2064:2428   */\n    tag_176:\n        /* \"#utility.yul\":2152:2155   */\n      0x00\n        /* \"#utility.yul\":2180:2219   */\n      tag_178\n        /* \"#utility.yul\":2213:2218   */\n      dup3\n        /* \"#utility.yul\":2180:2219   */\n      tag_179\n      jump\t// in\n    tag_178:\n        /* \"#utility.yul\":2235:2306   */\n      tag_180\n        /* \"#utility.yul\":2299:2305   */\n      dup2\n        /* \"#utility.yul\":2294:2297   */\n      dup6\n        /* \"#utility.yul\":2235:2306   */\n      tag_181\n      jump\t// in\n    tag_180:\n        /* \"#utility.yul\":2228:2306   */\n      swap4\n      pop\n        /* \"#utility.yul\":2315:2367   */\n      tag_182\n        /* \"#utility.yul\":2360:2366   */\n      dup2\n        /* \"#utility.yul\":2355:2358   */\n      dup6\n        /* \"#utility.yul\":2348:2352   */\n      0x20\n        /* \"#utility.yul\":2341:2346   */\n      dup7\n        /* \"#utility.yul\":2337:2353   */\n      add\n        /* \"#utility.yul\":2315:2367   */\n      tag_183\n      jump\t// in\n    tag_182:\n        /* \"#utility.yul\":2392:2421   */\n      tag_184\n        /* \"#utility.yul\":2414:2420   */\n      dup2\n        /* \"#utility.yul\":2392:2421   */\n      tag_185\n      jump\t// in\n    tag_184:\n        /* \"#utility.yul\":2387:2390   */\n      dup5\n        /* \"#utility.yul\":2383:2422   */\n      add\n        /* \"#utility.yul\":2376:2422   */\n      swap2\n      pop\n        /* \"#utility.yul\":2156:2428   */\n      pop\n      swap3\n      swap2\n      pop\n      pop\n      jump\t// out\n        /* \"#utility.yul\":2434:2800   */\n    tag_186:\n        /* \"#utility.yul\":2576:2579   */\n      0x00\n        /* \"#utility.yul\":2597:2664   */\n      tag_188\n        /* \"#utility.yul\":2661:2663   */\n      0x23\n        /* \"#utility.yul\":2656:2659   */\n      dup4\n        /* \"#utility.yul\":2597:2664   */\n      tag_181\n      jump\t// in\n    tag_188:\n        /* \"#utility.yul\":2590:2664   */\n      swap2\n      pop\n        /* \"#utility.yul\":2673:2766   */\n      tag_189\n        /* \"#utility.yul\":2762:2765   */\n      dup3\n        /* \"#utility.yul\":2673:2766   */\n      tag_190\n      jump\t// in\n    tag_189:\n        /* \"#utility.yul\":2791:2793   */\n      0x40\n        /* \"#utility.yul\":2786:2789   */\n      dup3\n        /* \"#utility.yul\":2782:2794   */\n      add\n        /* \"#utility.yul\":2775:2794   */\n      swap1\n      pop\n        /* \"#utility.yul\":2580:2800   */\n      swap2\n      swap1\n      pop\n      jump\t// out\n        /* \"#utility.yul\":2806:3172   */\n    tag_191:\n        /* \"#utility.yul\":2948:2951   */\n      0x00\n        /* \"#utility.yul\":2969:3036   */\n      tag_193\n        /* \"#utility.yul\":3033:3035   */\n      0x22\n        /* \"#utility.yul\":3028:3031   */\n      dup4\n        /* \"#utility.yul\":2969:3036   */\n      tag_181\n      jump\t// in\n    tag_193:\n        /* \"#utility.yul\":2962:3036   */\n      swap2\n      pop\n        /* \"#utility.yul\":3045:3138   */\n      tag_194\n        /* \"#utility.yul\":3134:3137   */\n      dup3\n        /* \"#utility.yul\":3045:3138   */\n      tag_195\n      jump\t// in\n    tag_194:\n        /* \"#utility.yul\":3163:3165   */\n      0x40\n        /* \"#utility.yul\":3158:3161   */\n      dup3\n        /* \"#utility.yul\":3154:3166   */\n      add\n        /* \"#utility.yul\":3147:3166   */\n      swap1\n      pop\n        /* \"#utility.yul\":2952:3172   */\n      swap2\n      swap1\n      pop\n      jump\t// out\n        /* \"#utility.yul\":3178:3544   */\n    tag_196:\n        /* \"#utility.yul\":3320:3323   */\n      0x00\n        /* \"#utility.yul\":3341:3408   */\n      tag_198\n        /* \"#utility.yul\":3405:3407   */\n      0x1d\n        /* \"#utility.yul\":3400:3403   */\n      dup4\n        /* \"#utility.yul\":3341:3408   */\n      tag_181\n      jump\t// in\n    tag_198:\n        /* \"#utility.yul\":3334:3408   */\n      swap2\n      pop\n        /* \"#utility.yul\":3417:3510   */\n      tag_199\n        /* \"#utility.yul\":3506:3509   */\n      dup3\n        /* \"#utility.yul\":3417:3510   */\n      tag_200\n      jump\t// in\n    tag_199:\n        /* \"#utility.yul\":3535:3537   */\n      0x20\n        /* \"#utility.yul\":3530:3533   */\n      dup3\n        /* \"#utility.yul\":3526:3538   */\n      add\n        /* \"#utility.yul\":3519:3538   */\n      swap1\n      pop\n        /* \"#utility.yul\":3324:3544   */\n      swap2\n      swap1\n      pop\n      jump\t// out\n        /* \"#utility.yul\":3550:3916   */\n    tag_201:\n        /* \"#utility.yul\":3692:3695   */\n      0x00\n        /* \"#utility.yul\":3713:3780   */\n      tag_203\n        /* \"#utility.yul\":3777:3779   */\n      0x26\n        /* \"#utility.yul\":3772:3775   */\n      dup4\n        /* \"#utility.yul\":3713:3780   */\n      tag_181\n      jump\t// in\n    tag_203:\n        /* \"#utility.yul\":3706:3780   */\n      swap2\n      pop\n        /* \"#utility.yul\":3789:3882   */\n      tag_204\n        /* \"#utility.yul\":3878:3881   */\n      dup3\n        /* \"#utility.yul\":3789:3882   */\n      tag_205\n      jump\t// in\n    tag_204:\n        /* \"#utility.yul\":3907:3909   */\n      0x40\n        /* \"#utility.yul\":3902:3905   */\n      dup3\n        /* \"#utility.yul\":3898:3910   */\n      add\n        /* \"#utility.yul\":3891:3910   */\n      swap1\n      pop\n        /* \"#utility.yul\":3696:3916   */\n      swap2\n      swap1\n      pop\n      jump\t// out\n        /* \"#utility.yul\":3922:4288   */\n    tag_206:\n        /* \"#utility.yul\":4064:4067   */\n      0x00\n        /* \"#utility.yul\":4085:4152   */\n      tag_208\n        /* \"#utility.yul\":4149:4151   */\n      0x25\n        /* \"#utility.yul\":4144:4147   */\n      dup4\n        /* \"#utility.yul\":4085:4152   */\n      tag_181\n      jump\t// in\n    tag_208:\n        /* \"#utility.yul\":4078:4152   */\n      swap2\n      pop\n        /* \"#utility.yul\":4161:4254   */\n      tag_209\n        /* \"#utility.yul\":4250:4253   */\n      dup3\n        /* \"#utility.yul\":4161:4254   */\n      tag_210\n      jump\t// in\n    tag_209:\n        /* \"#utility.yul\":4279:4281   */\n      0x40\n        /* \"#utility.yul\":4274:4277   */\n      dup3\n        /* \"#utility.yul\":4270:4282   */\n      add\n        /* \"#utility.yul\":4263:4282   */\n      swap1\n      pop\n        /* \"#utility.yul\":4068:4288   */\n      swap2\n      swap1\n      pop\n      jump\t// out\n        /* \"#utility.yul\":4294:4660   */\n    tag_211:\n        /* \"#utility.yul\":4436:4439   */\n      0x00\n        /* \"#utility.yul\":4457:4524   */\n      tag_213\n        /* \"#utility.yul\":4521:4523   */\n      0x24\n        /* \"#utility.yul\":4516:4519   */\n      dup4\n        /* \"#utility.yul\":4457:4524   */\n      tag_181\n      jump\t// in\n    tag_213:\n        /* \"#utility.yul\":4450:4524   */\n      swap2\n      pop\n        /* \"#utility.yul\":4533:4626   */\n      tag_214\n        /* \"#utility.yul\":4622:4625   */\n      dup3\n        /* \"#utility.yul\":4533:4626   */\n      tag_215\n      jump\t// in\n    tag_214:\n        /* \"#utility.yul\":4651:4653   */\n      0x40\n        /* \"#utility.yul\":4646:4649   */\n      dup3\n        /* \"#utility.yul\":4642:4654   */\n      add\n        /* \"#utility.yul\":4635:4654   */\n      swap1\n      pop\n        /* \"#utility.yul\":4440:4660   */\n      swap2\n      swap1\n      pop\n      jump\t// out\n        /* \"#utility.yul\":4666:5032   */\n    tag_216:\n        /* \"#utility.yul\":4808:4811   */\n      0x00\n        /* \"#utility.yul\":4829:4896   */\n      tag_218\n        /* \"#utility.yul\":4893:4895   */\n      0x25\n        /* \"#utility.yul\":4888:4891   */\n      dup4\n        /* \"#utility.yul\":4829:4896   */\n      tag_181\n      jump\t// in\n    tag_218:\n        /* \"#utility.yul\":4822:4896   */\n      swap2\n      pop\n        /* \"#utility.yul\":4905:4998   */\n      tag_219\n        /* \"#utility.yul\":4994:4997   */\n      dup3\n        /* \"#utility.yul\":4905:4998   */\n      tag_220\n      jump\t// in\n    tag_219:\n        /* \"#utility.yul\":5023:5025   */\n      0x40\n        /* \"#utility.yul\":5018:5021   */\n      dup3\n        /* \"#utility.yul\":5014:5026   */\n      add\n        /* \"#utility.yul\":5007:5026   */\n      swap1\n      pop\n        /* \"#utility.yul\":4812:5032   */\n      swap2\n      swap1\n      pop\n      jump\t// out\n        /* \"#utility.yul\":5038:5404   */\n    tag_221:\n        /* \"#utility.yul\":5180:5183   */\n      0x00\n        /* \"#utility.yul\":5201:5268   */\n      tag_223\n        /* \"#utility.yul\":5265:5267   */\n      0x1f\n        /* \"#utility.yul\":5260:5263   */\n      dup4\n        /* \"#utility.yul\":5201:5268   */\n      tag_181\n      jump\t// in\n    tag_223:\n        /* \"#utility.yul\":5194:5268   */\n      swap2\n      pop\n        /* \"#utility.yul\":5277:5370   */\n      tag_224\n        /* \"#utility.yul\":5366:5369   */\n      dup3\n        /* \"#utility.yul\":5277:5370   */\n      tag_225\n      jump\t// in\n    tag_224:\n        /* \"#utility.yul\":5395:5397   */\n      0x20\n        /* \"#utility.yul\":5390:5393   */\n      dup3\n        /* \"#utility.yul\":5386:5398   */\n      add\n        /* \"#utility.yul\":5379:5398   */\n      swap1\n      pop\n        /* \"#utility.yul\":5184:5404   */\n      swap2\n      swap1\n      pop\n      jump\t// out\n        /* \"#utility.yul\":5410:5528   */\n    tag_226:\n        /* \"#utility.yul\":5497:5521   */\n      tag_228\n        /* \"#utility.yul\":5515:5520   */\n      dup2\n        /* \"#utility.yul\":5497:5521   */\n      tag_229\n      jump\t// in\n    tag_228:\n        /* \"#utility.yul\":5492:5495   */\n      dup3\n        /* \"#utility.yul\":5485:5522   */\n      mstore\n        /* \"#utility.yul\":5475:5528   */\n      pop\n      pop\n      jump\t// out\n        /* \"#utility.yul\":5534:5646   */\n    tag_230:\n        /* \"#utility.yul\":5617:5639   */\n      tag_232\n        /* \"#utility.yul\":5633:5638   */\n      dup2\n        /* \"#utility.yul\":5617:5639   */\n      tag_233\n      jump\t// in\n    tag_232:\n        /* \"#utility.yul\":5612:5615   */\n      dup3\n        /* \"#utility.yul\":5605:5640   */\n      mstore\n        /* \"#utility.yul\":5595:5646   */\n      pop\n      pop\n      jump\t// out\n        /* \"#utility.yul\":5652:5862   */\n    tag_25:\n        /* \"#utility.yul\":5739:5743   */\n      0x00\n        /* \"#utility.yul\":5777:5779   */\n      0x20\n        /* \"#utility.yul\":5766:5775   */\n      dup3\n        /* \"#utility.yul\":5762:5780   */\n      add\n        /* \"#utility.yul\":5754:5780   */\n      swap1\n      pop\n        /* \"#utility.yul\":5790:5855   */\n      tag_235\n        /* \"#utility.yul\":5852:5853   */\n      0x00\n        /* \"#utility.yul\":5841:5850   */\n      dup4\n        /* \"#utility.yul\":5837:5854   */\n      add\n        /* \"#utility.yul\":5828:5834   */\n      dup5\n        /* \"#utility.yul\":5790:5855   */\n      tag_172\n      jump\t// in\n    tag_235:\n        /* \"#utility.yul\":5744:5862   */\n      swap3\n      swap2\n      pop\n      pop\n      jump\t// out\n        /* \"#utility.yul\":5868:6181   */\n    tag_19:\n        /* \"#utility.yul\":5981:5985   */\n      0x00\n        /* \"#utility.yul\":6019:6021   */\n      0x20\n        /* \"#utility.yul\":6008:6017   */\n      dup3\n        /* \"#utility.yul\":6004:6022   */\n      add\n        /* \"#utility.yul\":5996:6022   */\n      swap1\n      pop\n        /* \"#utility.yul\":6068:6077   */\n      dup2\n        /* \"#utility.yul\":6062:6066   */\n      dup2\n        /* \"#utility.yul\":6058:6078   */\n      sub\n        /* \"#utility.yul\":6054:6055   */\n      0x00\n        /* \"#utility.yul\":6043:6052   */\n      dup4\n        /* \"#utility.yul\":6039:6056   */\n      add\n        /* \"#utility.yul\":6032:6079   */\n      mstore\n        /* \"#utility.yul\":6096:6174   */\n      tag_237\n        /* \"#utility.yul\":6169:6173   */\n      dup2\n        /* \"#utility.yul\":6160:6166   */\n      dup5\n        /* \"#utility.yul\":6096:6174   */\n      tag_176\n      jump\t// in\n    tag_237:\n        /* \"#utility.yul\":6088:6174   */\n      swap1\n      pop\n        /* \"#utility.yul\":5986:6181   */\n      swap3\n      swap2\n      pop\n      pop\n      jump\t// out\n        /* \"#utility.yul\":6187:6606   */\n    tag_126:\n        /* \"#utility.yul\":6353:6357   */\n      0x00\n        /* \"#utility.yul\":6391:6393   */\n      0x20\n        /* \"#utility.yul\":6380:6389   */\n      dup3\n        /* \"#utility.yul\":6376:6394   */\n      add\n        /* \"#utility.yul\":6368:6394   */\n      swap1\n      pop\n        /* \"#utility.yul\":6440:6449   */\n      dup2\n        /* \"#utility.yul\":6434:6438   */\n      dup2\n        /* \"#utility.yul\":6430:6450   */\n      sub\n        /* \"#utility.yul\":6426:6427   */\n      0x00\n        /* \"#utility.yul\":6415:6424   */\n      dup4\n        /* \"#utility.yul\":6411:6428   */\n      add\n        /* \"#utility.yul\":6404:6451   */\n      mstore\n        /* \"#utility.yul\":6468:6599   */\n      tag_239\n        /* \"#utility.yul\":6594:6598   */\n      dup2\n        /* \"#utility.yul\":6468:6599   */\n      tag_186\n      jump\t// in\n    tag_239:\n        /* \"#utility.yul\":6460:6599   */\n      swap1\n      pop\n        /* \"#utility.yul\":6358:6606   */\n      swap2\n      swap1\n      pop\n      jump\t// out\n        /* \"#utility.yul\":6612:7031   */\n    tag_111:\n        /* \"#utility.yul\":6778:6782   */\n      0x00\n        /* \"#utility.yul\":6816:6818   */\n      0x20\n        /* \"#utility.yul\":6805:6814   */\n      dup3\n        /* \"#utility.yul\":6801:6819   */\n      add\n        /* \"#utility.yul\":6793:6819   */\n      swap1\n      pop\n        /* \"#utility.yul\":6865:6874   */\n      dup2\n        /* \"#utility.yul\":6859:6863   */\n      dup2\n        /* \"#utility.yul\":6855:6875   */\n      sub\n        /* \"#utility.yul\":6851:6852   */\n      0x00\n        /* \"#utility.yul\":6840:6849   */\n      dup4\n        /* \"#utility.yul\":6836:6853   */\n      add\n        /* \"#utility.yul\":6829:6876   */\n      mstore\n        /* \"#utility.yul\":6893:7024   */\n      tag_241\n        /* \"#utility.yul\":7019:7023   */\n      dup2\n        /* \"#utility.yul\":6893:7024   */\n      tag_191\n      jump\t// in\n    tag_241:\n        /* \"#utility.yul\":6885:7024   */\n      swap1\n      pop\n        /* \"#utility.yul\":6783:7031   */\n      swap2\n      swap1\n      pop\n      jump\t// out\n        /* \"#utility.yul\":7037:7456   */\n    tag_118:\n        /* \"#utility.yul\":7203:7207   */\n      0x00\n        /* \"#utility.yul\":7241:7243   */\n      0x20\n        /* \"#utility.yul\":7230:7239   */\n      dup3\n        /* \"#utility.yul\":7226:7244   */\n      add\n        /* \"#utility.yul\":7218:7244   */\n      swap1\n      pop\n        /* \"#utility.yul\":7290:7299   */\n      dup2\n        /* \"#utility.yul\":7284:7288   */\n      dup2\n        /* \"#utility.yul\":7280:7300   */\n      sub\n        /* \"#utility.yul\":7276:7277   */\n      0x00\n        /* \"#utility.yul\":7265:7274   */\n      dup4\n        /* \"#utility.yul\":7261:7278   */\n      add\n        /* \"#utility.yul\":7254:7301   */\n      mstore\n        /* \"#utility.yul\":7318:7449   */\n      tag_243\n        /* \"#utility.yul\":7444:7448   */\n      dup2\n        /* \"#utility.yul\":7318:7449   */\n      tag_196\n      jump\t// in\n    tag_243:\n        /* \"#utility.yul\":7310:7449   */\n      swap1\n      pop\n        /* \"#utility.yul\":7208:7456   */\n      swap2\n      swap1\n      pop\n      jump\t// out\n        /* \"#utility.yul\":7462:7881   */\n    tag_131:\n        /* \"#utility.yul\":7628:7632   */\n      0x00\n        /* \"#utility.yul\":7666:7668   */\n      0x20\n        /* \"#utility.yul\":7655:7664   */\n      dup3\n        /* \"#utility.yul\":7651:7669   */\n      add\n        /* \"#utility.yul\":7643:7669   */\n      swap1\n      pop\n        /* \"#utility.yul\":7715:7724   */\n      dup2\n        /* \"#utility.yul\":7709:7713   */\n      dup2\n        /* \"#utility.yul\":7705:7725   */\n      sub\n        /* \"#utility.yul\":7701:7702   */\n      0x00\n        /* \"#utility.yul\":7690:7699   */\n      dup4\n        /* \"#utility.yul\":7686:7703   */\n      add\n        /* \"#utility.yul\":7679:7726   */\n      mstore\n        /* \"#utility.yul\":7743:7874   */\n      tag_245\n        /* \"#utility.yul\":7869:7873   */\n      dup2\n        /* \"#utility.yul\":7743:7874   */\n      tag_201\n      jump\t// in\n    tag_245:\n        /* \"#utility.yul\":7735:7874   */\n      swap1\n      pop\n        /* \"#utility.yul\":7633:7881   */\n      swap2\n      swap1\n      pop\n      jump\t// out\n        /* \"#utility.yul\":7887:8306   */\n    tag_123:\n        /* \"#utility.yul\":8053:8057   */\n      0x00\n        /* \"#utility.yul\":8091:8093   */\n      0x20\n        /* \"#utility.yul\":8080:8089   */\n      dup3\n        /* \"#utility.yul\":8076:8094   */\n      add\n        /* \"#utility.yul\":8068:8094   */\n      swap1\n      pop\n        /* \"#utility.yul\":8140:8149   */\n      dup2\n        /* \"#utility.yul\":8134:8138   */\n      dup2\n        /* \"#utility.yul\":8130:8150   */\n      sub\n        /* \"#utility.yul\":8126:8127   */\n      0x00\n        /* \"#utility.yul\":8115:8124   */\n      dup4\n        /* \"#utility.yul\":8111:8128   */\n      add\n        /* \"#utility.yul\":8104:8151   */\n      mstore\n        /* \"#utility.yul\":8168:8299   */\n      tag_247\n        /* \"#utility.yul\":8294:8298   */\n      dup2\n        /* \"#utility.yul\":8168:8299   */\n      tag_206\n      jump\t// in\n    tag_247:\n        /* \"#utility.yul\":8160:8299   */\n      swap1\n      pop\n        /* \"#utility.yul\":8058:8306   */\n      swap2\n      swap1\n      pop\n      jump\t// out\n        /* \"#utility.yul\":8312:8731   */\n    tag_108:\n        /* \"#utility.yul\":8478:8482   */\n      0x00\n        /* \"#utility.yul\":8516:8518   */\n      0x20\n        /* \"#utility.yul\":8505:8514   */\n      dup3\n        /* \"#utility.yul\":8501:8519   */\n      add\n        /* \"#utility.yul\":8493:8519   */\n      swap1\n      pop\n        /* \"#utility.yul\":8565:8574   */\n      dup2\n        /* \"#utility.yul\":8559:8563   */\n      dup2\n        /* \"#utility.yul\":8555:8575   */\n      sub\n        /* \"#utility.yul\":8551:8552   */\n      0x00\n        /* \"#utility.yul\":8540:8549   */\n      dup4\n        /* \"#utility.yul\":8536:8553   */\n      add\n        /* \"#utility.yul\":8529:8576   */\n      mstore\n        /* \"#utility.yul\":8593:8724   */\n      tag_249\n        /* \"#utility.yul\":8719:8723   */\n      dup2\n        /* \"#utility.yul\":8593:8724   */\n      tag_211\n      jump\t// in\n    tag_249:\n        /* \"#utility.yul\":8585:8724   */\n      swap1\n      pop\n        /* \"#utility.yul\":8483:8731   */\n      swap2\n      swap1\n      pop\n      jump\t// out\n        /* \"#utility.yul\":8737:9156   */\n    tag_100:\n        /* \"#utility.yul\":8903:8907   */\n      0x00\n        /* \"#utility.yul\":8941:8943   */\n      0x20\n        /* \"#utility.yul\":8930:8939   */\n      dup3\n        /* \"#utility.yul\":8926:8944   */\n      add\n        /* \"#utility.yul\":8918:8944   */\n      swap1\n      pop\n        /* \"#utility.yul\":8990:8999   */\n      dup2\n        /* \"#utility.yul\":8984:8988   */\n      dup2\n        /* \"#utility.yul\":8980:9000   */\n      sub\n        /* \"#utility.yul\":8976:8977   */\n      0x00\n        /* \"#utility.yul\":8965:8974   */\n      dup4\n        /* \"#utility.yul\":8961:8978   */\n      add\n        /* \"#utility.yul\":8954:9001   */\n      mstore\n        /* \"#utility.yul\":9018:9149   */\n      tag_251\n        /* \"#utility.yul\":9144:9148   */\n      dup2\n        /* \"#utility.yul\":9018:9149   */\n      tag_216\n      jump\t// in\n    tag_251:\n        /* \"#utility.yul\":9010:9149   */\n      swap1\n      pop\n        /* \"#utility.yul\":8908:9156   */\n      swap2\n      swap1\n      pop\n      jump\t// out\n        /* \"#utility.yul\":9162:9581   */\n    tag_139:\n        /* \"#utility.yul\":9328:9332   */\n      0x00\n        /* \"#utility.yul\":9366:9368   */\n      0x20\n        /* \"#utility.yul\":9355:9364   */\n      dup3\n        /* \"#utility.yul\":9351:9369   */\n      add\n        /* \"#utility.yul\":9343:9369   */\n      swap1\n      pop\n        /* \"#utility.yul\":9415:9424   */\n      dup2\n        /* \"#utility.yul\":9409:9413   */\n      dup2\n        /* \"#utility.yul\":9405:9425   */\n      sub\n        /* \"#utility.yul\":9401:9402   */\n      0x00\n        /* \"#utility.yul\":9390:9399   */\n      dup4\n        /* \"#utility.yul\":9386:9403   */\n      add\n        /* \"#utility.yul\":9379:9426   */\n      mstore\n        /* \"#utility.yul\":9443:9574   */\n      tag_253\n        /* \"#utility.yul\":9569:9573   */\n      dup2\n        /* \"#utility.yul\":9443:9574   */\n      tag_221\n      jump\t// in\n    tag_253:\n        /* \"#utility.yul\":9435:9574   */\n      swap1\n      pop\n        /* \"#utility.yul\":9333:9581   */\n      swap2\n      swap1\n      pop\n      jump\t// out\n        /* \"#utility.yul\":9587:9809   */\n    tag_29:\n        /* \"#utility.yul\":9680:9684   */\n      0x00\n        /* \"#utility.yul\":9718:9720   */\n      0x20\n        /* \"#utility.yul\":9707:9716   */\n      dup3\n        /* \"#utility.yul\":9703:9721   */\n      add\n        /* \"#utility.yul\":9695:9721   */\n      swap1\n      pop\n        /* \"#utility.yul\":9731:9802   */\n      tag_255\n        /* \"#utility.yul\":9799:9800   */\n      0x00\n        /* \"#utility.yul\":9788:9797   */\n      dup4\n        /* \"#utility.yul\":9784:9801   */\n      add\n        /* \"#utility.yul\":9775:9781   */\n      dup5\n        /* \"#utility.yul\":9731:9802   */\n      tag_226\n      jump\t// in\n    tag_255:\n        /* \"#utility.yul\":9685:9809   */\n      swap3\n      swap2\n      pop\n      pop\n      jump\t// out\n        /* \"#utility.yul\":9815:10029   */\n    tag_38:\n        /* \"#utility.yul\":9904:9908   */\n      0x00\n        /* \"#utility.yul\":9942:9944   */\n      0x20\n        /* \"#utility.yul\":9931:9940   */\n      dup3\n        /* \"#utility.yul\":9927:9945   */\n      add\n        /* \"#utility.yul\":9919:9945   */\n      swap1\n      pop\n        /* \"#utility.yul\":9955:10022   */\n      tag_257\n        /* \"#utility.yul\":10019:10020   */\n      0x00\n        /* \"#utility.yul\":10008:10017   */\n      dup4\n        /* \"#utility.yul\":10004:10021   */\n      add\n        /* \"#utility.yul\":9995:10001   */\n      dup5\n        /* \"#utility.yul\":9955:10022   */\n      tag_230\n      jump\t// in\n    tag_257:\n        /* \"#utility.yul\":9909:10029   */\n      swap3\n      swap2\n      pop\n      pop\n      jump\t// out\n        /* \"#utility.yul\":10035:10134   */\n    tag_179:\n        /* \"#utility.yul\":10087:10093   */\n      0x00\n        /* \"#utility.yul\":10121:10126   */\n      dup2\n        /* \"#utility.yul\":10115:10127   */\n      mload\n        /* \"#utility.yul\":10105:10127   */\n      swap1\n      pop\n        /* \"#utility.yul\":10094:10134   */\n      swap2\n      swap1\n      pop\n      jump\t// out\n        /* \"#utility.yul\":10140:10309   */\n    tag_181:\n        /* \"#utility.yul\":10224:10235   */\n      0x00\n        /* \"#utility.yul\":10258:10264   */\n      dup3\n        /* \"#utility.yul\":10253:10256   */\n      dup3\n        /* \"#utility.yul\":10246:10265   */\n      mstore\n        /* \"#utility.yul\":10298:10302   */\n      0x20\n        /* \"#utility.yul\":10293:10296   */\n      dup3\n        /* \"#utility.yul\":10289:10303   */\n      add\n        /* \"#utility.yul\":10274:10303   */\n      swap1\n      pop\n        /* \"#utility.yul\":10236:10309   */\n      swap3\n      swap2\n      pop\n      pop\n      jump\t// out\n        /* \"#utility.yul\":10315:10620   */\n    tag_86:\n        /* \"#utility.yul\":10355:10358   */\n      0x00\n        /* \"#utility.yul\":10374:10394   */\n      tag_261\n        /* \"#utility.yul\":10392:10393   */\n      dup3\n        /* \"#utility.yul\":10374:10394   */\n      tag_229\n      jump\t// in\n    tag_261:\n        /* \"#utility.yul\":10369:10394   */\n      swap2\n      pop\n        /* \"#utility.yul\":10408:10428   */\n      tag_262\n        /* \"#utility.yul\":10426:10427   */\n      dup4\n        /* \"#utility.yul\":10408:10428   */\n      tag_229\n      jump\t// in\n    tag_262:\n        /* \"#utility.yul\":10403:10428   */\n      swap3\n      pop\n        /* \"#utility.yul\":10562:10563   */\n      dup3\n        /* \"#utility.yul\":10494:10560   */\n      0xffffffffffffffffffffffffffffffffffffffffffffffffffffffffffffffff\n        /* \"#utility.yul\":10490:10564   */\n      sub\n        /* \"#utility.yul\":10487:10488   */\n      dup3\n        /* \"#utility.yul\":10484:10565   */\n      gt\n        /* \"#utility.yul\":10481:10483   */\n      iszero\n      tag_263\n      jumpi\n        /* \"#utility.yul\":10568:10586   */\n      tag_264\n      tag_265\n      jump\t// in\n    tag_264:\n        /* \"#utility.yul\":10481:10483   */\n    tag_263:\n        /* \"#utility.yul\":10612:10613   */\n      dup3\n        /* \"#utility.yul\":10609:10610   */\n      dup3\n        /* \"#utility.yul\":10605:10614   */\n      add\n        /* \"#utility.yul\":10598:10614   */\n      swap1\n      pop\n        /* \"#utility.yul\":10359:10620   */\n      swap3\n      swap2\n      pop\n      pop\n      jump\t// out\n        /* \"#utility.yul\":10626:10722   */\n    tag_266:\n        /* \"#utility.yul\":10663:10670   */\n      0x00\n        /* \"#utility.yul\":10692:10716   */\n      tag_268\n        /* \"#utility.yul\":10710:10715   */\n      dup3\n        /* \"#utility.yul\":10692:10716   */\n      tag_269\n      jump\t// in\n    tag_268:\n        /* \"#utility.yul\":10681:10716   */\n      swap1\n      pop\n        /* \"#utility.yul\":10671:10722   */\n      swap2\n      swap1\n      pop\n      jump\t// out\n        /* \"#utility.yul\":10728:10818   */\n    tag_175:\n        /* \"#utility.yul\":10762:10769   */\n      0x00\n        /* \"#utility.yul\":10805:10810   */\n      dup2\n        /* \"#utility.yul\":10798:10811   */\n      iszero\n        /* \"#utility.yul\":10791:10812   */\n      iszero\n        /* \"#utility.yul\":10780:10812   */\n      swap1\n      pop\n        /* \"#utility.yul\":10770:10818   */\n      swap2\n      swap1\n      pop\n      jump\t// out\n        /* \"#utility.yul\":10824:10950   */\n    tag_269:\n        /* \"#utility.yul\":10861:10868   */\n      0x00\n        /* \"#utility.yul\":10901:10943   */\n      0xffffffffffffffffffffffffffffffffffffffff\n        /* \"#utility.yul\":10894:10899   */\n      dup3\n        /* \"#utility.yul\":10890:10944   */\n      and\n        /* \"#utility.yul\":10879:10944   */\n      swap1\n      pop\n        /* \"#utility.yul\":10869:10950   */\n      swap2\n      swap1\n      pop\n      jump\t// out\n        /* \"#utility.yul\":10956:11033   */\n    tag_229:\n        /* \"#utility.yul\":10993:11000   */\n      0x00\n        /* \"#utility.yul\":11022:11027   */\n      dup2\n        /* \"#utility.yul\":11011:11027   */\n      swap1\n      pop\n        /* \"#utility.yul\":11001:11033   */\n      swap2\n      swap1\n      pop\n      jump\t// out\n        /* \"#utility.yul\":11039:11125   */\n    tag_233:\n        /* \"#utility.yul\":11074:11081   */\n      0x00\n        /* \"#utility.yul\":11114:11118   */\n      0xff\n        /* \"#utility.yul\":11107:11112   */\n      dup3\n        /* \"#utility.yul\":11103:11119   */\n      and\n        /* \"#utility.yul\":11092:11119   */\n      swap1\n      pop\n        /* \"#utility.yul\":11082:11125   */\n      swap2\n      swap1\n      pop\n      jump\t// out\n        /* \"#utility.yul\":11131:11438   */\n    tag_183:\n        /* \"#utility.yul\":11199:11200   */\n      0x00\n        /* \"#utility.yul\":11209:11322   */\n    tag_275:\n        /* \"#utility.yul\":11223:11229   */\n      dup4\n        /* \"#utility.yul\":11220:11221   */\n      dup2\n        /* \"#utility.yul\":11217:11230   */\n      lt\n        /* \"#utility.yul\":11209:11322   */\n      iszero\n      tag_277\n      jumpi\n        /* \"#utility.yul\":11308:11309   */\n      dup1\n        /* \"#utility.yul\":11303:11306   */\n      dup3\n        /* \"#utility.yul\":11299:11310   */\n      add\n        /* \"#utility.yul\":11293:11311   */\n      mload\n        /* \"#utility.yul\":11289:11290   */\n      dup2\n        /* \"#utility.yul\":11284:11287   */\n      dup5\n        /* \"#utility.yul\":11280:11291   */\n      add\n        /* \"#utility.yul\":11273:11312   */\n      mstore\n        /* \"#utility.yul\":11245:11247   */\n      0x20\n        /* \"#utility.yul\":11242:11243   */\n      dup2\n        /* \"#utility.yul\":11238:11248   */\n      add\n        /* \"#utility.yul\":11233:11248   */\n      swap1\n      pop\n        /* \"#utility.yul\":11209:11322   */\n      jump(tag_275)\n    tag_277:\n        /* \"#utility.yul\":11340:11346   */\n      dup4\n        /* \"#utility.yul\":11337:11338   */\n      dup2\n        /* \"#utility.yul\":11334:11347   */\n      gt\n        /* \"#utility.yul\":11331:11333   */\n      iszero\n      tag_278\n      jumpi\n        /* \"#utility.yul\":11420:11421   */\n      0x00\n        /* \"#utility.yul\":11411:11417   */\n      dup5\n        /* \"#utility.yul\":11406:11409   */\n      dup5\n        /* \"#utility.yul\":11402:11418   */\n      add\n        /* \"#utility.yul\":11395:11422   */\n      mstore\n        /* \"#utility.yul\":11331:11333   */\n    tag_278:\n        /* \"#utility.yul\":11180:11438   */\n      pop\n      pop\n      pop\n      pop\n      jump\t// out\n        /* \"#utility.yul\":11444:11764   */\n    tag_68:\n        /* \"#utility.yul\":11488:11494   */\n      0x00\n        /* \"#utility.yul\":11525:11526   */\n      0x02\n        /* \"#utility.yul\":11519:11523   */\n      dup3\n        /* \"#utility.yul\":11515:11527   */\n      div\n        /* \"#utility.yul\":11505:11527   */\n      swap1\n      pop\n        /* \"#utility.yul\":11572:11573   */\n      0x01\n        /* \"#utility.yul\":11566:11570   */\n      dup3\n        /* \"#utility.yul\":11562:11574   */\n      and\n        /* \"#utility.yul\":11593:11611   */\n      dup1\n        /* \"#utility.yul\":11583:11585   */\n      tag_280\n      jumpi\n        /* \"#utility.yul\":11649:11653   */\n      0x7f\n        /* \"#utility.yul\":11641:11647   */\n      dup3\n        /* \"#utility.yul\":11637:11654   */\n      and\n        /* \"#utility.yul\":11627:11654   */\n      swap2\n      pop\n        /* \"#utility.yul\":11583:11585   */\n    tag_280:\n        /* \"#utility.yul\":11711:11713   */\n      0x20\n        /* \"#utility.yul\":11703:11709   */\n      dup3\n        /* \"#utility.yul\":11700:11714   */\n      lt\n        /* \"#utility.yul\":11680:11698   */\n      dup2\n        /* \"#utility.yul\":11677:11715   */\n      eq\n        /* \"#utility.yul\":11674:11676   */\n      iszero\n      tag_281\n      jumpi\n        /* \"#utility.yul\":11730:11748   */\n      tag_282\n      tag_283\n      jump\t// in\n    tag_282:\n        /* \"#utility.yul\":11674:11676   */\n    tag_281:\n        /* \"#utility.yul\":11495:11764   */\n      pop\n      swap2\n      swap1\n      pop\n      jump\t// out\n        /* \"#utility.yul\":11770:11950   */\n    tag_265:\n        /* \"#utility.yul\":11818:11895   */\n      0x4e487b7100000000000000000000000000000000000000000000000000000000\n        /* \"#utility.yul\":11815:11816   */\n      0x00\n        /* \"#utility.yul\":11808:11896   */\n      mstore\n        /* \"#utility.yul\":11915:11919   */\n      0x11\n        /* \"#utility.yul\":11912:11913   */\n      0x04\n        /* \"#utility.yul\":11905:11920   */\n      mstore\n        /* \"#utility.yul\":11939:11943   */\n      0x24\n        /* \"#utility.yul\":11936:11937   */\n      0x00\n        /* \"#utility.yul\":11929:11944   */\n      revert\n        /* \"#utility.yul\":11956:12136   */\n    tag_283:\n        /* \"#utility.yul\":12004:12081   */\n      0x4e487b7100000000000000000000000000000000000000000000000000000000\n        /* \"#utility.yul\":12001:12002   */\n      0x00\n        /* \"#utility.yul\":11994:12082   */\n      mstore\n        /* \"#utility.yul\":12101:12105   */\n      0x22\n        /* \"#utility.yul\":12098:12099   */\n      0x04\n        /* \"#utility.yul\":12091:12106   */\n      mstore\n        /* \"#utility.yul\":12125:12129   */\n      0x24\n        /* \"#utility.yul\":12122:12123   */\n      0x00\n        /* \"#utility.yul\":12115:12130   */\n      revert\n        /* \"#utility.yul\":12142:12244   */\n    tag_185:\n        /* \"#utility.yul\":12183:12189   */\n      0x00\n        /* \"#utility.yul\":12234:12236   */\n      0x1f\n        /* \"#utility.yul\":12230:12237   */\n      not\n        /* \"#utility.yul\":12225:12227   */\n      0x1f\n        /* \"#utility.yul\":12218:12223   */\n      dup4\n        /* \"#utility.yul\":12214:12228   */\n      add\n        /* \"#utility.yul\":12210:12238   */\n      and\n        /* \"#utility.yul\":12200:12238   */\n      swap1\n      pop\n        /* \"#utility.yul\":12190:12244   */\n      swap2\n      swap1\n      pop\n      jump\t// out\n        /* \"#utility.yul\":12250:12472   */\n    tag_190:\n        /* \"#utility.yul\":12390:12424   */\n      0x45524332303a207472616e7366657220746f20746865207a65726f2061646472\n        /* \"#utility.yul\":12386:12387   */\n      0x00\n        /* \"#utility.yul\":12378:12384   */\n      dup3\n        /* \"#utility.yul\":12374:12388   */\n      add\n        /* \"#utility.yul\":12367:12425   */\n      mstore\n        /* \"#utility.yul\":12459:12464   */\n      0x6573730000000000000000000000000000000000000000000000000000000000\n        /* \"#utility.yul\":12454:12456   */\n      0x20\n        /* \"#utility.yul\":12446:12452   */\n      dup3\n        /* \"#utility.yul\":12442:12457   */\n      add\n        /* \"#utility.yul\":12435:12465   */\n      mstore\n        /* \"#utility.yul\":12356:12472   */\n      pop\n      jump\t// out\n        /* \"#utility.yul\":12478:12699   */\n    tag_195:\n        /* \"#utility.yul\":12618:12652   */\n      0x45524332303a20617070726f766520746f20746865207a65726f206164647265\n        /* \"#utility.yul\":12614:12615   */\n      0x00\n        /* \"#utility.yul\":12606:12612   */\n      dup3\n        /* \"#utility.yul\":12602:12616   */\n      add\n        /* \"#utility.yul\":12595:12653   */\n      mstore\n        /* \"#utility.yul\":12687:12691   */\n      0x7373000000000000000000000000000000000000000000000000000000000000\n        /* \"#utility.yul\":12682:12684   */\n      0x20\n        /* \"#utility.yul\":12674:12680   */\n      dup3\n        /* \"#utility.yul\":12670:12685   */\n      add\n        /* \"#utility.yul\":12663:12692   */\n      mstore\n        /* \"#utility.yul\":12584:12699   */\n      pop\n      jump\t// out\n        /* \"#utility.yul\":12705:12884   */\n    tag_200:\n        /* \"#utility.yul\":12845:12876   */\n      0x45524332303a20696e73756666696369656e7420616c6c6f77616e6365000000\n        /* \"#utility.yul\":12841:12842   */\n      0x00\n        /* \"#utility.yul\":12833:12839   */\n      dup3\n        /* \"#utility.yul\":12829:12843   */\n      add\n        /* \"#utility.yul\":12822:12877   */\n      mstore\n        /* \"#utility.yul\":12811:12884   */\n      pop\n      jump\t// out\n        /* \"#utility.yul\":12890:13115   */\n    tag_205:\n        /* \"#utility.yul\":13030:13064   */\n      0x45524332303a207472616e7366657220616d6f756e7420657863656564732062\n        /* \"#utility.yul\":13026:13027   */\n      0x00\n        /* \"#utility.yul\":13018:13024   */\n      dup3\n        /* \"#utility.yul\":13014:13028   */\n      add\n        /* \"#utility.yul\":13007:13065   */\n      mstore\n        /* \"#utility.yul\":13099:13107   */\n      0x616c616e63650000000000000000000000000000000000000000000000000000\n        /* \"#utility.yul\":13094:13096   */\n      0x20\n        /* \"#utility.yul\":13086:13092   */\n      dup3\n        /* \"#utility.yul\":13082:13097   */\n      add\n        /* \"#utility.yul\":13075:13108   */\n      mstore\n        /* \"#utility.yul\":12996:13115   */\n      pop\n      jump\t// out\n        /* \"#utility.yul\":13121:13345   */\n    tag_210:\n        /* \"#utility.yul\":13261:13295   */\n      0x45524332303a207472616e736665722066726f6d20746865207a65726f206164\n        /* \"#utility.yul\":13257:13258   */\n      0x00\n        /* \"#utility.yul\":13249:13255   */\n      dup3\n        /* \"#utility.yul\":13245:13259   */\n      add\n        /* \"#utility.yul\":13238:13296   */\n      mstore\n        /* \"#utility.yul\":13330:13337   */\n      0x6472657373000000000000000000000000000000000000000000000000000000\n        /* \"#utility.yul\":13325:13327   */\n      0x20\n        /* \"#utility.yul\":13317:13323   */\n      dup3\n        /* \"#utility.yul\":13313:13328   */\n      add\n        /* \"#utility.yul\":13306:13338   */\n      mstore\n        /* \"#utility.yul\":13227:13345   */\n      pop\n      jump\t// out\n        /* \"#utility.yul\":13351:13574   */\n    tag_215:\n        /* \"#utility.yul\":13491:13525   */\n      0x45524332303a20617070726f76652066726f6d20746865207a65726f20616464\n        /* \"#utility.yul\":13487:13488   */\n      0x00\n        /* \"#utility.yul\":13479:13485   */\n      dup3\n        /* \"#utility.yul\":13475:13489   */\n      add\n        /* \"#utility.yul\":13468:13526   */\n      mstore\n        /* \"#utility.yul\":13560:13566   */\n      0x7265737300000000000000000000000000000000000000000000000000000000\n        /* \"#utility.yul\":13555:13557   */\n      0x20\n        /* \"#utility.yul\":13547:13553   */\n      dup3\n        /* \"#utility.yul\":13543:13558   */\n      add\n        /* \"#utility.yul\":13536:13567   */\n      mstore\n        /* \"#utility.yul\":13457:13574   */\n      pop\n      jump\t// out\n        /* \"#utility.yul\":13580:13804   */\n    tag_220:\n        /* \"#utility.yul\":13720:13754   */\n      0x45524332303a2064656372656173656420616c6c6f77616e63652062656c6f77\n        /* \"#utility.yul\":13716:13717   */\n      0x00\n        /* \"#utility.yul\":13708:13714   */\n      dup3\n        /* \"#utility.yul\":13704:13718   */\n      add\n        /* \"#utility.yul\":13697:13755   */\n      mstore\n        /* \"#utility.yul\":13789:13796   */\n      0x207a65726f000000000000000000000000000000000000000000000000000000\n        /* \"#utility.yul\":13784:13786   */\n      0x20\n        /* \"#utility.yul\":13776:13782   */\n      dup3\n        /* \"#utility.yul\":13772:13787   */\n      add\n        /* \"#utility.yul\":13765:13797   */\n      mstore\n        /* \"#utility.yul\":13686:13804   */\n      pop\n      jump\t// out\n        /* \"#utility.yul\":13810:13991   */\n    tag_225:\n        /* \"#utility.yul\":13950:13983   */\n      0x45524332303a206d696e7420746f20746865207a65726f206164647265737300\n        /* \"#utility.yul\":13946:13947   */\n      0x00\n        /* \"#utility.yul\":13938:13944   */\n      dup3\n        /* \"#utility.yul\":13934:13948   */\n      add\n        /* \"#utility.yul\":13927:13984   */\n      mstore\n        /* \"#utility.yul\":13916:13991   */\n      pop\n      jump\t// out\n        /* \"#utility.yul\":13997:14119   */\n    tag_151:\n        /* \"#utility.yul\":14070:14094   */\n      tag_296\n        /* \"#utility.yul\":14088:14093   */\n      dup2\n        /* \"#utility.yul\":14070:14094   */\n      tag_266\n      jump\t// in\n    tag_296:\n        /* \"#utility.yul\":14063:14068   */\n      dup2\n        /* \"#utility.yul\":14060:14095   */\n      eq\n        /* \"#utility.yul\":14050:14052   */\n      tag_297\n      jumpi\n        /* \"#utility.yul\":14109:14110   */\n      0x00\n        /* \"#utility.yul\":14106:14107   */\n      dup1\n        /* \"#utility.yul\":14099:14111   */\n      revert\n        /* \"#utility.yul\":14050:14052   */\n    tag_297:\n        /* \"#utility.yul\":14040:14119   */\n      pop\n      jump\t// out\n        /* \"#utility.yul\":14125:14247   */\n    tag_155:\n        /* \"#utility.yul\":14198:14222   */\n      tag_299\n        /* \"#utility.yul\":14216:14221   */\n      dup2\n        /* \"#utility.yul\":14198:14222   */\n      tag_229\n      jump\t// in\n    tag_299:\n        /* \"#utility.yul\":14191:14196   */\n      dup2\n        /* \"#utility.yul\":14188:14223   */\n      eq\n        /* \"#utility.yul\":14178:14180   */\n      tag_300\n      jumpi\n        /* \"#utility.yul\":14237:14238   */\n      0x00\n        /* \"#utility.yul\":14234:14235   */\n      dup1\n        /* \"#utility.yul\":14227:14239   */\n      revert\n        /* \"#utility.yul\":14178:14180   */\n    tag_300:\n        /* \"#utility.yul\":14168:14247   */\n      pop\n      jump\t// out\n\n    auxdata: 0xa2646970667358221220ce368f09a8a7a719d8c91bcc495911e58d6710c0475729ccd57dec90aadb84da64736f6c63430008040033\n}\n",
				"bytecode": {
					"linkReferences": {},
					"object": "60806040523480156200001157600080fd5b506040518060400160405280600481526020017f4a6f616e000000000000000000000000000000000000000000000000000000008152506040518060400160405280600281526020017f4a41000000000000000000000000000000000000000000000000000000000000815250816003908051906020019062000096929190620000b8565b508060049080519060200190620000af929190620000b8565b505050620001cd565b828054620000c69062000168565b90600052602060002090601f016020900481019282620000ea576000855562000136565b82601f106200010557805160ff191683800117855562000136565b8280016001018555821562000136579182015b828111156200013557825182559160200191906001019062000118565b5b50905062000145919062000149565b5090565b5b80821115620001645760008160009055506001016200014a565b5090565b600060028204905060018216806200018157607f821691505b602082108114156200019857620001976200019e565b5b50919050565b7f4e487b7100000000000000000000000000000000000000000000000000000000600052602260045260246000fd5b6114fd80620001dd6000396000f3fe608060405234801561001057600080fd5b50600436106100b45760003560e01c806370a082311161007157806370a08231146101a357806395d89b41146101d35780639cbf9e36146101f1578063a457c2d7146101fb578063a9059cbb1461022b578063dd62ed3e1461025b576100b4565b806306fdde03146100b9578063095ea7b3146100d757806318160ddd1461010757806323b872dd14610125578063313ce567146101555780633950935114610173575b600080fd5b6100c161028b565b6040516100ce9190610f7a565b60405180910390f35b6100f160048036038101906100ec9190610da5565b61031d565b6040516100fe9190610f5f565b60405180910390f35b61010f610339565b60405161011c919061109c565b60405180910390f35b61013f600480360381019061013a9190610d56565b610343565b60405161014c9190610f5f565b60405180910390f35b61015d61036b565b60405161016a91906110b7565b60405180910390f35b61018d60048036038101906101889190610da5565b610374565b60405161019a9190610f5f565b60405180910390f35b6101bd60048036038101906101b89190610cf1565b610417565b6040516101ca919061109c565b60405180910390f35b6101db61045f565b6040516101e89190610f7a565b60405180910390f35b6101f96104f1565b005b61021560048036038101906102109190610da5565b6104ff565b6040516102229190610f5f565b60405180910390f35b61024560048036038101906102409190610da5565b6105e2565b6040516102529190610f5f565b60405180910390f35b61027560048036038101906102709190610d1a565b6105fe565b604051610282919061109c565b60405180910390f35b60606003805461029a906111cc565b80601f01602080910402602001604051908101604052809291908181526020018280546102c6906111cc565b80156103135780601f106102e857610100808354040283529160200191610313565b820191906000526020600020905b8154815290600101906020018083116102f657829003601f168201915b5050505050905090565b60008033905061032e818585610685565b600191505092915050565b6000600254905090565b600080339050610354858285610850565b61035f8585856108dc565b60019150509392505050565b60006012905090565b60008033905061040c818585600160008673ffffffffffffffffffffffffffffffffffffffff1673ffffffffffffffffffffffffffffffffffffffff16815260200190815260200160002060008973ffffffffffffffffffffffffffffffffffffffff1673ffffffffffffffffffffffffffffffffffffffff1681526020019081526020016000205461040791906110ee565b610685565b600191505092915050565b60008060008373ffffffffffffffffffffffffffffffffffffffff1673ffffffffffffffffffffffffffffffffffffffff168152602001908152602001600020549050919050565b60606004805461046e906111cc565b80601f016020809104026020016040519081016040528092919081815260200182805461049a906111cc565b80156104e75780601f106104bc576101008083540402835291602001916104e7565b820191906000526020600020905b8154815290600101906020018083116104ca57829003601f168201915b5050505050905090565b6104fd336103e8610b5d565b565b6000803390506000600160008373ffffffffffffffffffffffffffffffffffffffff1673ffffffffffffffffffffffffffffffffffffffff16815260200190815260200160002060008673ffffffffffffffffffffffffffffffffffffffff1673ffffffffffffffffffffffffffffffffffffffff168152602001908152602001600020549050838110156105c9576040517f08c379a00000000000000000000000000000000000000000000000000000000081526004016105c09061105c565b60405180910390fd5b6105d68286868403610685565b60019250505092915050565b6000803390506105f38185856108dc565b600191505092915050565b6000600160008473ffffffffffffffffffffffffffffffffffffffff1673ffffffffffffffffffffffffffffffffffffffff16815260200190815260200160002060008373ffffffffffffffffffffffffffffffffffffffff1673ffffffffffffffffffffffffffffffffffffffff16815260200190815260200160002054905092915050565b600073ffffffffffffffffffffffffffffffffffffffff168373ffffffffffffffffffffffffffffffffffffffff1614156106f5576040517f08c379a00000000000000000000000000000000000000000000000000000000081526004016106ec9061103c565b60405180910390fd5b600073ffffffffffffffffffffffffffffffffffffffff168273ffffffffffffffffffffffffffffffffffffffff161415610765576040517f08c379a000000000000000000000000000000000000000000000000000000000815260040161075c90610fbc565b60405180910390fd5b80600160008573ffffffffffffffffffffffffffffffffffffffff1673ffffffffffffffffffffffffffffffffffffffff16815260200190815260200160002060008473ffffffffffffffffffffffffffffffffffffffff1673ffffffffffffffffffffffffffffffffffffffff168152602001908152602001600020819055508173ffffffffffffffffffffffffffffffffffffffff168373ffffffffffffffffffffffffffffffffffffffff167f8c5be1e5ebec7d5bd14f71427d1e84f3dd0314c0f7b2291e5b200ac8c7c3b92583604051610843919061109c565b60405180910390a3505050565b600061085c84846105fe565b90507fffffffffffffffffffffffffffffffffffffffffffffffffffffffffffffffff81146108d657818110156108c8576040517f08c379a00000000000000000000000000000000000000000000000000000000081526004016108bf90610fdc565b60405180910390fd5b6108d58484848403610685565b5b50505050565b600073ffffffffffffffffffffffffffffffffffffffff168373ffffffffffffffffffffffffffffffffffffffff16141561094c576040517f08c379a00000000000000000000000000000000000000000000000000000000081526004016109439061101c565b60405180910390fd5b600073ffffffffffffffffffffffffffffffffffffffff168273ffffffffffffffffffffffffffffffffffffffff1614156109bc576040517f08c379a00000000000000000000000000000000000000000000000000000000081526004016109b390610f9c565b60405180910390fd5b6109c7838383610cbd565b60008060008573ffffffffffffffffffffffffffffffffffffffff1673ffffffffffffffffffffffffffffffffffffffff16815260200190815260200160002054905081811015610a4d576040517f08c379a0000000000000000000000000000000000000000000000000000000008152600401610a4490610ffc565b60405180910390fd5b8181036000808673ffffffffffffffffffffffffffffffffffffffff1673ffffffffffffffffffffffffffffffffffffffff16815260200190815260200160002081905550816000808573ffffffffffffffffffffffffffffffffffffffff1673ffffffffffffffffffffffffffffffffffffffff1681526020019081526020016000206000828254610ae091906110ee565b925050819055508273ffffffffffffffffffffffffffffffffffffffff168473ffffffffffffffffffffffffffffffffffffffff167fddf252ad1be2c89b69c2b068fc378daa952ba7f163c4a11628f55a4df523b3ef84604051610b44919061109c565b60405180910390a3610b57848484610cc2565b50505050565b600073ffffffffffffffffffffffffffffffffffffffff168273ffffffffffffffffffffffffffffffffffffffff161415610bcd576040517f08c379a0000000000000000000000000000000000000000000000000000000008152600401610bc49061107c565b60405180910390fd5b610bd960008383610cbd565b8060026000828254610beb91906110ee565b92505081905550806000808473ffffffffffffffffffffffffffffffffffffffff1673ffffffffffffffffffffffffffffffffffffffff1681526020019081526020016000206000828254610c4091906110ee565b925050819055508173ffffffffffffffffffffffffffffffffffffffff16600073ffffffffffffffffffffffffffffffffffffffff167fddf252ad1be2c89b69c2b068fc378daa952ba7f163c4a11628f55a4df523b3ef83604051610ca5919061109c565b60405180910390a3610cb960008383610cc2565b5050565b505050565b505050565b600081359050610cd681611499565b92915050565b600081359050610ceb816114b0565b92915050565b600060208284031215610d0357600080fd5b6000610d1184828501610cc7565b91505092915050565b60008060408385031215610d2d57600080fd5b6000610d3b85828601610cc7565b9250506020610d4c85828601610cc7565b9150509250929050565b600080600060608486031215610d6b57600080fd5b6000610d7986828701610cc7565b9350506020610d8a86828701610cc7565b9250506040610d9b86828701610cdc565b9150509250925092565b60008060408385031215610db857600080fd5b6000610dc685828601610cc7565b9250506020610dd785828601610cdc565b9150509250929050565b610dea81611156565b82525050565b6000610dfb826110d2565b610e0581856110dd565b9350610e15818560208601611199565b610e1e8161125c565b840191505092915050565b6000610e366023836110dd565b9150610e418261126d565b604082019050919050565b6000610e596022836110dd565b9150610e64826112bc565b604082019050919050565b6000610e7c601d836110dd565b9150610e878261130b565b602082019050919050565b6000610e9f6026836110dd565b9150610eaa82611334565b604082019050919050565b6000610ec26025836110dd565b9150610ecd82611383565b604082019050919050565b6000610ee56024836110dd565b9150610ef0826113d2565b604082019050919050565b6000610f086025836110dd565b9150610f1382611421565b604082019050919050565b6000610f2b601f836110dd565b9150610f3682611470565b602082019050919050565b610f4a81611182565b82525050565b610f598161118c565b82525050565b6000602082019050610f746000830184610de1565b92915050565b60006020820190508181036000830152610f948184610df0565b905092915050565b60006020820190508181036000830152610fb581610e29565b9050919050565b60006020820190508181036000830152610fd581610e4c565b9050919050565b60006020820190508181036000830152610ff581610e6f565b9050919050565b6000602082019050818103600083015261101581610e92565b9050919050565b6000602082019050818103600083015261103581610eb5565b9050919050565b6000602082019050818103600083015261105581610ed8565b9050919050565b6000602082019050818103600083015261107581610efb565b9050919050565b6000602082019050818103600083015261109581610f1e565b9050919050565b60006020820190506110b16000830184610f41565b92915050565b60006020820190506110cc6000830184610f50565b92915050565b600081519050919050565b600082825260208201905092915050565b60006110f982611182565b915061110483611182565b9250827fffffffffffffffffffffffffffffffffffffffffffffffffffffffffffffffff03821115611139576111386111fe565b5b828201905092915050565b600061114f82611162565b9050919050565b60008115159050919050565b600073ffffffffffffffffffffffffffffffffffffffff82169050919050565b6000819050919050565b600060ff82169050919050565b60005b838110156111b757808201518184015260208101905061119c565b838111156111c6576000848401525b50505050565b600060028204905060018216806111e457607f821691505b602082108114156111f8576111f761122d565b5b50919050565b7f4e487b7100000000000000000000000000000000000000000000000000000000600052601160045260246000fd5b7f4e487b7100000000000000000000000000000000000000000000000000000000600052602260045260246000fd5b6000601f19601f8301169050919050565b7f45524332303a207472616e7366657220746f20746865207a65726f206164647260008201527f6573730000000000000000000000000000000000000000000000000000000000602082015250565b7f45524332303a20617070726f766520746f20746865207a65726f20616464726560008201527f7373000000000000000000000000000000000000000000000000000000000000602082015250565b7f45524332303a20696e73756666696369656e7420616c6c6f77616e6365000000600082015250565b7f45524332303a207472616e7366657220616d6f756e742065786365656473206260008201527f616c616e63650000000000000000000000000000000000000000000000000000602082015250565b7f45524332303a207472616e736665722066726f6d20746865207a65726f20616460008201527f6472657373000000000000000000000000000000000000000000000000000000602082015250565b7f45524332303a20617070726f76652066726f6d20746865207a65726f2061646460008201527f7265737300000000000000000000000000000000000000000000000000000000602082015250565b7f45524332303a2064656372656173656420616c6c6f77616e63652062656c6f7760008201527f207a65726f000000000000000000000000000000000000000000000000000000602082015250565b7f45524332303a206d696e7420746f20746865207a65726f206164647265737300600082015250565b6114a281611144565b81146114ad57600080fd5b50565b6114b981611182565b81146114c457600080fd5b5056fea2646970667358221220ce368f09a8a7a719d8c91bcc495911e58d6710c0475729ccd57dec90aadb84da64736f6c63430008040033",
					"opcodes": "PUSH1 0x80 PUSH1 0x40 MSTORE CALLVALUE DUP1 ISZERO PUSH3 0x11 JUMPI PUSH1 0x0 DUP1 REVERT JUMPDEST POP PUSH1 0x40 MLOAD DUP1 PUSH1 0x40 ADD PUSH1 0x40 MSTORE DUP1 PUSH1 0x4 DUP2 MSTORE PUSH1 0x20 ADD PUSH32 0x4A6F616E00000000000000000000000000000000000000000000000000000000 DUP2 MSTORE POP PUSH1 0x40 MLOAD DUP1 PUSH1 0x40 ADD PUSH1 0x40 MSTORE DUP1 PUSH1 0x2 DUP2 MSTORE PUSH1 0x20 ADD PUSH32 0x4A41000000000000000000000000000000000000000000000000000000000000 DUP2 MSTORE POP DUP2 PUSH1 0x3 SWAP1 DUP1 MLOAD SWAP1 PUSH1 0x20 ADD SWAP1 PUSH3 0x96 SWAP3 SWAP2 SWAP1 PUSH3 0xB8 JUMP JUMPDEST POP DUP1 PUSH1 0x4 SWAP1 DUP1 MLOAD SWAP1 PUSH1 0x20 ADD SWAP1 PUSH3 0xAF SWAP3 SWAP2 SWAP1 PUSH3 0xB8 JUMP JUMPDEST POP POP POP PUSH3 0x1CD JUMP JUMPDEST DUP3 DUP1 SLOAD PUSH3 0xC6 SWAP1 PUSH3 0x168 JUMP JUMPDEST SWAP1 PUSH1 0x0 MSTORE PUSH1 0x20 PUSH1 0x0 KECCAK256 SWAP1 PUSH1 0x1F ADD PUSH1 0x20 SWAP1 DIV DUP2 ADD SWAP3 DUP3 PUSH3 0xEA JUMPI PUSH1 0x0 DUP6 SSTORE PUSH3 0x136 JUMP JUMPDEST DUP3 PUSH1 0x1F LT PUSH3 0x105 JUMPI DUP1 MLOAD PUSH1 0xFF NOT AND DUP4 DUP1 ADD OR DUP6 SSTORE PUSH3 0x136 JUMP JUMPDEST DUP3 DUP1 ADD PUSH1 0x1 ADD DUP6 SSTORE DUP3 ISZERO PUSH3 0x136 JUMPI SWAP2 DUP3 ADD JUMPDEST DUP3 DUP2 GT ISZERO PUSH3 0x135 JUMPI DUP3 MLOAD DUP3 SSTORE SWAP2 PUSH1 0x20 ADD SWAP2 SWAP1 PUSH1 0x1 ADD SWAP1 PUSH3 0x118 JUMP JUMPDEST JUMPDEST POP SWAP1 POP PUSH3 0x145 SWAP2 SWAP1 PUSH3 0x149 JUMP JUMPDEST POP SWAP1 JUMP JUMPDEST JUMPDEST DUP1 DUP3 GT ISZERO PUSH3 0x164 JUMPI PUSH1 0x0 DUP2 PUSH1 0x0 SWAP1 SSTORE POP PUSH1 0x1 ADD PUSH3 0x14A JUMP JUMPDEST POP SWAP1 JUMP JUMPDEST PUSH1 0x0 PUSH1 0x2 DUP3 DIV SWAP1 POP PUSH1 0x1 DUP3 AND DUP1 PUSH3 0x181 JUMPI PUSH1 0x7F DUP3 AND SWAP2 POP JUMPDEST PUSH1 0x20 DUP3 LT DUP2 EQ ISZERO PUSH3 0x198 JUMPI PUSH3 0x197 PUSH3 0x19E JUMP JUMPDEST JUMPDEST POP SWAP2 SWAP1 POP JUMP JUMPDEST PUSH32 0x4E487B7100000000000000000000000000000000000000000000000000000000 PUSH1 0x0 MSTORE PUSH1 0x22 PUSH1 0x4 MSTORE PUSH1 0x24 PUSH1 0x0 REVERT JUMPDEST PUSH2 0x14FD DUP1 PUSH3 0x1DD PUSH1 0x0 CODECOPY PUSH1 0x0 RETURN INVALID PUSH1 0x80 PUSH1 0x40 MSTORE CALLVALUE DUP1 ISZERO PUSH2 0x10 JUMPI PUSH1 0x0 DUP1 REVERT JUMPDEST POP PUSH1 0x4 CALLDATASIZE LT PUSH2 0xB4 JUMPI PUSH1 0x0 CALLDATALOAD PUSH1 0xE0 SHR DUP1 PUSH4 0x70A08231 GT PUSH2 0x71 JUMPI DUP1 PUSH4 0x70A08231 EQ PUSH2 0x1A3 JUMPI DUP1 PUSH4 0x95D89B41 EQ PUSH2 0x1D3 JUMPI DUP1 PUSH4 0x9CBF9E36 EQ PUSH2 0x1F1 JUMPI DUP1 PUSH4 0xA457C2D7 EQ PUSH2 0x1FB JUMPI DUP1 PUSH4 0xA9059CBB EQ PUSH2 0x22B JUMPI DUP1 PUSH4 0xDD62ED3E EQ PUSH2 0x25B JUMPI PUSH2 0xB4 JUMP JUMPDEST DUP1 PUSH4 0x6FDDE03 EQ PUSH2 0xB9 JUMPI DUP1 PUSH4 0x95EA7B3 EQ PUSH2 0xD7 JUMPI DUP1 PUSH4 0x18160DDD EQ PUSH2 0x107 JUMPI DUP1 PUSH4 0x23B872DD EQ PUSH2 0x125 JUMPI DUP1 PUSH4 0x313CE567 EQ PUSH2 0x155 JUMPI DUP1 PUSH4 0x39509351 EQ PUSH2 0x173 JUMPI JUMPDEST PUSH1 0x0 DUP1 REVERT JUMPDEST PUSH2 0xC1 PUSH2 0x28B JUMP JUMPDEST PUSH1 0x40 MLOAD PUSH2 0xCE SWAP2 SWAP1 PUSH2 0xF7A JUMP JUMPDEST PUSH1 0x40 MLOAD DUP1 SWAP2 SUB SWAP1 RETURN JUMPDEST PUSH2 0xF1 PUSH1 0x4 DUP1 CALLDATASIZE SUB DUP2 ADD SWAP1 PUSH2 0xEC SWAP2 SWAP1 PUSH2 0xDA5 JUMP JUMPDEST PUSH2 0x31D JUMP JUMPDEST PUSH1 0x40 MLOAD PUSH2 0xFE SWAP2 SWAP1 PUSH2 0xF5F JUMP JUMPDEST PUSH1 0x40 MLOAD DUP1 SWAP2 SUB SWAP1 RETURN JUMPDEST PUSH2 0x10F PUSH2 0x339 JUMP JUMPDEST PUSH1 0x40 MLOAD PUSH2 0x11C SWAP2 SWAP1 PUSH2 0x109C JUMP JUMPDEST PUSH1 0x40 MLOAD DUP1 SWAP2 SUB SWAP1 RETURN JUMPDEST PUSH2 0x13F PUSH1 0x4 DUP1 CALLDATASIZE SUB DUP2 ADD SWAP1 PUSH2 0x13A SWAP2 SWAP1 PUSH2 0xD56 JUMP JUMPDEST PUSH2 0x343 JUMP JUMPDEST PUSH1 0x40 MLOAD PUSH2 0x14C SWAP2 SWAP1 PUSH2 0xF5F JUMP JUMPDEST PUSH1 0x40 MLOAD DUP1 SWAP2 SUB SWAP1 RETURN JUMPDEST PUSH2 0x15D PUSH2 0x36B JUMP JUMPDEST PUSH1 0x40 MLOAD PUSH2 0x16A SWAP2 SWAP1 PUSH2 0x10B7 JUMP JUMPDEST PUSH1 0x40 MLOAD DUP1 SWAP2 SUB SWAP1 RETURN JUMPDEST PUSH2 0x18D PUSH1 0x4 DUP1 CALLDATASIZE SUB DUP2 ADD SWAP1 PUSH2 0x188 SWAP2 SWAP1 PUSH2 0xDA5 JUMP JUMPDEST PUSH2 0x374 JUMP JUMPDEST PUSH1 0x40 MLOAD PUSH2 0x19A SWAP2 SWAP1 PUSH2 0xF5F JUMP JUMPDEST PUSH1 0x40 MLOAD DUP1 SWAP2 SUB SWAP1 RETURN JUMPDEST PUSH2 0x1BD PUSH1 0x4 DUP1 CALLDATASIZE SUB DUP2 ADD SWAP1 PUSH2 0x1B8 SWAP2 SWAP1 PUSH2 0xCF1 JUMP JUMPDEST PUSH2 0x417 JUMP JUMPDEST PUSH1 0x40 MLOAD PUSH2 0x1CA SWAP2 SWAP1 PUSH2 0x109C JUMP JUMPDEST PUSH1 0x40 MLOAD DUP1 SWAP2 SUB SWAP1 RETURN JUMPDEST PUSH2 0x1DB PUSH2 0x45F JUMP JUMPDEST PUSH1 0x40 MLOAD PUSH2 0x1E8 SWAP2 SWAP1 PUSH2 0xF7A JUMP JUMPDEST PUSH1 0x40 MLOAD DUP1 SWAP2 SUB SWAP1 RETURN JUMPDEST PUSH2 0x1F9 PUSH2 0x4F1 JUMP JUMPDEST STOP JUMPDEST PUSH2 0x215 PUSH1 0x4 DUP1 CALLDATASIZE SUB DUP2 ADD SWAP1 PUSH2 0x210 SWAP2 SWAP1 PUSH2 0xDA5 JUMP JUMPDEST PUSH2 0x4FF JUMP JUMPDEST PUSH1 0x40 MLOAD PUSH2 0x222 SWAP2 SWAP1 PUSH2 0xF5F JUMP JUMPDEST PUSH1 0x40 MLOAD DUP1 SWAP2 SUB SWAP1 RETURN JUMPDEST PUSH2 0x245 PUSH1 0x4 DUP1 CALLDATASIZE SUB DUP2 ADD SWAP1 PUSH2 0x240 SWAP2 SWAP1 PUSH2 0xDA5 JUMP JUMPDEST PUSH2 0x5E2 JUMP JUMPDEST PUSH1 0x40 MLOAD PUSH2 0x252 SWAP2 SWAP1 PUSH2 0xF5F JUMP JUMPDEST PUSH1 0x40 MLOAD DUP1 SWAP2 SUB SWAP1 RETURN JUMPDEST PUSH2 0x275 PUSH1 0x4 DUP1 CALLDATASIZE SUB DUP2 ADD SWAP1 PUSH2 0x270 SWAP2 SWAP1 PUSH2 0xD1A JUMP JUMPDEST PUSH2 0x5FE JUMP JUMPDEST PUSH1 0x40 MLOAD PUSH2 0x282 SWAP2 SWAP1 PUSH2 0x109C JUMP JUMPDEST PUSH1 0x40 MLOAD DUP1 SWAP2 SUB SWAP1 RETURN JUMPDEST PUSH1 0x60 PUSH1 0x3 DUP1 SLOAD PUSH2 0x29A SWAP1 PUSH2 0x11CC JUMP JUMPDEST DUP1 PUSH1 0x1F ADD PUSH1 0x20 DUP1 SWAP2 DIV MUL PUSH1 0x20 ADD PUSH1 0x40 MLOAD SWAP1 DUP2 ADD PUSH1 0x40 MSTORE DUP1 SWAP3 SWAP2 SWAP1 DUP2 DUP2 MSTORE PUSH1 0x20 ADD DUP3 DUP1 SLOAD PUSH2 0x2C6 SWAP1 PUSH2 0x11CC JUMP JUMPDEST DUP1 ISZERO PUSH2 0x313 JUMPI DUP1 PUSH1 0x1F LT PUSH2 0x2E8 JUMPI PUSH2 0x100 DUP1 DUP4 SLOAD DIV MUL DUP4 MSTORE SWAP2 PUSH1 0x20 ADD SWAP2 PUSH2 0x313 JUMP JUMPDEST DUP3 ADD SWAP2 SWAP1 PUSH1 0x0 MSTORE PUSH1 0x20 PUSH1 0x0 KECCAK256 SWAP1 JUMPDEST DUP2 SLOAD DUP2 MSTORE SWAP1 PUSH1 0x1 ADD SWAP1 PUSH1 0x20 ADD DUP1 DUP4 GT PUSH2 0x2F6 JUMPI DUP3 SWAP1 SUB PUSH1 0x1F AND DUP3 ADD SWAP2 JUMPDEST POP POP POP POP POP SWAP1 POP SWAP1 JUMP JUMPDEST PUSH1 0x0 DUP1 CALLER SWAP1 POP PUSH2 0x32E DUP2 DUP6 DUP6 PUSH2 0x685 JUMP JUMPDEST PUSH1 0x1 SWAP2 POP POP SWAP3 SWAP2 POP POP JUMP JUMPDEST PUSH1 0x0 PUSH1 0x2 SLOAD SWAP1 POP SWAP1 JUMP JUMPDEST PUSH1 0x0 DUP1 CALLER SWAP1 POP PUSH2 0x354 DUP6 DUP3 DUP6 PUSH2 0x850 JUMP JUMPDEST PUSH2 0x35F DUP6 DUP6 DUP6 PUSH2 0x8DC JUMP JUMPDEST PUSH1 0x1 SWAP2 POP POP SWAP4 SWAP3 POP POP POP JUMP JUMPDEST PUSH1 0x0 PUSH1 0x12 SWAP1 POP SWAP1 JUMP JUMPDEST PUSH1 0x0 DUP1 CALLER SWAP1 POP PUSH2 0x40C DUP2 DUP6 DUP6 PUSH1 0x1 PUSH1 0x0 DUP7 PUSH20 0xFFFFFFFFFFFFFFFFFFFFFFFFFFFFFFFFFFFFFFFF AND PUSH20 0xFFFFFFFFFFFFFFFFFFFFFFFFFFFFFFFFFFFFFFFF AND DUP2 MSTORE PUSH1 0x20 ADD SWAP1 DUP2 MSTORE PUSH1 0x20 ADD PUSH1 0x0 KECCAK256 PUSH1 0x0 DUP10 PUSH20 0xFFFFFFFFFFFFFFFFFFFFFFFFFFFFFFFFFFFFFFFF AND PUSH20 0xFFFFFFFFFFFFFFFFFFFFFFFFFFFFFFFFFFFFFFFF AND DUP2 MSTORE PUSH1 0x20 ADD SWAP1 DUP2 MSTORE PUSH1 0x20 ADD PUSH1 0x0 KECCAK256 SLOAD PUSH2 0x407 SWAP2 SWAP1 PUSH2 0x10EE JUMP JUMPDEST PUSH2 0x685 JUMP JUMPDEST PUSH1 0x1 SWAP2 POP POP SWAP3 SWAP2 POP POP JUMP JUMPDEST PUSH1 0x0 DUP1 PUSH1 0x0 DUP4 PUSH20 0xFFFFFFFFFFFFFFFFFFFFFFFFFFFFFFFFFFFFFFFF AND PUSH20 0xFFFFFFFFFFFFFFFFFFFFFFFFFFFFFFFFFFFFFFFF AND DUP2 MSTORE PUSH1 0x20 ADD SWAP1 DUP2 MSTORE PUSH1 0x20 ADD PUSH1 0x0 KECCAK256 SLOAD SWAP1 POP SWAP2 SWAP1 POP JUMP JUMPDEST PUSH1 0x60 PUSH1 0x4 DUP1 SLOAD PUSH2 0x46E SWAP1 PUSH2 0x11CC JUMP JUMPDEST DUP1 PUSH1 0x1F ADD PUSH1 0x20 DUP1 SWAP2 DIV MUL PUSH1 0x20 ADD PUSH1 0x40 MLOAD SWAP1 DUP2 ADD PUSH1 0x40 MSTORE DUP1 SWAP3 SWAP2 SWAP1 DUP2 DUP2 MSTORE PUSH1 0x20 ADD DUP3 DUP1 SLOAD PUSH2 0x49A SWAP1 PUSH2 0x11CC JUMP JUMPDEST DUP1 ISZERO PUSH2 0x4E7 JUMPI DUP1 PUSH1 0x1F LT PUSH2 0x4BC JUMPI PUSH2 0x100 DUP1 DUP4 SLOAD DIV MUL DUP4 MSTORE SWAP2 PUSH1 0x20 ADD SWAP2 PUSH2 0x4E7 JUMP JUMPDEST DUP3 ADD SWAP2 SWAP1 PUSH1 0x0 MSTORE PUSH1 0x20 PUSH1 0x0 KECCAK256 SWAP1 JUMPDEST DUP2 SLOAD DUP2 MSTORE SWAP1 PUSH1 0x1 ADD SWAP1 PUSH1 0x20 ADD DUP1 DUP4 GT PUSH2 0x4CA JUMPI DUP3 SWAP1 SUB PUSH1 0x1F AND DUP3 ADD SWAP2 JUMPDEST POP POP POP POP POP SWAP1 POP SWAP1 JUMP JUMPDEST PUSH2 0x4FD CALLER PUSH2 0x3E8 PUSH2 0xB5D JUMP JUMPDEST JUMP JUMPDEST PUSH1 0x0 DUP1 CALLER SWAP1 POP PUSH1 0x0 PUSH1 0x1 PUSH1 0x0 DUP4 PUSH20 0xFFFFFFFFFFFFFFFFFFFFFFFFFFFFFFFFFFFFFFFF AND PUSH20 0xFFFFFFFFFFFFFFFFFFFFFFFFFFFFFFFFFFFFFFFF AND DUP2 MSTORE PUSH1 0x20 ADD SWAP1 DUP2 MSTORE PUSH1 0x20 ADD PUSH1 0x0 KECCAK256 PUSH1 0x0 DUP7 PUSH20 0xFFFFFFFFFFFFFFFFFFFFFFFFFFFFFFFFFFFFFFFF AND PUSH20 0xFFFFFFFFFFFFFFFFFFFFFFFFFFFFFFFFFFFFFFFF AND DUP2 MSTORE PUSH1 0x20 ADD SWAP1 DUP2 MSTORE PUSH1 0x20 ADD PUSH1 0x0 KECCAK256 SLOAD SWAP1 POP DUP4 DUP2 LT ISZERO PUSH2 0x5C9 JUMPI PUSH1 0x40 MLOAD PUSH32 0x8C379A000000000000000000000000000000000000000000000000000000000 DUP2 MSTORE PUSH1 0x4 ADD PUSH2 0x5C0 SWAP1 PUSH2 0x105C JUMP JUMPDEST PUSH1 0x40 MLOAD DUP1 SWAP2 SUB SWAP1 REVERT JUMPDEST PUSH2 0x5D6 DUP3 DUP7 DUP7 DUP5 SUB PUSH2 0x685 JUMP JUMPDEST PUSH1 0x1 SWAP3 POP POP POP SWAP3 SWAP2 POP POP JUMP JUMPDEST PUSH1 0x0 DUP1 CALLER SWAP1 POP PUSH2 0x5F3 DUP2 DUP6 DUP6 PUSH2 0x8DC JUMP JUMPDEST PUSH1 0x1 SWAP2 POP POP SWAP3 SWAP2 POP POP JUMP JUMPDEST PUSH1 0x0 PUSH1 0x1 PUSH1 0x0 DUP5 PUSH20 0xFFFFFFFFFFFFFFFFFFFFFFFFFFFFFFFFFFFFFFFF AND PUSH20 0xFFFFFFFFFFFFFFFFFFFFFFFFFFFFFFFFFFFFFFFF AND DUP2 MSTORE PUSH1 0x20 ADD SWAP1 DUP2 MSTORE PUSH1 0x20 ADD PUSH1 0x0 KECCAK256 PUSH1 0x0 DUP4 PUSH20 0xFFFFFFFFFFFFFFFFFFFFFFFFFFFFFFFFFFFFFFFF AND PUSH20 0xFFFFFFFFFFFFFFFFFFFFFFFFFFFFFFFFFFFFFFFF AND DUP2 MSTORE PUSH1 0x20 ADD SWAP1 DUP2 MSTORE PUSH1 0x20 ADD PUSH1 0x0 KECCAK256 SLOAD SWAP1 POP SWAP3 SWAP2 POP POP JUMP JUMPDEST PUSH1 0x0 PUSH20 0xFFFFFFFFFFFFFFFFFFFFFFFFFFFFFFFFFFFFFFFF AND DUP4 PUSH20 0xFFFFFFFFFFFFFFFFFFFFFFFFFFFFFFFFFFFFFFFF AND EQ ISZERO PUSH2 0x6F5 JUMPI PUSH1 0x40 MLOAD PUSH32 0x8C379A000000000000000000000000000000000000000000000000000000000 DUP2 MSTORE PUSH1 0x4 ADD PUSH2 0x6EC SWAP1 PUSH2 0x103C JUMP JUMPDEST PUSH1 0x40 MLOAD DUP1 SWAP2 SUB SWAP1 REVERT JUMPDEST PUSH1 0x0 PUSH20 0xFFFFFFFFFFFFFFFFFFFFFFFFFFFFFFFFFFFFFFFF AND DUP3 PUSH20 0xFFFFFFFFFFFFFFFFFFFFFFFFFFFFFFFFFFFFFFFF AND EQ ISZERO PUSH2 0x765 JUMPI PUSH1 0x40 MLOAD PUSH32 0x8C379A000000000000000000000000000000000000000000000000000000000 DUP2 MSTORE PUSH1 0x4 ADD PUSH2 0x75C SWAP1 PUSH2 0xFBC JUMP JUMPDEST PUSH1 0x40 MLOAD DUP1 SWAP2 SUB SWAP1 REVERT JUMPDEST DUP1 PUSH1 0x1 PUSH1 0x0 DUP6 PUSH20 0xFFFFFFFFFFFFFFFFFFFFFFFFFFFFFFFFFFFFFFFF AND PUSH20 0xFFFFFFFFFFFFFFFFFFFFFFFFFFFFFFFFFFFFFFFF AND DUP2 MSTORE PUSH1 0x20 ADD SWAP1 DUP2 MSTORE PUSH1 0x20 ADD PUSH1 0x0 KECCAK256 PUSH1 0x0 DUP5 PUSH20 0xFFFFFFFFFFFFFFFFFFFFFFFFFFFFFFFFFFFFFFFF AND PUSH20 0xFFFFFFFFFFFFFFFFFFFFFFFFFFFFFFFFFFFFFFFF AND DUP2 MSTORE PUSH1 0x20 ADD SWAP1 DUP2 MSTORE PUSH1 0x20 ADD PUSH1 0x0 KECCAK256 DUP2 SWAP1 SSTORE POP DUP2 PUSH20 0xFFFFFFFFFFFFFFFFFFFFFFFFFFFFFFFFFFFFFFFF AND DUP4 PUSH20 0xFFFFFFFFFFFFFFFFFFFFFFFFFFFFFFFFFFFFFFFF AND PUSH32 0x8C5BE1E5EBEC7D5BD14F71427D1E84F3DD0314C0F7B2291E5B200AC8C7C3B925 DUP4 PUSH1 0x40 MLOAD PUSH2 0x843 SWAP2 SWAP1 PUSH2 0x109C JUMP JUMPDEST PUSH1 0x40 MLOAD DUP1 SWAP2 SUB SWAP1 LOG3 POP POP POP JUMP JUMPDEST PUSH1 0x0 PUSH2 0x85C DUP5 DUP5 PUSH2 0x5FE JUMP JUMPDEST SWAP1 POP PUSH32 0xFFFFFFFFFFFFFFFFFFFFFFFFFFFFFFFFFFFFFFFFFFFFFFFFFFFFFFFFFFFFFFFF DUP2 EQ PUSH2 0x8D6 JUMPI DUP2 DUP2 LT ISZERO PUSH2 0x8C8 JUMPI PUSH1 0x40 MLOAD PUSH32 0x8C379A000000000000000000000000000000000000000000000000000000000 DUP2 MSTORE PUSH1 0x4 ADD PUSH2 0x8BF SWAP1 PUSH2 0xFDC JUMP JUMPDEST PUSH1 0x40 MLOAD DUP1 SWAP2 SUB SWAP1 REVERT JUMPDEST PUSH2 0x8D5 DUP5 DUP5 DUP5 DUP5 SUB PUSH2 0x685 JUMP JUMPDEST JUMPDEST POP POP POP POP JUMP JUMPDEST PUSH1 0x0 PUSH20 0xFFFFFFFFFFFFFFFFFFFFFFFFFFFFFFFFFFFFFFFF AND DUP4 PUSH20 0xFFFFFFFFFFFFFFFFFFFFFFFFFFFFFFFFFFFFFFFF AND EQ ISZERO PUSH2 0x94C JUMPI PUSH1 0x40 MLOAD PUSH32 0x8C379A000000000000000000000000000000000000000000000000000000000 DUP2 MSTORE PUSH1 0x4 ADD PUSH2 0x943 SWAP1 PUSH2 0x101C JUMP JUMPDEST PUSH1 0x40 MLOAD DUP1 SWAP2 SUB SWAP1 REVERT JUMPDEST PUSH1 0x0 PUSH20 0xFFFFFFFFFFFFFFFFFFFFFFFFFFFFFFFFFFFFFFFF AND DUP3 PUSH20 0xFFFFFFFFFFFFFFFFFFFFFFFFFFFFFFFFFFFFFFFF AND EQ ISZERO PUSH2 0x9BC JUMPI PUSH1 0x40 MLOAD PUSH32 0x8C379A000000000000000000000000000000000000000000000000000000000 DUP2 MSTORE PUSH1 0x4 ADD PUSH2 0x9B3 SWAP1 PUSH2 0xF9C JUMP JUMPDEST PUSH1 0x40 MLOAD DUP1 SWAP2 SUB SWAP1 REVERT JUMPDEST PUSH2 0x9C7 DUP4 DUP4 DUP4 PUSH2 0xCBD JUMP JUMPDEST PUSH1 0x0 DUP1 PUSH1 0x0 DUP6 PUSH20 0xFFFFFFFFFFFFFFFFFFFFFFFFFFFFFFFFFFFFFFFF AND PUSH20 0xFFFFFFFFFFFFFFFFFFFFFFFFFFFFFFFFFFFFFFFF AND DUP2 MSTORE PUSH1 0x20 ADD SWAP1 DUP2 MSTORE PUSH1 0x20 ADD PUSH1 0x0 KECCAK256 SLOAD SWAP1 POP DUP2 DUP2 LT ISZERO PUSH2 0xA4D JUMPI PUSH1 0x40 MLOAD PUSH32 0x8C379A000000000000000000000000000000000000000000000000000000000 DUP2 MSTORE PUSH1 0x4 ADD PUSH2 0xA44 SWAP1 PUSH2 0xFFC JUMP JUMPDEST PUSH1 0x40 MLOAD DUP1 SWAP2 SUB SWAP1 REVERT JUMPDEST DUP2 DUP2 SUB PUSH1 0x0 DUP1 DUP7 PUSH20 0xFFFFFFFFFFFFFFFFFFFFFFFFFFFFFFFFFFFFFFFF AND PUSH20 0xFFFFFFFFFFFFFFFFFFFFFFFFFFFFFFFFFFFFFFFF AND DUP2 MSTORE PUSH1 0x20 ADD SWAP1 DUP2 MSTORE PUSH1 0x20 ADD PUSH1 0x0 KECCAK256 DUP2 SWAP1 SSTORE POP DUP2 PUSH1 0x0 DUP1 DUP6 PUSH20 0xFFFFFFFFFFFFFFFFFFFFFFFFFFFFFFFFFFFFFFFF AND PUSH20 0xFFFFFFFFFFFFFFFFFFFFFFFFFFFFFFFFFFFFFFFF AND DUP2 MSTORE PUSH1 0x20 ADD SWAP1 DUP2 MSTORE PUSH1 0x20 ADD PUSH1 0x0 KECCAK256 PUSH1 0x0 DUP3 DUP3 SLOAD PUSH2 0xAE0 SWAP2 SWAP1 PUSH2 0x10EE JUMP JUMPDEST SWAP3 POP POP DUP2 SWAP1 SSTORE POP DUP3 PUSH20 0xFFFFFFFFFFFFFFFFFFFFFFFFFFFFFFFFFFFFFFFF AND DUP5 PUSH20 0xFFFFFFFFFFFFFFFFFFFFFFFFFFFFFFFFFFFFFFFF AND PUSH32 0xDDF252AD1BE2C89B69C2B068FC378DAA952BA7F163C4A11628F55A4DF523B3EF DUP5 PUSH1 0x40 MLOAD PUSH2 0xB44 SWAP2 SWAP1 PUSH2 0x109C JUMP JUMPDEST PUSH1 0x40 MLOAD DUP1 SWAP2 SUB SWAP1 LOG3 PUSH2 0xB57 DUP5 DUP5 DUP5 PUSH2 0xCC2 JUMP JUMPDEST POP POP POP POP JUMP JUMPDEST PUSH1 0x0 PUSH20 0xFFFFFFFFFFFFFFFFFFFFFFFFFFFFFFFFFFFFFFFF AND DUP3 PUSH20 0xFFFFFFFFFFFFFFFFFFFFFFFFFFFFFFFFFFFFFFFF AND EQ ISZERO PUSH2 0xBCD JUMPI PUSH1 0x40 MLOAD PUSH32 0x8C379A000000000000000000000000000000000000000000000000000000000 DUP2 MSTORE PUSH1 0x4 ADD PUSH2 0xBC4 SWAP1 PUSH2 0x107C JUMP JUMPDEST PUSH1 0x40 MLOAD DUP1 SWAP2 SUB SWAP1 REVERT JUMPDEST PUSH2 0xBD9 PUSH1 0x0 DUP4 DUP4 PUSH2 0xCBD JUMP JUMPDEST DUP1 PUSH1 0x2 PUSH1 0x0 DUP3 DUP3 SLOAD PUSH2 0xBEB SWAP2 SWAP1 PUSH2 0x10EE JUMP JUMPDEST SWAP3 POP POP DUP2 SWAP1 SSTORE POP DUP1 PUSH1 0x0 DUP1 DUP5 PUSH20 0xFFFFFFFFFFFFFFFFFFFFFFFFFFFFFFFFFFFFFFFF AND PUSH20 0xFFFFFFFFFFFFFFFFFFFFFFFFFFFFFFFFFFFFFFFF AND DUP2 MSTORE PUSH1 0x20 ADD SWAP1 DUP2 MSTORE PUSH1 0x20 ADD PUSH1 0x0 KECCAK256 PUSH1 0x0 DUP3 DUP3 SLOAD PUSH2 0xC40 SWAP2 SWAP1 PUSH2 0x10EE JUMP JUMPDEST SWAP3 POP POP DUP2 SWAP1 SSTORE POP DUP2 PUSH20 0xFFFFFFFFFFFFFFFFFFFFFFFFFFFFFFFFFFFFFFFF AND PUSH1 0x0 PUSH20 0xFFFFFFFFFFFFFFFFFFFFFFFFFFFFFFFFFFFFFFFF AND PUSH32 0xDDF252AD1BE2C89B69C2B068FC378DAA952BA7F163C4A11628F55A4DF523B3EF DUP4 PUSH1 0x40 MLOAD PUSH2 0xCA5 SWAP2 SWAP1 PUSH2 0x109C JUMP JUMPDEST PUSH1 0x40 MLOAD DUP1 SWAP2 SUB SWAP1 LOG3 PUSH2 0xCB9 PUSH1 0x0 DUP4 DUP4 PUSH2 0xCC2 JUMP JUMPDEST POP POP JUMP JUMPDEST POP POP POP JUMP JUMPDEST POP POP POP JUMP JUMPDEST PUSH1 0x0 DUP2 CALLDATALOAD SWAP1 POP PUSH2 0xCD6 DUP2 PUSH2 0x1499 JUMP JUMPDEST SWAP3 SWAP2 POP POP JUMP JUMPDEST PUSH1 0x0 DUP2 CALLDATALOAD SWAP1 POP PUSH2 0xCEB DUP2 PUSH2 0x14B0 JUMP JUMPDEST SWAP3 SWAP2 POP POP JUMP JUMPDEST PUSH1 0x0 PUSH1 0x20 DUP3 DUP5 SUB SLT ISZERO PUSH2 0xD03 JUMPI PUSH1 0x0 DUP1 REVERT JUMPDEST PUSH1 0x0 PUSH2 0xD11 DUP5 DUP3 DUP6 ADD PUSH2 0xCC7 JUMP JUMPDEST SWAP2 POP POP SWAP3 SWAP2 POP POP JUMP JUMPDEST PUSH1 0x0 DUP1 PUSH1 0x40 DUP4 DUP6 SUB SLT ISZERO PUSH2 0xD2D JUMPI PUSH1 0x0 DUP1 REVERT JUMPDEST PUSH1 0x0 PUSH2 0xD3B DUP6 DUP3 DUP7 ADD PUSH2 0xCC7 JUMP JUMPDEST SWAP3 POP POP PUSH1 0x20 PUSH2 0xD4C DUP6 DUP3 DUP7 ADD PUSH2 0xCC7 JUMP JUMPDEST SWAP2 POP POP SWAP3 POP SWAP3 SWAP1 POP JUMP JUMPDEST PUSH1 0x0 DUP1 PUSH1 0x0 PUSH1 0x60 DUP5 DUP7 SUB SLT ISZERO PUSH2 0xD6B JUMPI PUSH1 0x0 DUP1 REVERT JUMPDEST PUSH1 0x0 PUSH2 0xD79 DUP7 DUP3 DUP8 ADD PUSH2 0xCC7 JUMP JUMPDEST SWAP4 POP POP PUSH1 0x20 PUSH2 0xD8A DUP7 DUP3 DUP8 ADD PUSH2 0xCC7 JUMP JUMPDEST SWAP3 POP POP PUSH1 0x40 PUSH2 0xD9B DUP7 DUP3 DUP8 ADD PUSH2 0xCDC JUMP JUMPDEST SWAP2 POP POP SWAP3 POP SWAP3 POP SWAP3 JUMP JUMPDEST PUSH1 0x0 DUP1 PUSH1 0x40 DUP4 DUP6 SUB SLT ISZERO PUSH2 0xDB8 JUMPI PUSH1 0x0 DUP1 REVERT JUMPDEST PUSH1 0x0 PUSH2 0xDC6 DUP6 DUP3 DUP7 ADD PUSH2 0xCC7 JUMP JUMPDEST SWAP3 POP POP PUSH1 0x20 PUSH2 0xDD7 DUP6 DUP3 DUP7 ADD PUSH2 0xCDC JUMP JUMPDEST SWAP2 POP POP SWAP3 POP SWAP3 SWAP1 POP JUMP JUMPDEST PUSH2 0xDEA DUP2 PUSH2 0x1156 JUMP JUMPDEST DUP3 MSTORE POP POP JUMP JUMPDEST PUSH1 0x0 PUSH2 0xDFB DUP3 PUSH2 0x10D2 JUMP JUMPDEST PUSH2 0xE05 DUP2 DUP6 PUSH2 0x10DD JUMP JUMPDEST SWAP4 POP PUSH2 0xE15 DUP2 DUP6 PUSH1 0x20 DUP7 ADD PUSH2 0x1199 JUMP JUMPDEST PUSH2 0xE1E DUP2 PUSH2 0x125C JUMP JUMPDEST DUP5 ADD SWAP2 POP POP SWAP3 SWAP2 POP POP JUMP JUMPDEST PUSH1 0x0 PUSH2 0xE36 PUSH1 0x23 DUP4 PUSH2 0x10DD JUMP JUMPDEST SWAP2 POP PUSH2 0xE41 DUP3 PUSH2 0x126D JUMP JUMPDEST PUSH1 0x40 DUP3 ADD SWAP1 POP SWAP2 SWAP1 POP JUMP JUMPDEST PUSH1 0x0 PUSH2 0xE59 PUSH1 0x22 DUP4 PUSH2 0x10DD JUMP JUMPDEST SWAP2 POP PUSH2 0xE64 DUP3 PUSH2 0x12BC JUMP JUMPDEST PUSH1 0x40 DUP3 ADD SWAP1 POP SWAP2 SWAP1 POP JUMP JUMPDEST PUSH1 0x0 PUSH2 0xE7C PUSH1 0x1D DUP4 PUSH2 0x10DD JUMP JUMPDEST SWAP2 POP PUSH2 0xE87 DUP3 PUSH2 0x130B JUMP JUMPDEST PUSH1 0x20 DUP3 ADD SWAP1 POP SWAP2 SWAP1 POP JUMP JUMPDEST PUSH1 0x0 PUSH2 0xE9F PUSH1 0x26 DUP4 PUSH2 0x10DD JUMP JUMPDEST SWAP2 POP PUSH2 0xEAA DUP3 PUSH2 0x1334 JUMP JUMPDEST PUSH1 0x40 DUP3 ADD SWAP1 POP SWAP2 SWAP1 POP JUMP JUMPDEST PUSH1 0x0 PUSH2 0xEC2 PUSH1 0x25 DUP4 PUSH2 0x10DD JUMP JUMPDEST SWAP2 POP PUSH2 0xECD DUP3 PUSH2 0x1383 JUMP JUMPDEST PUSH1 0x40 DUP3 ADD SWAP1 POP SWAP2 SWAP1 POP JUMP JUMPDEST PUSH1 0x0 PUSH2 0xEE5 PUSH1 0x24 DUP4 PUSH2 0x10DD JUMP JUMPDEST SWAP2 POP PUSH2 0xEF0 DUP3 PUSH2 0x13D2 JUMP JUMPDEST PUSH1 0x40 DUP3 ADD SWAP1 POP SWAP2 SWAP1 POP JUMP JUMPDEST PUSH1 0x0 PUSH2 0xF08 PUSH1 0x25 DUP4 PUSH2 0x10DD JUMP JUMPDEST SWAP2 POP PUSH2 0xF13 DUP3 PUSH2 0x1421 JUMP JUMPDEST PUSH1 0x40 DUP3 ADD SWAP1 POP SWAP2 SWAP1 POP JUMP JUMPDEST PUSH1 0x0 PUSH2 0xF2B PUSH1 0x1F DUP4 PUSH2 0x10DD JUMP JUMPDEST SWAP2 POP PUSH2 0xF36 DUP3 PUSH2 0x1470 JUMP JUMPDEST PUSH1 0x20 DUP3 ADD SWAP1 POP SWAP2 SWAP1 POP JUMP JUMPDEST PUSH2 0xF4A DUP2 PUSH2 0x1182 JUMP JUMPDEST DUP3 MSTORE POP POP JUMP JUMPDEST PUSH2 0xF59 DUP2 PUSH2 0x118C JUMP JUMPDEST DUP3 MSTORE POP POP JUMP JUMPDEST PUSH1 0x0 PUSH1 0x20 DUP3 ADD SWAP1 POP PUSH2 0xF74 PUSH1 0x0 DUP4 ADD DUP5 PUSH2 0xDE1 JUMP JUMPDEST SWAP3 SWAP2 POP POP JUMP JUMPDEST PUSH1 0x0 PUSH1 0x20 DUP3 ADD SWAP1 POP DUP2 DUP2 SUB PUSH1 0x0 DUP4 ADD MSTORE PUSH2 0xF94 DUP2 DUP5 PUSH2 0xDF0 JUMP JUMPDEST SWAP1 POP SWAP3 SWAP2 POP POP JUMP JUMPDEST PUSH1 0x0 PUSH1 0x20 DUP3 ADD SWAP1 POP DUP2 DUP2 SUB PUSH1 0x0 DUP4 ADD MSTORE PUSH2 0xFB5 DUP2 PUSH2 0xE29 JUMP JUMPDEST SWAP1 POP SWAP2 SWAP1 POP JUMP JUMPDEST PUSH1 0x0 PUSH1 0x20 DUP3 ADD SWAP1 POP DUP2 DUP2 SUB PUSH1 0x0 DUP4 ADD MSTORE PUSH2 0xFD5 DUP2 PUSH2 0xE4C JUMP JUMPDEST SWAP1 POP SWAP2 SWAP1 POP JUMP JUMPDEST PUSH1 0x0 PUSH1 0x20 DUP3 ADD SWAP1 POP DUP2 DUP2 SUB PUSH1 0x0 DUP4 ADD MSTORE PUSH2 0xFF5 DUP2 PUSH2 0xE6F JUMP JUMPDEST SWAP1 POP SWAP2 SWAP1 POP JUMP JUMPDEST PUSH1 0x0 PUSH1 0x20 DUP3 ADD SWAP1 POP DUP2 DUP2 SUB PUSH1 0x0 DUP4 ADD MSTORE PUSH2 0x1015 DUP2 PUSH2 0xE92 JUMP JUMPDEST SWAP1 POP SWAP2 SWAP1 POP JUMP JUMPDEST PUSH1 0x0 PUSH1 0x20 DUP3 ADD SWAP1 POP DUP2 DUP2 SUB PUSH1 0x0 DUP4 ADD MSTORE PUSH2 0x1035 DUP2 PUSH2 0xEB5 JUMP JUMPDEST SWAP1 POP SWAP2 SWAP1 POP JUMP JUMPDEST PUSH1 0x0 PUSH1 0x20 DUP3 ADD SWAP1 POP DUP2 DUP2 SUB PUSH1 0x0 DUP4 ADD MSTORE PUSH2 0x1055 DUP2 PUSH2 0xED8 JUMP JUMPDEST SWAP1 POP SWAP2 SWAP1 POP JUMP JUMPDEST PUSH1 0x0 PUSH1 0x20 DUP3 ADD SWAP1 POP DUP2 DUP2 SUB PUSH1 0x0 DUP4 ADD MSTORE PUSH2 0x1075 DUP2 PUSH2 0xEFB JUMP JUMPDEST SWAP1 POP SWAP2 SWAP1 POP JUMP JUMPDEST PUSH1 0x0 PUSH1 0x20 DUP3 ADD SWAP1 POP DUP2 DUP2 SUB PUSH1 0x0 DUP4 ADD MSTORE PUSH2 0x1095 DUP2 PUSH2 0xF1E JUMP JUMPDEST SWAP1 POP SWAP2 SWAP1 POP JUMP JUMPDEST PUSH1 0x0 PUSH1 0x20 DUP3 ADD SWAP1 POP PUSH2 0x10B1 PUSH1 0x0 DUP4 ADD DUP5 PUSH2 0xF41 JUMP JUMPDEST SWAP3 SWAP2 POP POP JUMP JUMPDEST PUSH1 0x0 PUSH1 0x20 DUP3 ADD SWAP1 POP PUSH2 0x10CC PUSH1 0x0 DUP4 ADD DUP5 PUSH2 0xF50 JUMP JUMPDEST SWAP3 SWAP2 POP POP JUMP JUMPDEST PUSH1 0x0 DUP2 MLOAD SWAP1 POP SWAP2 SWAP1 POP JUMP JUMPDEST PUSH1 0x0 DUP3 DUP3 MSTORE PUSH1 0x20 DUP3 ADD SWAP1 POP SWAP3 SWAP2 POP POP JUMP JUMPDEST PUSH1 0x0 PUSH2 0x10F9 DUP3 PUSH2 0x1182 JUMP JUMPDEST SWAP2 POP PUSH2 0x1104 DUP4 PUSH2 0x1182 JUMP JUMPDEST SWAP3 POP DUP3 PUSH32 0xFFFFFFFFFFFFFFFFFFFFFFFFFFFFFFFFFFFFFFFFFFFFFFFFFFFFFFFFFFFFFFFF SUB DUP3 GT ISZERO PUSH2 0x1139 JUMPI PUSH2 0x1138 PUSH2 0x11FE JUMP JUMPDEST JUMPDEST DUP3 DUP3 ADD SWAP1 POP SWAP3 SWAP2 POP POP JUMP JUMPDEST PUSH1 0x0 PUSH2 0x114F DUP3 PUSH2 0x1162 JUMP JUMPDEST SWAP1 POP SWAP2 SWAP1 POP JUMP JUMPDEST PUSH1 0x0 DUP2 ISZERO ISZERO SWAP1 POP SWAP2 SWAP1 POP JUMP JUMPDEST PUSH1 0x0 PUSH20 0xFFFFFFFFFFFFFFFFFFFFFFFFFFFFFFFFFFFFFFFF DUP3 AND SWAP1 POP SWAP2 SWAP1 POP JUMP JUMPDEST PUSH1 0x0 DUP2 SWAP1 POP SWAP2 SWAP1 POP JUMP JUMPDEST PUSH1 0x0 PUSH1 0xFF DUP3 AND SWAP1 POP SWAP2 SWAP1 POP JUMP JUMPDEST PUSH1 0x0 JUMPDEST DUP4 DUP2 LT ISZERO PUSH2 0x11B7 JUMPI DUP1 DUP3 ADD MLOAD DUP2 DUP5 ADD MSTORE PUSH1 0x20 DUP2 ADD SWAP1 POP PUSH2 0x119C JUMP JUMPDEST DUP4 DUP2 GT ISZERO PUSH2 0x11C6 JUMPI PUSH1 0x0 DUP5 DUP5 ADD MSTORE JUMPDEST POP POP POP POP JUMP JUMPDEST PUSH1 0x0 PUSH1 0x2 DUP3 DIV SWAP1 POP PUSH1 0x1 DUP3 AND DUP1 PUSH2 0x11E4 JUMPI PUSH1 0x7F DUP3 AND SWAP2 POP JUMPDEST PUSH1 0x20 DUP3 LT DUP2 EQ ISZERO PUSH2 0x11F8 JUMPI PUSH2 0x11F7 PUSH2 0x122D JUMP JUMPDEST JUMPDEST POP SWAP2 SWAP1 POP JUMP JUMPDEST PUSH32 0x4E487B7100000000000000000000000000000000000000000000000000000000 PUSH1 0x0 MSTORE PUSH1 0x11 PUSH1 0x4 MSTORE PUSH1 0x24 PUSH1 0x0 REVERT JUMPDEST PUSH32 0x4E487B7100000000000000000000000000000000000000000000000000000000 PUSH1 0x0 MSTORE PUSH1 0x22 PUSH1 0x4 MSTORE PUSH1 0x24 PUSH1 0x0 REVERT JUMPDEST PUSH1 0x0 PUSH1 0x1F NOT PUSH1 0x1F DUP4 ADD AND SWAP1 POP SWAP2 SWAP1 POP JUMP JUMPDEST PUSH32 0x45524332303A207472616E7366657220746F20746865207A65726F2061646472 PUSH1 0x0 DUP3 ADD MSTORE PUSH32 0x6573730000000000000000000000000000000000000000000000000000000000 PUSH1 0x20 DUP3 ADD MSTORE POP JUMP JUMPDEST PUSH32 0x45524332303A20617070726F766520746F20746865207A65726F206164647265 PUSH1 0x0 DUP3 ADD MSTORE PUSH32 0x7373000000000000000000000000000000000000000000000000000000000000 PUSH1 0x20 DUP3 ADD MSTORE POP JUMP JUMPDEST PUSH32 0x45524332303A20696E73756666696369656E7420616C6C6F77616E6365000000 PUSH1 0x0 DUP3 ADD MSTORE POP JUMP JUMPDEST PUSH32 0x45524332303A207472616E7366657220616D6F756E7420657863656564732062 PUSH1 0x0 DUP3 ADD MSTORE PUSH32 0x616C616E63650000000000000000000000000000000000000000000000000000 PUSH1 0x20 DUP3 ADD MSTORE POP JUMP JUMPDEST PUSH32 0x45524332303A207472616E736665722066726F6D20746865207A65726F206164 PUSH1 0x0 DUP3 ADD MSTORE PUSH32 0x6472657373000000000000000000000000000000000000000000000000000000 PUSH1 0x20 DUP3 ADD MSTORE POP JUMP JUMPDEST PUSH32 0x45524332303A20617070726F76652066726F6D20746865207A65726F20616464 PUSH1 0x0 DUP3 ADD MSTORE PUSH32 0x7265737300000000000000000000000000000000000000000000000000000000 PUSH1 0x20 DUP3 ADD MSTORE POP JUMP JUMPDEST PUSH32 0x45524332303A2064656372656173656420616C6C6F77616E63652062656C6F77 PUSH1 0x0 DUP3 ADD MSTORE PUSH32 0x207A65726F000000000000000000000000000000000000000000000000000000 PUSH1 0x20 DUP3 ADD MSTORE POP JUMP JUMPDEST PUSH32 0x45524332303A206D696E7420746F20746865207A65726F206164647265737300 PUSH1 0x0 DUP3 ADD MSTORE POP JUMP JUMPDEST PUSH2 0x14A2 DUP2 PUSH2 0x1144 JUMP JUMPDEST DUP2 EQ PUSH2 0x14AD JUMPI PUSH1 0x0 DUP1 REVERT JUMPDEST POP JUMP JUMPDEST PUSH2 0x14B9 DUP2 PUSH2 0x1182 JUMP JUMPDEST DUP2 EQ PUSH2 0x14C4 JUMPI PUSH1 0x0 DUP1 REVERT JUMPDEST POP JUMP INVALID LOG2 PUSH5 0x6970667358 0x22 SLT KECCAK256 0xCE CALLDATASIZE DUP16 MULMOD 0xA8 0xA7 0xA7 NOT 0xD8 0xC9 SHL 0xCC 0x49 MSIZE GT 0xE5 DUP14 PUSH8 0x10C0475729CCD57D 0xEC SWAP1 0xAA 0xDB DUP5 0xDA PUSH5 0x736F6C6343 STOP ADDMOD DIV STOP CALLER "
				},
				"gasEstimates": {
					"creation": {
						"codeDepositCost": "1074600",
						"executionCost": "infinite",
						"totalCost": "infinite"
					},
					"external": {
						"allowance(address,address)": "infinite",
						"approve(address,uint256)": "infinite",
						"balanceOf(address)": "1541",
						"createToken()": "infinite",
						"decimals()": "432",
						"decreaseAllowance(address,uint256)": "infinite",
						"increaseAllowance(address,uint256)": "infinite",
						"name()": "infinite",
						"symbol()": "infinite",
						"totalSupply()": "1182",
						"transfer(address,uint256)": "infinite",
						"transferFrom(address,address,uint256)": "infinite"
					}
				},
				"methodIdentifiers": {
					"allowance(address,address)": "dd62ed3e",
					"approve(address,uint256)": "095ea7b3",
					"balanceOf(address)": "70a08231",
					"createToken()": "9cbf9e36",
					"decimals()": "313ce567",
					"decreaseAllowance(address,uint256)": "a457c2d7",
					"increaseAllowance(address,uint256)": "39509351",
					"name()": "06fdde03",
					"symbol()": "95d89b41",
					"totalSupply()": "18160ddd",
					"transfer(address,uint256)": "a9059cbb",
					"transferFrom(address,address,uint256)": "23b872dd"
				}
			},
			"storageLayout": {
				"storage": [
					{
						"astId": 74,
						"contract": "contracts/customERC.sol:customERC20",
						"label": "_balances",
						"offset": 0,
						"slot": "0",
						"type": "t_mapping(t_address,t_uint256)"
					},
					{
						"astId": 80,
						"contract": "contracts/customERC.sol:customERC20",
						"label": "_allowances",
						"offset": 0,
						"slot": "1",
						"type": "t_mapping(t_address,t_mapping(t_address,t_uint256))"
					},
					{
						"astId": 82,
						"contract": "contracts/customERC.sol:customERC20",
						"label": "_totalSupply",
						"offset": 0,
						"slot": "2",
						"type": "t_uint256"
					},
					{
						"astId": 84,
						"contract": "contracts/customERC.sol:customERC20",
						"label": "_name",
						"offset": 0,
						"slot": "3",
						"type": "t_string_storage"
					},
					{
						"astId": 86,
						"contract": "contracts/customERC.sol:customERC20",
						"label": "_symbol",
						"offset": 0,
						"slot": "4",
						"type": "t_string_storage"
					}
				],
				"types": {
					"t_address": {
						"encoding": "inplace",
						"label": "address",
						"numberOfBytes": "20"
					},
					"t_mapping(t_address,t_mapping(t_address,t_uint256))": {
						"encoding": "mapping",
						"key": "t_address",
						"label": "mapping(address => mapping(address => uint256))",
						"numberOfBytes": "32",
						"value": "t_mapping(t_address,t_uint256)"
					},
					"t_mapping(t_address,t_uint256)": {
						"encoding": "mapping",
						"key": "t_address",
						"label": "mapping(address => uint256)",
						"numberOfBytes": "32",
						"value": "t_uint256"
					},
					"t_string_storage": {
						"encoding": "bytes",
						"label": "string",
						"numberOfBytes": "32"
					},
					"t_uint256": {
						"encoding": "inplace",
						"label": "uint256",
						"numberOfBytes": "32"
					}
				}
			},
			"userdoc": {
				"kind": "user",
				"methods": {},
				"version": 1
			}
		}
	}
}