{
	"contracts/maths.sol": {
		"maths": {
			"abi": [
				{
					"inputs": [
						{
							"internalType": "uint256",
							"name": "x",
							"type": "uint256"
						},
						{
							"internalType": "uint256",
							"name": "y",
							"type": "uint256"
						},
						{
							"internalType": "uint256",
							"name": "k",
							"type": "uint256"
						}
					],
					"name": "_addmod",
					"outputs": [
						{
							"internalType": "uint256",
							"name": "",
							"type": "uint256"
						}
					],
					"stateMutability": "pure",
					"type": "function"
				},
				{
					"inputs": [
						{
							"internalType": "uint256",
							"name": "x",
							"type": "uint256"
						},
						{
							"internalType": "uint256",
							"name": "y",
							"type": "uint256"
						},
						{
							"internalType": "uint256",
							"name": "k",
							"type": "uint256"
						}
					],
					"name": "_mulmod",
					"outputs": [
						{
							"internalType": "uint256",
							"name": "",
							"type": "uint256"
						}
					],
					"stateMutability": "pure",
					"type": "function"
				},
				{
					"inputs": [
						{
							"internalType": "uint256",
							"name": "a",
							"type": "uint256"
						},
						{
							"internalType": "uint256",
							"name": "b",
							"type": "uint256"
						}
					],
					"name": "div",
					"outputs": [
						{
							"internalType": "uint256",
							"name": "",
							"type": "uint256"
						}
					],
					"stateMutability": "pure",
					"type": "function"
				},
				{
					"inputs": [
						{
							"internalType": "uint256",
							"name": "a",
							"type": "uint256"
						},
						{
							"internalType": "uint256",
							"name": "b",
							"type": "uint256"
						}
					],
					"name": "expon",
					"outputs": [
						{
							"internalType": "uint256",
							"name": "",
							"type": "uint256"
						}
					],
					"stateMutability": "pure",
					"type": "function"
				},
				{
					"inputs": [
						{
							"internalType": "uint256",
							"name": "a",
							"type": "uint256"
						},
						{
							"internalType": "uint256",
							"name": "b",
							"type": "uint256"
						}
					],
					"name": "mod",
					"outputs": [
						{
							"internalType": "uint256",
							"name": "",
							"type": "uint256"
						}
					],
					"stateMutability": "pure",
					"type": "function"
				},
				{
					"inputs": [
						{
							"internalType": "uint256",
							"name": "a",
							"type": "uint256"
						},
						{
							"internalType": "uint256",
							"name": "b",
							"type": "uint256"
						}
					],
					"name": "prod",
					"outputs": [
						{
							"internalType": "uint256",
							"name": "",
							"type": "uint256"
						}
					],
					"stateMutability": "pure",
					"type": "function"
				},
				{
					"inputs": [
						{
							"internalType": "uint256",
							"name": "a",
							"type": "uint256"
						},
						{
							"internalType": "uint256",
							"name": "b",
							"type": "uint256"
						}
					],
					"name": "resta",
					"outputs": [
						{
							"internalType": "uint256",
							"name": "",
							"type": "uint256"
						}
					],
					"stateMutability": "pure",
					"type": "function"
				},
				{
					"inputs": [
						{
							"internalType": "uint256",
							"name": "a",
							"type": "uint256"
						},
						{
							"internalType": "uint256",
							"name": "b",
							"type": "uint256"
						}
					],
					"name": "suma",
					"outputs": [
						{
							"internalType": "uint256",
							"name": "",
							"type": "uint256"
						}
					],
					"stateMutability": "pure",
					"type": "function"
				}
			],
			"devdoc": {
				"kind": "dev",
				"methods": {},
				"version": 1
			},
			"evm": {
				"assembly": "    /* \"contracts/maths.sol\":60:928  contract maths {\r... */\n  mstore(0x40, 0x80)\n  callvalue\n  dup1\n  iszero\n  tag_1\n  jumpi\n  0x00\n  dup1\n  revert\ntag_1:\n  pop\n  dataSize(sub_0)\n  dup1\n  dataOffset(sub_0)\n  0x00\n  codecopy\n  0x00\n  return\nstop\n\nsub_0: assembly {\n        /* \"contracts/maths.sol\":60:928  contract maths {\r... */\n      mstore(0x40, 0x80)\n      callvalue\n      dup1\n      iszero\n      tag_1\n      jumpi\n      0x00\n      dup1\n      revert\n    tag_1:\n      pop\n      jumpi(tag_2, lt(calldatasize, 0x04))\n      shr(0xe0, calldataload(0x00))\n      dup1\n      0xb1b45b1b\n      gt\n      tag_11\n      jumpi\n      dup1\n      0xb1b45b1b\n      eq\n      tag_7\n      jumpi\n      dup1\n      0xdd125e37\n      eq\n      tag_8\n      jumpi\n      dup1\n      0xe989d9cc\n      eq\n      tag_9\n      jumpi\n      dup1\n      0xf43f523a\n      eq\n      tag_10\n      jumpi\n      jump(tag_2)\n    tag_11:\n      dup1\n      0x424bd620\n      eq\n      tag_3\n      jumpi\n      dup1\n      0x52f294bc\n      eq\n      tag_4\n      jumpi\n      dup1\n      0x871f9af4\n      eq\n      tag_5\n      jumpi\n      dup1\n      0xa391c15b\n      eq\n      tag_6\n      jumpi\n    tag_2:\n      0x00\n      dup1\n      revert\n        /* \"contracts/maths.sol\":273:360  function prod(uint a, uint b) public pure returns (uint){\r... */\n    tag_3:\n      tag_12\n      0x04\n      dup1\n      calldatasize\n      sub\n      dup2\n      add\n      swap1\n      tag_13\n      swap2\n      swap1\n      tag_14\n      jump\t// in\n    tag_13:\n      tag_15\n      jump\t// in\n    tag_12:\n      mload(0x40)\n      tag_16\n      swap2\n      swap1\n      tag_17\n      jump\t// in\n    tag_16:\n      mload(0x40)\n      dup1\n      swap2\n      sub\n      swap1\n      return\n        /* \"contracts/maths.sol\":177:265  function resta(uint a, uint b) public pure returns (uint){\r... */\n    tag_4:\n      tag_18\n      0x04\n      dup1\n      calldatasize\n      sub\n      dup2\n      add\n      swap1\n      tag_19\n      swap2\n      swap1\n      tag_14\n      jump\t// in\n    tag_19:\n      tag_20\n      jump\t// in\n    tag_18:\n      mload(0x40)\n      tag_21\n      swap2\n      swap1\n      tag_17\n      jump\t// in\n    tag_21:\n      mload(0x40)\n      dup1\n      swap2\n      sub\n      swap1\n      return\n        /* \"contracts/maths.sol\":817:925  function _mulmod(uint x, uint y, uint k) public pure returns (uint){\r... */\n    tag_5:\n      tag_22\n      0x04\n      dup1\n      calldatasize\n      sub\n      dup2\n      add\n      swap1\n      tag_23\n      swap2\n      swap1\n      tag_24\n      jump\t// in\n    tag_23:\n      tag_25\n      jump\t// in\n    tag_22:\n      mload(0x40)\n      tag_26\n      swap2\n      swap1\n      tag_17\n      jump\t// in\n    tag_26:\n      mload(0x40)\n      dup1\n      swap2\n      sub\n      swap1\n      return\n        /* \"contracts/maths.sol\":368:454  function div(uint a, uint b) public pure returns (uint){\r... */\n    tag_6:\n      tag_27\n      0x04\n      dup1\n      calldatasize\n      sub\n      dup2\n      add\n      swap1\n      tag_28\n      swap2\n      swap1\n      tag_14\n      jump\t// in\n    tag_28:\n      tag_29\n      jump\t// in\n    tag_27:\n      mload(0x40)\n      tag_30\n      swap2\n      swap1\n      tag_17\n      jump\t// in\n    tag_30:\n      mload(0x40)\n      dup1\n      swap2\n      sub\n      swap1\n      return\n        /* \"contracts/maths.sol\":82:169  function suma(uint a, uint b) public pure returns (uint){\r... */\n    tag_7:\n      tag_31\n      0x04\n      dup1\n      calldatasize\n      sub\n      dup2\n      add\n      swap1\n      tag_32\n      swap2\n      swap1\n      tag_14\n      jump\t// in\n    tag_32:\n      tag_33\n      jump\t// in\n    tag_31:\n      mload(0x40)\n      tag_34\n      swap2\n      swap1\n      tag_17\n      jump\t// in\n    tag_34:\n      mload(0x40)\n      dup1\n      swap2\n      sub\n      swap1\n      return\n        /* \"contracts/maths.sol\":677:785  function _addmod(uint x, uint y, uint k) public pure returns (uint){\r... */\n    tag_8:\n      tag_35\n      0x04\n      dup1\n      calldatasize\n      sub\n      dup2\n      add\n      swap1\n      tag_36\n      swap2\n      swap1\n      tag_24\n      jump\t// in\n    tag_36:\n      tag_37\n      jump\t// in\n    tag_35:\n      mload(0x40)\n      tag_38\n      swap2\n      swap1\n      tag_17\n      jump\t// in\n    tag_38:\n      mload(0x40)\n      dup1\n      swap2\n      sub\n      swap1\n      return\n        /* \"contracts/maths.sol\":462:551  function expon(uint a, uint b) public pure returns (uint){\r... */\n    tag_9:\n      tag_39\n      0x04\n      dup1\n      calldatasize\n      sub\n      dup2\n      add\n      swap1\n      tag_40\n      swap2\n      swap1\n      tag_14\n      jump\t// in\n    tag_40:\n      tag_41\n      jump\t// in\n    tag_39:\n      mload(0x40)\n      tag_42\n      swap2\n      swap1\n      tag_17\n      jump\t// in\n    tag_42:\n      mload(0x40)\n      dup1\n      swap2\n      sub\n      swap1\n      return\n        /* \"contracts/maths.sol\":559:645  function mod(uint a, uint b) public pure returns (uint){\r... */\n    tag_10:\n      tag_43\n      0x04\n      dup1\n      calldatasize\n      sub\n      dup2\n      add\n      swap1\n      tag_44\n      swap2\n      swap1\n      tag_14\n      jump\t// in\n    tag_44:\n      tag_45\n      jump\t// in\n    tag_43:\n      mload(0x40)\n      tag_46\n      swap2\n      swap1\n      tag_17\n      jump\t// in\n    tag_46:\n      mload(0x40)\n      dup1\n      swap2\n      sub\n      swap1\n      return\n        /* \"contracts/maths.sol\":273:360  function prod(uint a, uint b) public pure returns (uint){\r... */\n    tag_15:\n        /* \"contracts/maths.sol\":324:328  uint */\n      0x00\n        /* \"contracts/maths.sol\":351:352  b */\n      dup2\n        /* \"contracts/maths.sol\":347:348  a */\n      dup4\n        /* \"contracts/maths.sol\":347:352  a * b */\n      tag_48\n      swap2\n      swap1\n      tag_49\n      jump\t// in\n    tag_48:\n        /* \"contracts/maths.sol\":340:352  return a * b */\n      swap1\n      pop\n        /* \"contracts/maths.sol\":273:360  function prod(uint a, uint b) public pure returns (uint){\r... */\n      swap3\n      swap2\n      pop\n      pop\n      jump\t// out\n        /* \"contracts/maths.sol\":177:265  function resta(uint a, uint b) public pure returns (uint){\r... */\n    tag_20:\n        /* \"contracts/maths.sol\":229:233  uint */\n      0x00\n        /* \"contracts/maths.sol\":256:257  b */\n      dup2\n        /* \"contracts/maths.sol\":252:253  a */\n      dup4\n        /* \"contracts/maths.sol\":252:257  a - b */\n      tag_51\n      swap2\n      swap1\n      tag_52\n      jump\t// in\n    tag_51:\n        /* \"contracts/maths.sol\":245:257  return a - b */\n      swap1\n      pop\n        /* \"contracts/maths.sol\":177:265  function resta(uint a, uint b) public pure returns (uint){\r... */\n      swap3\n      swap2\n      pop\n      pop\n      jump\t// out\n        /* \"contracts/maths.sol\":817:925  function _mulmod(uint x, uint y, uint k) public pure returns (uint){\r... */\n    tag_25:\n        /* \"contracts/maths.sol\":879:883  uint */\n      0x00\n        /* \"contracts/maths.sol\":915:916  k */\n      dup2\n        /* \"contracts/maths.sol\":902:917  mulmod(x, y, k) */\n      dup1\n      tag_54\n      jumpi\n      mstore(0x00, 0x4e487b7100000000000000000000000000000000000000000000000000000000)\n      mstore(0x04, 0x12)\n      revert(0x00, 0x24)\n    tag_54:\n        /* \"contracts/maths.sol\":912:913  y */\n      dup4\n        /* \"contracts/maths.sol\":909:910  x */\n      dup6\n        /* \"contracts/maths.sol\":902:917  mulmod(x, y, k) */\n      mulmod\n        /* \"contracts/maths.sol\":895:917  return mulmod(x, y, k) */\n      swap1\n      pop\n        /* \"contracts/maths.sol\":817:925  function _mulmod(uint x, uint y, uint k) public pure returns (uint){\r... */\n      swap4\n      swap3\n      pop\n      pop\n      pop\n      jump\t// out\n        /* \"contracts/maths.sol\":368:454  function div(uint a, uint b) public pure returns (uint){\r... */\n    tag_29:\n        /* \"contracts/maths.sol\":418:422  uint */\n      0x00\n        /* \"contracts/maths.sol\":445:446  b */\n      dup2\n        /* \"contracts/maths.sol\":441:442  a */\n      dup4\n        /* \"contracts/maths.sol\":441:446  a / b */\n      tag_56\n      swap2\n      swap1\n      tag_57\n      jump\t// in\n    tag_56:\n        /* \"contracts/maths.sol\":434:446  return a / b */\n      swap1\n      pop\n        /* \"contracts/maths.sol\":368:454  function div(uint a, uint b) public pure returns (uint){\r... */\n      swap3\n      swap2\n      pop\n      pop\n      jump\t// out\n        /* \"contracts/maths.sol\":82:169  function suma(uint a, uint b) public pure returns (uint){\r... */\n    tag_33:\n        /* \"contracts/maths.sol\":133:137  uint */\n      0x00\n        /* \"contracts/maths.sol\":160:161  b */\n      dup2\n        /* \"contracts/maths.sol\":156:157  a */\n      dup4\n        /* \"contracts/maths.sol\":156:161  a + b */\n      tag_59\n      swap2\n      swap1\n      tag_60\n      jump\t// in\n    tag_59:\n        /* \"contracts/maths.sol\":149:161  return a + b */\n      swap1\n      pop\n        /* \"contracts/maths.sol\":82:169  function suma(uint a, uint b) public pure returns (uint){\r... */\n      swap3\n      swap2\n      pop\n      pop\n      jump\t// out\n        /* \"contracts/maths.sol\":677:785  function _addmod(uint x, uint y, uint k) public pure returns (uint){\r... */\n    tag_37:\n        /* \"contracts/maths.sol\":739:743  uint */\n      0x00\n        /* \"contracts/maths.sol\":775:776  k */\n      dup2\n        /* \"contracts/maths.sol\":762:777  addmod(x, y, k) */\n      dup1\n      tag_62\n      jumpi\n      mstore(0x00, 0x4e487b7100000000000000000000000000000000000000000000000000000000)\n      mstore(0x04, 0x12)\n      revert(0x00, 0x24)\n    tag_62:\n        /* \"contracts/maths.sol\":772:773  y */\n      dup4\n        /* \"contracts/maths.sol\":769:770  x */\n      dup6\n        /* \"contracts/maths.sol\":762:777  addmod(x, y, k) */\n      addmod\n        /* \"contracts/maths.sol\":755:777  return addmod(x, y, k) */\n      swap1\n      pop\n        /* \"contracts/maths.sol\":677:785  function _addmod(uint x, uint y, uint k) public pure returns (uint){\r... */\n      swap4\n      swap3\n      pop\n      pop\n      pop\n      jump\t// out\n        /* \"contracts/maths.sol\":462:551  function expon(uint a, uint b) public pure returns (uint){\r... */\n    tag_41:\n        /* \"contracts/maths.sol\":514:518  uint */\n      0x00\n        /* \"contracts/maths.sol\":542:543  b */\n      dup2\n        /* \"contracts/maths.sol\":537:538  a */\n      dup4\n        /* \"contracts/maths.sol\":537:543  a ** b */\n      tag_64\n      swap2\n      swap1\n      tag_65\n      jump\t// in\n    tag_64:\n        /* \"contracts/maths.sol\":530:543  return a ** b */\n      swap1\n      pop\n        /* \"contracts/maths.sol\":462:551  function expon(uint a, uint b) public pure returns (uint){\r... */\n      swap3\n      swap2\n      pop\n      pop\n      jump\t// out\n        /* \"contracts/maths.sol\":559:645  function mod(uint a, uint b) public pure returns (uint){\r... */\n    tag_45:\n        /* \"contracts/maths.sol\":609:613  uint */\n      0x00\n        /* \"contracts/maths.sol\":636:637  b */\n      dup2\n        /* \"contracts/maths.sol\":632:633  a */\n      dup4\n        /* \"contracts/maths.sol\":632:637  a % b */\n      tag_67\n      swap2\n      swap1\n      tag_68\n      jump\t// in\n    tag_67:\n        /* \"contracts/maths.sol\":625:637  return a % b */\n      swap1\n      pop\n        /* \"contracts/maths.sol\":559:645  function mod(uint a, uint b) public pure returns (uint){\r... */\n      swap3\n      swap2\n      pop\n      pop\n      jump\t// out\n        /* \"#utility.yul\":7:146   */\n    tag_70:\n        /* \"#utility.yul\":53:58   */\n      0x00\n        /* \"#utility.yul\":91:97   */\n      dup2\n        /* \"#utility.yul\":78:98   */\n      calldataload\n        /* \"#utility.yul\":69:98   */\n      swap1\n      pop\n        /* \"#utility.yul\":107:140   */\n      tag_72\n        /* \"#utility.yul\":134:139   */\n      dup2\n        /* \"#utility.yul\":107:140   */\n      tag_73\n      jump\t// in\n    tag_72:\n        /* \"#utility.yul\":59:146   */\n      swap3\n      swap2\n      pop\n      pop\n      jump\t// out\n        /* \"#utility.yul\":152:559   */\n    tag_14:\n        /* \"#utility.yul\":220:226   */\n      0x00\n        /* \"#utility.yul\":228:234   */\n      dup1\n        /* \"#utility.yul\":277:279   */\n      0x40\n        /* \"#utility.yul\":265:274   */\n      dup4\n        /* \"#utility.yul\":256:263   */\n      dup6\n        /* \"#utility.yul\":252:275   */\n      sub\n        /* \"#utility.yul\":248:280   */\n      slt\n        /* \"#utility.yul\":245:247   */\n      iszero\n      tag_75\n      jumpi\n        /* \"#utility.yul\":293:294   */\n      0x00\n        /* \"#utility.yul\":290:291   */\n      dup1\n        /* \"#utility.yul\":283:295   */\n      revert\n        /* \"#utility.yul\":245:247   */\n    tag_75:\n        /* \"#utility.yul\":336:337   */\n      0x00\n        /* \"#utility.yul\":361:414   */\n      tag_76\n        /* \"#utility.yul\":406:413   */\n      dup6\n        /* \"#utility.yul\":397:403   */\n      dup3\n        /* \"#utility.yul\":386:395   */\n      dup7\n        /* \"#utility.yul\":382:404   */\n      add\n        /* \"#utility.yul\":361:414   */\n      tag_70\n      jump\t// in\n    tag_76:\n        /* \"#utility.yul\":351:414   */\n      swap3\n      pop\n        /* \"#utility.yul\":307:424   */\n      pop\n        /* \"#utility.yul\":463:465   */\n      0x20\n        /* \"#utility.yul\":489:542   */\n      tag_77\n        /* \"#utility.yul\":534:541   */\n      dup6\n        /* \"#utility.yul\":525:531   */\n      dup3\n        /* \"#utility.yul\":514:523   */\n      dup7\n        /* \"#utility.yul\":510:532   */\n      add\n        /* \"#utility.yul\":489:542   */\n      tag_70\n      jump\t// in\n    tag_77:\n        /* \"#utility.yul\":479:542   */\n      swap2\n      pop\n        /* \"#utility.yul\":434:552   */\n      pop\n        /* \"#utility.yul\":235:559   */\n      swap3\n      pop\n      swap3\n      swap1\n      pop\n      jump\t// out\n        /* \"#utility.yul\":565:1117   */\n    tag_24:\n        /* \"#utility.yul\":642:648   */\n      0x00\n        /* \"#utility.yul\":650:656   */\n      dup1\n        /* \"#utility.yul\":658:664   */\n      0x00\n        /* \"#utility.yul\":707:709   */\n      0x60\n        /* \"#utility.yul\":695:704   */\n      dup5\n        /* \"#utility.yul\":686:693   */\n      dup7\n        /* \"#utility.yul\":682:705   */\n      sub\n        /* \"#utility.yul\":678:710   */\n      slt\n        /* \"#utility.yul\":675:677   */\n      iszero\n      tag_79\n      jumpi\n        /* \"#utility.yul\":723:724   */\n      0x00\n        /* \"#utility.yul\":720:721   */\n      dup1\n        /* \"#utility.yul\":713:725   */\n      revert\n        /* \"#utility.yul\":675:677   */\n    tag_79:\n        /* \"#utility.yul\":766:767   */\n      0x00\n        /* \"#utility.yul\":791:844   */\n      tag_80\n        /* \"#utility.yul\":836:843   */\n      dup7\n        /* \"#utility.yul\":827:833   */\n      dup3\n        /* \"#utility.yul\":816:825   */\n      dup8\n        /* \"#utility.yul\":812:834   */\n      add\n        /* \"#utility.yul\":791:844   */\n      tag_70\n      jump\t// in\n    tag_80:\n        /* \"#utility.yul\":781:844   */\n      swap4\n      pop\n        /* \"#utility.yul\":737:854   */\n      pop\n        /* \"#utility.yul\":893:895   */\n      0x20\n        /* \"#utility.yul\":919:972   */\n      tag_81\n        /* \"#utility.yul\":964:971   */\n      dup7\n        /* \"#utility.yul\":955:961   */\n      dup3\n        /* \"#utility.yul\":944:953   */\n      dup8\n        /* \"#utility.yul\":940:962   */\n      add\n        /* \"#utility.yul\":919:972   */\n      tag_70\n      jump\t// in\n    tag_81:\n        /* \"#utility.yul\":909:972   */\n      swap3\n      pop\n        /* \"#utility.yul\":864:982   */\n      pop\n        /* \"#utility.yul\":1021:1023   */\n      0x40\n        /* \"#utility.yul\":1047:1100   */\n      tag_82\n        /* \"#utility.yul\":1092:1099   */\n      dup7\n        /* \"#utility.yul\":1083:1089   */\n      dup3\n        /* \"#utility.yul\":1072:1081   */\n      dup8\n        /* \"#utility.yul\":1068:1090   */\n      add\n        /* \"#utility.yul\":1047:1100   */\n      tag_70\n      jump\t// in\n    tag_82:\n        /* \"#utility.yul\":1037:1100   */\n      swap2\n      pop\n        /* \"#utility.yul\":992:1110   */\n      pop\n        /* \"#utility.yul\":665:1117   */\n      swap3\n      pop\n      swap3\n      pop\n      swap3\n      jump\t// out\n        /* \"#utility.yul\":1123:1241   */\n    tag_83:\n        /* \"#utility.yul\":1210:1234   */\n      tag_85\n        /* \"#utility.yul\":1228:1233   */\n      dup2\n        /* \"#utility.yul\":1210:1234   */\n      tag_86\n      jump\t// in\n    tag_85:\n        /* \"#utility.yul\":1205:1208   */\n      dup3\n        /* \"#utility.yul\":1198:1235   */\n      mstore\n        /* \"#utility.yul\":1188:1241   */\n      pop\n      pop\n      jump\t// out\n        /* \"#utility.yul\":1247:1469   */\n    tag_17:\n        /* \"#utility.yul\":1340:1344   */\n      0x00\n        /* \"#utility.yul\":1378:1380   */\n      0x20\n        /* \"#utility.yul\":1367:1376   */\n      dup3\n        /* \"#utility.yul\":1363:1381   */\n      add\n        /* \"#utility.yul\":1355:1381   */\n      swap1\n      pop\n        /* \"#utility.yul\":1391:1462   */\n      tag_88\n        /* \"#utility.yul\":1459:1460   */\n      0x00\n        /* \"#utility.yul\":1448:1457   */\n      dup4\n        /* \"#utility.yul\":1444:1461   */\n      add\n        /* \"#utility.yul\":1435:1441   */\n      dup5\n        /* \"#utility.yul\":1391:1462   */\n      tag_83\n      jump\t// in\n    tag_88:\n        /* \"#utility.yul\":1345:1469   */\n      swap3\n      swap2\n      pop\n      pop\n      jump\t// out\n        /* \"#utility.yul\":1475:1780   */\n    tag_60:\n        /* \"#utility.yul\":1515:1518   */\n      0x00\n        /* \"#utility.yul\":1534:1554   */\n      tag_90\n        /* \"#utility.yul\":1552:1553   */\n      dup3\n        /* \"#utility.yul\":1534:1554   */\n      tag_86\n      jump\t// in\n    tag_90:\n        /* \"#utility.yul\":1529:1554   */\n      swap2\n      pop\n        /* \"#utility.yul\":1568:1588   */\n      tag_91\n        /* \"#utility.yul\":1586:1587   */\n      dup4\n        /* \"#utility.yul\":1568:1588   */\n      tag_86\n      jump\t// in\n    tag_91:\n        /* \"#utility.yul\":1563:1588   */\n      swap3\n      pop\n        /* \"#utility.yul\":1722:1723   */\n      dup3\n        /* \"#utility.yul\":1654:1720   */\n      0xffffffffffffffffffffffffffffffffffffffffffffffffffffffffffffffff\n        /* \"#utility.yul\":1650:1724   */\n      sub\n        /* \"#utility.yul\":1647:1648   */\n      dup3\n        /* \"#utility.yul\":1644:1725   */\n      gt\n        /* \"#utility.yul\":1641:1643   */\n      iszero\n      tag_92\n      jumpi\n        /* \"#utility.yul\":1728:1746   */\n      tag_93\n      tag_94\n      jump\t// in\n    tag_93:\n        /* \"#utility.yul\":1641:1643   */\n    tag_92:\n        /* \"#utility.yul\":1772:1773   */\n      dup3\n        /* \"#utility.yul\":1769:1770   */\n      dup3\n        /* \"#utility.yul\":1765:1774   */\n      add\n        /* \"#utility.yul\":1758:1774   */\n      swap1\n      pop\n        /* \"#utility.yul\":1519:1780   */\n      swap3\n      swap2\n      pop\n      pop\n      jump\t// out\n        /* \"#utility.yul\":1786:1971   */\n    tag_57:\n        /* \"#utility.yul\":1826:1827   */\n      0x00\n        /* \"#utility.yul\":1843:1863   */\n      tag_96\n        /* \"#utility.yul\":1861:1862   */\n      dup3\n        /* \"#utility.yul\":1843:1863   */\n      tag_86\n      jump\t// in\n    tag_96:\n        /* \"#utility.yul\":1838:1863   */\n      swap2\n      pop\n        /* \"#utility.yul\":1877:1897   */\n      tag_97\n        /* \"#utility.yul\":1895:1896   */\n      dup4\n        /* \"#utility.yul\":1877:1897   */\n      tag_86\n      jump\t// in\n    tag_97:\n        /* \"#utility.yul\":1872:1897   */\n      swap3\n      pop\n        /* \"#utility.yul\":1916:1917   */\n      dup3\n        /* \"#utility.yul\":1906:1908   */\n      tag_98\n      jumpi\n        /* \"#utility.yul\":1921:1939   */\n      tag_99\n      tag_100\n      jump\t// in\n    tag_99:\n        /* \"#utility.yul\":1906:1908   */\n    tag_98:\n        /* \"#utility.yul\":1963:1964   */\n      dup3\n        /* \"#utility.yul\":1960:1961   */\n      dup3\n        /* \"#utility.yul\":1956:1965   */\n      div\n        /* \"#utility.yul\":1951:1965   */\n      swap1\n      pop\n        /* \"#utility.yul\":1828:1971   */\n      swap3\n      swap2\n      pop\n      pop\n      jump\t// out\n        /* \"#utility.yul\":1977:2825   */\n    tag_101:\n        /* \"#utility.yul\":2038:2043   */\n      0x00\n        /* \"#utility.yul\":2045:2049   */\n      dup1\n        /* \"#utility.yul\":2069:2075   */\n      dup3\n        /* \"#utility.yul\":2060:2075   */\n      swap2\n      pop\n        /* \"#utility.yul\":2093:2098   */\n      dup4\n        /* \"#utility.yul\":2084:2098   */\n      swap1\n      pop\n        /* \"#utility.yul\":2107:2819   */\n    tag_103:\n        /* \"#utility.yul\":2128:2129   */\n      0x01\n        /* \"#utility.yul\":2118:2126   */\n      dup6\n        /* \"#utility.yul\":2115:2130   */\n      gt\n        /* \"#utility.yul\":2107:2819   */\n      iszero\n      tag_105\n      jumpi\n        /* \"#utility.yul\":2223:2227   */\n      dup1\n        /* \"#utility.yul\":2218:2221   */\n      dup7\n        /* \"#utility.yul\":2214:2228   */\n      div\n        /* \"#utility.yul\":2208:2212   */\n      dup2\n        /* \"#utility.yul\":2205:2229   */\n      gt\n        /* \"#utility.yul\":2202:2204   */\n      iszero\n      tag_106\n      jumpi\n        /* \"#utility.yul\":2232:2250   */\n      tag_107\n      tag_94\n      jump\t// in\n    tag_107:\n        /* \"#utility.yul\":2202:2204   */\n    tag_106:\n        /* \"#utility.yul\":2282:2283   */\n      0x01\n        /* \"#utility.yul\":2272:2280   */\n      dup6\n        /* \"#utility.yul\":2268:2284   */\n      and\n        /* \"#utility.yul\":2265:2267   */\n      iszero\n      tag_108\n      jumpi\n        /* \"#utility.yul\":2697:2701   */\n      dup1\n        /* \"#utility.yul\":2690:2695   */\n      dup3\n        /* \"#utility.yul\":2686:2702   */\n      mul\n        /* \"#utility.yul\":2677:2702   */\n      swap2\n      pop\n        /* \"#utility.yul\":2265:2267   */\n    tag_108:\n        /* \"#utility.yul\":2747:2751   */\n      dup1\n        /* \"#utility.yul\":2741:2745   */\n      dup2\n        /* \"#utility.yul\":2737:2752   */\n      mul\n        /* \"#utility.yul\":2729:2752   */\n      swap1\n      pop\n        /* \"#utility.yul\":2777:2809   */\n      tag_109\n        /* \"#utility.yul\":2800:2808   */\n      dup6\n        /* \"#utility.yul\":2777:2809   */\n      tag_110\n      jump\t// in\n    tag_109:\n        /* \"#utility.yul\":2765:2809   */\n      swap5\n      pop\n        /* \"#utility.yul\":2107:2819   */\n      jump(tag_103)\n    tag_105:\n        /* \"#utility.yul\":2050:2825   */\n      swap5\n      pop\n      swap5\n      swap3\n      pop\n      pop\n      pop\n      jump\t// out\n        /* \"#utility.yul\":2831:3116   */\n    tag_65:\n        /* \"#utility.yul\":2891:2896   */\n      0x00\n        /* \"#utility.yul\":2915:2938   */\n      tag_112\n        /* \"#utility.yul\":2933:2937   */\n      dup3\n        /* \"#utility.yul\":2915:2938   */\n      tag_86\n      jump\t// in\n    tag_112:\n        /* \"#utility.yul\":2907:2938   */\n      swap2\n      pop\n        /* \"#utility.yul\":2959:2986   */\n      tag_113\n        /* \"#utility.yul\":2977:2985   */\n      dup4\n        /* \"#utility.yul\":2959:2986   */\n      tag_86\n      jump\t// in\n    tag_113:\n        /* \"#utility.yul\":2947:2986   */\n      swap3\n      pop\n        /* \"#utility.yul\":3005:3109   */\n      tag_114\n        /* \"#utility.yul\":3042:3108   */\n      0xffffffffffffffffffffffffffffffffffffffffffffffffffffffffffffffff\n        /* \"#utility.yul\":3032:3040   */\n      dup5\n        /* \"#utility.yul\":3026:3030   */\n      dup5\n        /* \"#utility.yul\":3005:3109   */\n      tag_115\n      jump\t// in\n    tag_114:\n        /* \"#utility.yul\":2996:3109   */\n      swap1\n      pop\n        /* \"#utility.yul\":2897:3116   */\n      swap3\n      swap2\n      pop\n      pop\n      jump\t// out\n        /* \"#utility.yul\":3122:4195   */\n    tag_115:\n        /* \"#utility.yul\":3176:3181   */\n      0x00\n        /* \"#utility.yul\":3367:3375   */\n      dup3\n        /* \"#utility.yul\":3357:3359   */\n      tag_117\n      jumpi\n        /* \"#utility.yul\":3388:3389   */\n      0x01\n        /* \"#utility.yul\":3379:3389   */\n      swap1\n      pop\n        /* \"#utility.yul\":3390:3395   */\n      jump(tag_116)\n        /* \"#utility.yul\":3357:3359   */\n    tag_117:\n        /* \"#utility.yul\":3416:3420   */\n      dup2\n        /* \"#utility.yul\":3406:3408   */\n      tag_118\n      jumpi\n        /* \"#utility.yul\":3433:3434   */\n      0x00\n        /* \"#utility.yul\":3424:3434   */\n      swap1\n      pop\n        /* \"#utility.yul\":3435:3440   */\n      jump(tag_116)\n        /* \"#utility.yul\":3406:3408   */\n    tag_118:\n        /* \"#utility.yul\":3502:3506   */\n      dup2\n        /* \"#utility.yul\":3550:3551   */\n      0x01\n        /* \"#utility.yul\":3545:3572   */\n      dup2\n      eq\n      tag_120\n      jumpi\n        /* \"#utility.yul\":3586:3587   */\n      0x02\n        /* \"#utility.yul\":3581:3772   */\n      dup2\n      eq\n      tag_121\n      jumpi\n        /* \"#utility.yul\":3495:3772   */\n      jump(tag_119)\n        /* \"#utility.yul\":3545:3572   */\n    tag_120:\n        /* \"#utility.yul\":3563:3564   */\n      0x01\n        /* \"#utility.yul\":3554:3564   */\n      swap2\n      pop\n        /* \"#utility.yul\":3565:3570   */\n      pop\n      jump(tag_116)\n        /* \"#utility.yul\":3581:3772   */\n    tag_121:\n        /* \"#utility.yul\":3626:3629   */\n      0xff\n        /* \"#utility.yul\":3616:3624   */\n      dup5\n        /* \"#utility.yul\":3613:3630   */\n      gt\n        /* \"#utility.yul\":3610:3612   */\n      iszero\n      tag_122\n      jumpi\n        /* \"#utility.yul\":3633:3651   */\n      tag_123\n      tag_94\n      jump\t// in\n    tag_123:\n        /* \"#utility.yul\":3610:3612   */\n    tag_122:\n        /* \"#utility.yul\":3682:3690   */\n      dup4\n        /* \"#utility.yul\":3679:3680   */\n      0x02\n        /* \"#utility.yul\":3675:3691   */\n      exp\n        /* \"#utility.yul\":3666:3691   */\n      swap2\n      pop\n        /* \"#utility.yul\":3717:3720   */\n      dup5\n        /* \"#utility.yul\":3710:3715   */\n      dup3\n        /* \"#utility.yul\":3707:3721   */\n      gt\n        /* \"#utility.yul\":3704:3706   */\n      iszero\n      tag_124\n      jumpi\n        /* \"#utility.yul\":3724:3742   */\n      tag_125\n      tag_94\n      jump\t// in\n    tag_125:\n        /* \"#utility.yul\":3704:3706   */\n    tag_124:\n        /* \"#utility.yul\":3757:3762   */\n      pop\n      jump(tag_116)\n        /* \"#utility.yul\":3495:3772   */\n    tag_119:\n      pop\n        /* \"#utility.yul\":3881:3883   */\n      0x20\n        /* \"#utility.yul\":3871:3879   */\n      dup4\n        /* \"#utility.yul\":3868:3884   */\n      lt\n        /* \"#utility.yul\":3862:3865   */\n      0x0133\n        /* \"#utility.yul\":3856:3860   */\n      dup4\n        /* \"#utility.yul\":3853:3866   */\n      lt\n        /* \"#utility.yul\":3849:3885   */\n      and\n        /* \"#utility.yul\":3831:3833   */\n      0x4e\n        /* \"#utility.yul\":3821:3829   */\n      dup5\n        /* \"#utility.yul\":3818:3834   */\n      lt\n        /* \"#utility.yul\":3813:3815   */\n      0x0b\n        /* \"#utility.yul\":3807:3811   */\n      dup5\n        /* \"#utility.yul\":3804:3816   */\n      lt\n        /* \"#utility.yul\":3800:3835   */\n      and\n        /* \"#utility.yul\":3784:3895   */\n      or\n        /* \"#utility.yul\":3781:3783   */\n      iszero\n      tag_126\n      jumpi\n        /* \"#utility.yul\":3937:3945   */\n      dup3\n        /* \"#utility.yul\":3931:3935   */\n      dup3\n        /* \"#utility.yul\":3927:3946   */\n      exp\n        /* \"#utility.yul\":3918:3946   */\n      swap1\n      pop\n        /* \"#utility.yul\":3972:3975   */\n      dup4\n        /* \"#utility.yul\":3965:3970   */\n      dup2\n        /* \"#utility.yul\":3962:3976   */\n      gt\n        /* \"#utility.yul\":3959:3961   */\n      iszero\n      tag_127\n      jumpi\n        /* \"#utility.yul\":3979:3997   */\n      tag_128\n      tag_94\n      jump\t// in\n    tag_128:\n        /* \"#utility.yul\":3959:3961   */\n    tag_127:\n        /* \"#utility.yul\":4012:4017   */\n      jump(tag_116)\n        /* \"#utility.yul\":3781:3783   */\n    tag_126:\n        /* \"#utility.yul\":4052:4094   */\n      tag_129\n        /* \"#utility.yul\":4090:4093   */\n      dup5\n        /* \"#utility.yul\":4080:4088   */\n      dup5\n        /* \"#utility.yul\":4074:4078   */\n      dup5\n        /* \"#utility.yul\":4071:4072   */\n      0x01\n        /* \"#utility.yul\":4052:4094   */\n      tag_101\n      jump\t// in\n    tag_129:\n        /* \"#utility.yul\":4037:4094   */\n      swap3\n      pop\n      swap1\n      pop\n        /* \"#utility.yul\":4126:4130   */\n      dup2\n        /* \"#utility.yul\":4121:4124   */\n      dup5\n        /* \"#utility.yul\":4117:4131   */\n      div\n        /* \"#utility.yul\":4110:4115   */\n      dup2\n        /* \"#utility.yul\":4107:4132   */\n      gt\n        /* \"#utility.yul\":4104:4106   */\n      iszero\n      tag_130\n      jumpi\n        /* \"#utility.yul\":4135:4153   */\n      tag_131\n      tag_94\n      jump\t// in\n    tag_131:\n        /* \"#utility.yul\":4104:4106   */\n    tag_130:\n        /* \"#utility.yul\":4184:4188   */\n      dup2\n        /* \"#utility.yul\":4177:4182   */\n      dup2\n        /* \"#utility.yul\":4173:4189   */\n      mul\n        /* \"#utility.yul\":4164:4189   */\n      swap1\n      pop\n        /* \"#utility.yul\":3182:4195   */\n    tag_116:\n      swap4\n      swap3\n      pop\n      pop\n      pop\n      jump\t// out\n        /* \"#utility.yul\":4201:4549   */\n    tag_49:\n        /* \"#utility.yul\":4241:4248   */\n      0x00\n        /* \"#utility.yul\":4264:4284   */\n      tag_133\n        /* \"#utility.yul\":4282:4283   */\n      dup3\n        /* \"#utility.yul\":4264:4284   */\n      tag_86\n      jump\t// in\n    tag_133:\n        /* \"#utility.yul\":4259:4284   */\n      swap2\n      pop\n        /* \"#utility.yul\":4298:4318   */\n      tag_134\n        /* \"#utility.yul\":4316:4317   */\n      dup4\n        /* \"#utility.yul\":4298:4318   */\n      tag_86\n      jump\t// in\n    tag_134:\n        /* \"#utility.yul\":4293:4318   */\n      swap3\n      pop\n        /* \"#utility.yul\":4486:4487   */\n      dup2\n        /* \"#utility.yul\":4418:4484   */\n      0xffffffffffffffffffffffffffffffffffffffffffffffffffffffffffffffff\n        /* \"#utility.yul\":4414:4488   */\n      div\n        /* \"#utility.yul\":4411:4412   */\n      dup4\n        /* \"#utility.yul\":4408:4489   */\n      gt\n        /* \"#utility.yul\":4403:4404   */\n      dup3\n        /* \"#utility.yul\":4396:4405   */\n      iszero\n        /* \"#utility.yul\":4389:4406   */\n      iszero\n        /* \"#utility.yul\":4385:4490   */\n      and\n        /* \"#utility.yul\":4382:4384   */\n      iszero\n      tag_135\n      jumpi\n        /* \"#utility.yul\":4493:4511   */\n      tag_136\n      tag_94\n      jump\t// in\n    tag_136:\n        /* \"#utility.yul\":4382:4384   */\n    tag_135:\n        /* \"#utility.yul\":4541:4542   */\n      dup3\n        /* \"#utility.yul\":4538:4539   */\n      dup3\n        /* \"#utility.yul\":4534:4543   */\n      mul\n        /* \"#utility.yul\":4523:4543   */\n      swap1\n      pop\n        /* \"#utility.yul\":4249:4549   */\n      swap3\n      swap2\n      pop\n      pop\n      jump\t// out\n        /* \"#utility.yul\":4555:4746   */\n    tag_52:\n        /* \"#utility.yul\":4595:4599   */\n      0x00\n        /* \"#utility.yul\":4615:4635   */\n      tag_138\n        /* \"#utility.yul\":4633:4634   */\n      dup3\n        /* \"#utility.yul\":4615:4635   */\n      tag_86\n      jump\t// in\n    tag_138:\n        /* \"#utility.yul\":4610:4635   */\n      swap2\n      pop\n        /* \"#utility.yul\":4649:4669   */\n      tag_139\n        /* \"#utility.yul\":4667:4668   */\n      dup4\n        /* \"#utility.yul\":4649:4669   */\n      tag_86\n      jump\t// in\n    tag_139:\n        /* \"#utility.yul\":4644:4669   */\n      swap3\n      pop\n        /* \"#utility.yul\":4688:4689   */\n      dup3\n        /* \"#utility.yul\":4685:4686   */\n      dup3\n        /* \"#utility.yul\":4682:4690   */\n      lt\n        /* \"#utility.yul\":4679:4681   */\n      iszero\n      tag_140\n      jumpi\n        /* \"#utility.yul\":4693:4711   */\n      tag_141\n      tag_94\n      jump\t// in\n    tag_141:\n        /* \"#utility.yul\":4679:4681   */\n    tag_140:\n        /* \"#utility.yul\":4738:4739   */\n      dup3\n        /* \"#utility.yul\":4735:4736   */\n      dup3\n        /* \"#utility.yul\":4731:4740   */\n      sub\n        /* \"#utility.yul\":4723:4740   */\n      swap1\n      pop\n        /* \"#utility.yul\":4600:4746   */\n      swap3\n      swap2\n      pop\n      pop\n      jump\t// out\n        /* \"#utility.yul\":4752:4829   */\n    tag_86:\n        /* \"#utility.yul\":4789:4796   */\n      0x00\n        /* \"#utility.yul\":4818:4823   */\n      dup2\n        /* \"#utility.yul\":4807:4823   */\n      swap1\n      pop\n        /* \"#utility.yul\":4797:4829   */\n      swap2\n      swap1\n      pop\n      jump\t// out\n        /* \"#utility.yul\":4835:5011   */\n    tag_68:\n        /* \"#utility.yul\":4867:4868   */\n      0x00\n        /* \"#utility.yul\":4884:4904   */\n      tag_144\n        /* \"#utility.yul\":4902:4903   */\n      dup3\n        /* \"#utility.yul\":4884:4904   */\n      tag_86\n      jump\t// in\n    tag_144:\n        /* \"#utility.yul\":4879:4904   */\n      swap2\n      pop\n        /* \"#utility.yul\":4918:4938   */\n      tag_145\n        /* \"#utility.yul\":4936:4937   */\n      dup4\n        /* \"#utility.yul\":4918:4938   */\n      tag_86\n      jump\t// in\n    tag_145:\n        /* \"#utility.yul\":4913:4938   */\n      swap3\n      pop\n        /* \"#utility.yul\":4957:4958   */\n      dup3\n        /* \"#utility.yul\":4947:4949   */\n      tag_146\n      jumpi\n        /* \"#utility.yul\":4962:4980   */\n      tag_147\n      tag_100\n      jump\t// in\n    tag_147:\n        /* \"#utility.yul\":4947:4949   */\n    tag_146:\n        /* \"#utility.yul\":5003:5004   */\n      dup3\n        /* \"#utility.yul\":5000:5001   */\n      dup3\n        /* \"#utility.yul\":4996:5005   */\n      mod\n        /* \"#utility.yul\":4991:5005   */\n      swap1\n      pop\n        /* \"#utility.yul\":4869:5011   */\n      swap3\n      swap2\n      pop\n      pop\n      jump\t// out\n        /* \"#utility.yul\":5017:5197   */\n    tag_94:\n        /* \"#utility.yul\":5065:5142   */\n      0x4e487b7100000000000000000000000000000000000000000000000000000000\n        /* \"#utility.yul\":5062:5063   */\n      0x00\n        /* \"#utility.yul\":5055:5143   */\n      mstore\n        /* \"#utility.yul\":5162:5166   */\n      0x11\n        /* \"#utility.yul\":5159:5160   */\n      0x04\n        /* \"#utility.yul\":5152:5167   */\n      mstore\n        /* \"#utility.yul\":5186:5190   */\n      0x24\n        /* \"#utility.yul\":5183:5184   */\n      0x00\n        /* \"#utility.yul\":5176:5191   */\n      revert\n        /* \"#utility.yul\":5203:5383   */\n    tag_100:\n        /* \"#utility.yul\":5251:5328   */\n      0x4e487b7100000000000000000000000000000000000000000000000000000000\n        /* \"#utility.yul\":5248:5249   */\n      0x00\n        /* \"#utility.yul\":5241:5329   */\n      mstore\n        /* \"#utility.yul\":5348:5352   */\n      0x12\n        /* \"#utility.yul\":5345:5346   */\n      0x04\n        /* \"#utility.yul\":5338:5353   */\n      mstore\n        /* \"#utility.yul\":5372:5376   */\n      0x24\n        /* \"#utility.yul\":5369:5370   */\n      0x00\n        /* \"#utility.yul\":5362:5377   */\n      revert\n        /* \"#utility.yul\":5389:5491   */\n    tag_110:\n        /* \"#utility.yul\":5431:5439   */\n      0x00\n        /* \"#utility.yul\":5478:5483   */\n      dup2\n        /* \"#utility.yul\":5475:5476   */\n      0x01\n        /* \"#utility.yul\":5471:5484   */\n      shr\n        /* \"#utility.yul\":5450:5484   */\n      swap1\n      pop\n        /* \"#utility.yul\":5440:5491   */\n      swap2\n      swap1\n      pop\n      jump\t// out\n        /* \"#utility.yul\":5497:5619   */\n    tag_73:\n        /* \"#utility.yul\":5570:5594   */\n      tag_152\n        /* \"#utility.yul\":5588:5593   */\n      dup2\n        /* \"#utility.yul\":5570:5594   */\n      tag_86\n      jump\t// in\n    tag_152:\n        /* \"#utility.yul\":5563:5568   */\n      dup2\n        /* \"#utility.yul\":5560:5595   */\n      eq\n        /* \"#utility.yul\":5550:5552   */\n      tag_153\n      jumpi\n        /* \"#utility.yul\":5609:5610   */\n      0x00\n        /* \"#utility.yul\":5606:5607   */\n      dup1\n        /* \"#utility.yul\":5599:5611   */\n      revert\n        /* \"#utility.yul\":5550:5552   */\n    tag_153:\n        /* \"#utility.yul\":5540:5619   */\n      pop\n      jump\t// out\n\n    auxdata: 0xa26469706673582212201bdbf448838c50f074d14993e26e2906014e32a13b9f1d7a9211b338697f9d2a64736f6c63430008040033\n}\n",
				"bytecode": {
					"linkReferences": {},
					"object": "608060405234801561001057600080fd5b5061075a806100206000396000f3fe608060405234801561001057600080fd5b50600436106100885760003560e01c8063b1b45b1b1161005b578063b1b45b1b1461014d578063dd125e371461017d578063e989d9cc146101ad578063f43f523a146101dd57610088565b8063424bd6201461008d57806352f294bc146100bd578063871f9af4146100ed578063a391c15b1461011d575b600080fd5b6100a760048036038101906100a2919061032c565b61020d565b6040516100b491906103c6565b60405180910390f35b6100d760048036038101906100d2919061032c565b610223565b6040516100e491906103c6565b60405180910390f35b61010760048036038101906101029190610368565b610239565b60405161011491906103c6565b60405180910390f35b6101376004803603810190610132919061032c565b61027c565b60405161014491906103c6565b60405180910390f35b6101676004803603810190610162919061032c565b610292565b60405161017491906103c6565b60405180910390f35b61019760048036038101906101929190610368565b6102a8565b6040516101a491906103c6565b60405180910390f35b6101c760048036038101906101c2919061032c565b6102eb565b6040516101d491906103c6565b60405180910390f35b6101f760048036038101906101f2919061032c565b610301565b60405161020491906103c6565b60405180910390f35b6000818361021b91906105d9565b905092915050565b600081836102319190610633565b905092915050565b60008180610270577f4e487b7100000000000000000000000000000000000000000000000000000000600052601260045260246000fd5b83850990509392505050565b6000818361028a9190610437565b905092915050565b600081836102a091906103e1565b905092915050565b600081806102df577f4e487b7100000000000000000000000000000000000000000000000000000000600052601260045260246000fd5b83850890509392505050565b600081836102f991906104bb565b905092915050565b6000818361030f9190610671565b905092915050565b6000813590506103268161070d565b92915050565b6000806040838503121561033f57600080fd5b600061034d85828601610317565b925050602061035e85828601610317565b9150509250929050565b60008060006060848603121561037d57600080fd5b600061038b86828701610317565b935050602061039c86828701610317565b92505060406103ad86828701610317565b9150509250925092565b6103c081610667565b82525050565b60006020820190506103db60008301846103b7565b92915050565b60006103ec82610667565b91506103f783610667565b9250827fffffffffffffffffffffffffffffffffffffffffffffffffffffffffffffffff0382111561042c5761042b6106a2565b5b828201905092915050565b600061044282610667565b915061044d83610667565b92508261045d5761045c6106d1565b5b828204905092915050565b6000808291508390505b60018511156104b25780860481111561048e5761048d6106a2565b5b600185161561049d5780820291505b80810290506104ab85610700565b9450610472565b94509492505050565b60006104c682610667565b91506104d183610667565b92506104fe7fffffffffffffffffffffffffffffffffffffffffffffffffffffffffffffffff8484610506565b905092915050565b60008261051657600190506105d2565b8161052457600090506105d2565b816001811461053a576002811461054457610573565b60019150506105d2565b60ff841115610556576105556106a2565b5b8360020a91508482111561056d5761056c6106a2565b5b506105d2565b5060208310610133831016604e8410600b84101617156105a85782820a9050838111156105a3576105a26106a2565b5b6105d2565b6105b58484846001610468565b925090508184048111156105cc576105cb6106a2565b5b81810290505b9392505050565b60006105e482610667565b91506105ef83610667565b9250817fffffffffffffffffffffffffffffffffffffffffffffffffffffffffffffffff0483118215151615610628576106276106a2565b5b828202905092915050565b600061063e82610667565b915061064983610667565b92508282101561065c5761065b6106a2565b5b828203905092915050565b6000819050919050565b600061067c82610667565b915061068783610667565b925082610697576106966106d1565b5b828206905092915050565b7f4e487b7100000000000000000000000000000000000000000000000000000000600052601160045260246000fd5b7f4e487b7100000000000000000000000000000000000000000000000000000000600052601260045260246000fd5b60008160011c9050919050565b61071681610667565b811461072157600080fd5b5056fea26469706673582212201bdbf448838c50f074d14993e26e2906014e32a13b9f1d7a9211b338697f9d2a64736f6c63430008040033",
					"opcodes": "PUSH1 0x80 PUSH1 0x40 MSTORE CALLVALUE DUP1 ISZERO PUSH2 0x10 JUMPI PUSH1 0x0 DUP1 REVERT JUMPDEST POP PUSH2 0x75A DUP1 PUSH2 0x20 PUSH1 0x0 CODECOPY PUSH1 0x0 RETURN INVALID PUSH1 0x80 PUSH1 0x40 MSTORE CALLVALUE DUP1 ISZERO PUSH2 0x10 JUMPI PUSH1 0x0 DUP1 REVERT JUMPDEST POP PUSH1 0x4 CALLDATASIZE LT PUSH2 0x88 JUMPI PUSH1 0x0 CALLDATALOAD PUSH1 0xE0 SHR DUP1 PUSH4 0xB1B45B1B GT PUSH2 0x5B JUMPI DUP1 PUSH4 0xB1B45B1B EQ PUSH2 0x14D JUMPI DUP1 PUSH4 0xDD125E37 EQ PUSH2 0x17D JUMPI DUP1 PUSH4 0xE989D9CC EQ PUSH2 0x1AD JUMPI DUP1 PUSH4 0xF43F523A EQ PUSH2 0x1DD JUMPI PUSH2 0x88 JUMP JUMPDEST DUP1 PUSH4 0x424BD620 EQ PUSH2 0x8D JUMPI DUP1 PUSH4 0x52F294BC EQ PUSH2 0xBD JUMPI DUP1 PUSH4 0x871F9AF4 EQ PUSH2 0xED JUMPI DUP1 PUSH4 0xA391C15B EQ PUSH2 0x11D JUMPI JUMPDEST PUSH1 0x0 DUP1 REVERT JUMPDEST PUSH2 0xA7 PUSH1 0x4 DUP1 CALLDATASIZE SUB DUP2 ADD SWAP1 PUSH2 0xA2 SWAP2 SWAP1 PUSH2 0x32C JUMP JUMPDEST PUSH2 0x20D JUMP JUMPDEST PUSH1 0x40 MLOAD PUSH2 0xB4 SWAP2 SWAP1 PUSH2 0x3C6 JUMP JUMPDEST PUSH1 0x40 MLOAD DUP1 SWAP2 SUB SWAP1 RETURN JUMPDEST PUSH2 0xD7 PUSH1 0x4 DUP1 CALLDATASIZE SUB DUP2 ADD SWAP1 PUSH2 0xD2 SWAP2 SWAP1 PUSH2 0x32C JUMP JUMPDEST PUSH2 0x223 JUMP JUMPDEST PUSH1 0x40 MLOAD PUSH2 0xE4 SWAP2 SWAP1 PUSH2 0x3C6 JUMP JUMPDEST PUSH1 0x40 MLOAD DUP1 SWAP2 SUB SWAP1 RETURN JUMPDEST PUSH2 0x107 PUSH1 0x4 DUP1 CALLDATASIZE SUB DUP2 ADD SWAP1 PUSH2 0x102 SWAP2 SWAP1 PUSH2 0x368 JUMP JUMPDEST PUSH2 0x239 JUMP JUMPDEST PUSH1 0x40 MLOAD PUSH2 0x114 SWAP2 SWAP1 PUSH2 0x3C6 JUMP JUMPDEST PUSH1 0x40 MLOAD DUP1 SWAP2 SUB SWAP1 RETURN JUMPDEST PUSH2 0x137 PUSH1 0x4 DUP1 CALLDATASIZE SUB DUP2 ADD SWAP1 PUSH2 0x132 SWAP2 SWAP1 PUSH2 0x32C JUMP JUMPDEST PUSH2 0x27C JUMP JUMPDEST PUSH1 0x40 MLOAD PUSH2 0x144 SWAP2 SWAP1 PUSH2 0x3C6 JUMP JUMPDEST PUSH1 0x40 MLOAD DUP1 SWAP2 SUB SWAP1 RETURN JUMPDEST PUSH2 0x167 PUSH1 0x4 DUP1 CALLDATASIZE SUB DUP2 ADD SWAP1 PUSH2 0x162 SWAP2 SWAP1 PUSH2 0x32C JUMP JUMPDEST PUSH2 0x292 JUMP JUMPDEST PUSH1 0x40 MLOAD PUSH2 0x174 SWAP2 SWAP1 PUSH2 0x3C6 JUMP JUMPDEST PUSH1 0x40 MLOAD DUP1 SWAP2 SUB SWAP1 RETURN JUMPDEST PUSH2 0x197 PUSH1 0x4 DUP1 CALLDATASIZE SUB DUP2 ADD SWAP1 PUSH2 0x192 SWAP2 SWAP1 PUSH2 0x368 JUMP JUMPDEST PUSH2 0x2A8 JUMP JUMPDEST PUSH1 0x40 MLOAD PUSH2 0x1A4 SWAP2 SWAP1 PUSH2 0x3C6 JUMP JUMPDEST PUSH1 0x40 MLOAD DUP1 SWAP2 SUB SWAP1 RETURN JUMPDEST PUSH2 0x1C7 PUSH1 0x4 DUP1 CALLDATASIZE SUB DUP2 ADD SWAP1 PUSH2 0x1C2 SWAP2 SWAP1 PUSH2 0x32C JUMP JUMPDEST PUSH2 0x2EB JUMP JUMPDEST PUSH1 0x40 MLOAD PUSH2 0x1D4 SWAP2 SWAP1 PUSH2 0x3C6 JUMP JUMPDEST PUSH1 0x40 MLOAD DUP1 SWAP2 SUB SWAP1 RETURN JUMPDEST PUSH2 0x1F7 PUSH1 0x4 DUP1 CALLDATASIZE SUB DUP2 ADD SWAP1 PUSH2 0x1F2 SWAP2 SWAP1 PUSH2 0x32C JUMP JUMPDEST PUSH2 0x301 JUMP JUMPDEST PUSH1 0x40 MLOAD PUSH2 0x204 SWAP2 SWAP1 PUSH2 0x3C6 JUMP JUMPDEST PUSH1 0x40 MLOAD DUP1 SWAP2 SUB SWAP1 RETURN JUMPDEST PUSH1 0x0 DUP2 DUP4 PUSH2 0x21B SWAP2 SWAP1 PUSH2 0x5D9 JUMP JUMPDEST SWAP1 POP SWAP3 SWAP2 POP POP JUMP JUMPDEST PUSH1 0x0 DUP2 DUP4 PUSH2 0x231 SWAP2 SWAP1 PUSH2 0x633 JUMP JUMPDEST SWAP1 POP SWAP3 SWAP2 POP POP JUMP JUMPDEST PUSH1 0x0 DUP2 DUP1 PUSH2 0x270 JUMPI PUSH32 0x4E487B7100000000000000000000000000000000000000000000000000000000 PUSH1 0x0 MSTORE PUSH1 0x12 PUSH1 0x4 MSTORE PUSH1 0x24 PUSH1 0x0 REVERT JUMPDEST DUP4 DUP6 MULMOD SWAP1 POP SWAP4 SWAP3 POP POP POP JUMP JUMPDEST PUSH1 0x0 DUP2 DUP4 PUSH2 0x28A SWAP2 SWAP1 PUSH2 0x437 JUMP JUMPDEST SWAP1 POP SWAP3 SWAP2 POP POP JUMP JUMPDEST PUSH1 0x0 DUP2 DUP4 PUSH2 0x2A0 SWAP2 SWAP1 PUSH2 0x3E1 JUMP JUMPDEST SWAP1 POP SWAP3 SWAP2 POP POP JUMP JUMPDEST PUSH1 0x0 DUP2 DUP1 PUSH2 0x2DF JUMPI PUSH32 0x4E487B7100000000000000000000000000000000000000000000000000000000 PUSH1 0x0 MSTORE PUSH1 0x12 PUSH1 0x4 MSTORE PUSH1 0x24 PUSH1 0x0 REVERT JUMPDEST DUP4 DUP6 ADDMOD SWAP1 POP SWAP4 SWAP3 POP POP POP JUMP JUMPDEST PUSH1 0x0 DUP2 DUP4 PUSH2 0x2F9 SWAP2 SWAP1 PUSH2 0x4BB JUMP JUMPDEST SWAP1 POP SWAP3 SWAP2 POP POP JUMP JUMPDEST PUSH1 0x0 DUP2 DUP4 PUSH2 0x30F SWAP2 SWAP1 PUSH2 0x671 JUMP JUMPDEST SWAP1 POP SWAP3 SWAP2 POP POP JUMP JUMPDEST PUSH1 0x0 DUP2 CALLDATALOAD SWAP1 POP PUSH2 0x326 DUP2 PUSH2 0x70D JUMP JUMPDEST SWAP3 SWAP2 POP POP JUMP JUMPDEST PUSH1 0x0 DUP1 PUSH1 0x40 DUP4 DUP6 SUB SLT ISZERO PUSH2 0x33F JUMPI PUSH1 0x0 DUP1 REVERT JUMPDEST PUSH1 0x0 PUSH2 0x34D DUP6 DUP3 DUP7 ADD PUSH2 0x317 JUMP JUMPDEST SWAP3 POP POP PUSH1 0x20 PUSH2 0x35E DUP6 DUP3 DUP7 ADD PUSH2 0x317 JUMP JUMPDEST SWAP2 POP POP SWAP3 POP SWAP3 SWAP1 POP JUMP JUMPDEST PUSH1 0x0 DUP1 PUSH1 0x0 PUSH1 0x60 DUP5 DUP7 SUB SLT ISZERO PUSH2 0x37D JUMPI PUSH1 0x0 DUP1 REVERT JUMPDEST PUSH1 0x0 PUSH2 0x38B DUP7 DUP3 DUP8 ADD PUSH2 0x317 JUMP JUMPDEST SWAP4 POP POP PUSH1 0x20 PUSH2 0x39C DUP7 DUP3 DUP8 ADD PUSH2 0x317 JUMP JUMPDEST SWAP3 POP POP PUSH1 0x40 PUSH2 0x3AD DUP7 DUP3 DUP8 ADD PUSH2 0x317 JUMP JUMPDEST SWAP2 POP POP SWAP3 POP SWAP3 POP SWAP3 JUMP JUMPDEST PUSH2 0x3C0 DUP2 PUSH2 0x667 JUMP JUMPDEST DUP3 MSTORE POP POP JUMP JUMPDEST PUSH1 0x0 PUSH1 0x20 DUP3 ADD SWAP1 POP PUSH2 0x3DB PUSH1 0x0 DUP4 ADD DUP5 PUSH2 0x3B7 JUMP JUMPDEST SWAP3 SWAP2 POP POP JUMP JUMPDEST PUSH1 0x0 PUSH2 0x3EC DUP3 PUSH2 0x667 JUMP JUMPDEST SWAP2 POP PUSH2 0x3F7 DUP4 PUSH2 0x667 JUMP JUMPDEST SWAP3 POP DUP3 PUSH32 0xFFFFFFFFFFFFFFFFFFFFFFFFFFFFFFFFFFFFFFFFFFFFFFFFFFFFFFFFFFFFFFFF SUB DUP3 GT ISZERO PUSH2 0x42C JUMPI PUSH2 0x42B PUSH2 0x6A2 JUMP JUMPDEST JUMPDEST DUP3 DUP3 ADD SWAP1 POP SWAP3 SWAP2 POP POP JUMP JUMPDEST PUSH1 0x0 PUSH2 0x442 DUP3 PUSH2 0x667 JUMP JUMPDEST SWAP2 POP PUSH2 0x44D DUP4 PUSH2 0x667 JUMP JUMPDEST SWAP3 POP DUP3 PUSH2 0x45D JUMPI PUSH2 0x45C PUSH2 0x6D1 JUMP JUMPDEST JUMPDEST DUP3 DUP3 DIV SWAP1 POP SWAP3 SWAP2 POP POP JUMP JUMPDEST PUSH1 0x0 DUP1 DUP3 SWAP2 POP DUP4 SWAP1 POP JUMPDEST PUSH1 0x1 DUP6 GT ISZERO PUSH2 0x4B2 JUMPI DUP1 DUP7 DIV DUP2 GT ISZERO PUSH2 0x48E JUMPI PUSH2 0x48D PUSH2 0x6A2 JUMP JUMPDEST JUMPDEST PUSH1 0x1 DUP6 AND ISZERO PUSH2 0x49D JUMPI DUP1 DUP3 MUL SWAP2 POP JUMPDEST DUP1 DUP2 MUL SWAP1 POP PUSH2 0x4AB DUP6 PUSH2 0x700 JUMP JUMPDEST SWAP5 POP PUSH2 0x472 JUMP JUMPDEST SWAP5 POP SWAP5 SWAP3 POP POP POP JUMP JUMPDEST PUSH1 0x0 PUSH2 0x4C6 DUP3 PUSH2 0x667 JUMP JUMPDEST SWAP2 POP PUSH2 0x4D1 DUP4 PUSH2 0x667 JUMP JUMPDEST SWAP3 POP PUSH2 0x4FE PUSH32 0xFFFFFFFFFFFFFFFFFFFFFFFFFFFFFFFFFFFFFFFFFFFFFFFFFFFFFFFFFFFFFFFF DUP5 DUP5 PUSH2 0x506 JUMP JUMPDEST SWAP1 POP SWAP3 SWAP2 POP POP JUMP JUMPDEST PUSH1 0x0 DUP3 PUSH2 0x516 JUMPI PUSH1 0x1 SWAP1 POP PUSH2 0x5D2 JUMP JUMPDEST DUP2 PUSH2 0x524 JUMPI PUSH1 0x0 SWAP1 POP PUSH2 0x5D2 JUMP JUMPDEST DUP2 PUSH1 0x1 DUP2 EQ PUSH2 0x53A JUMPI PUSH1 0x2 DUP2 EQ PUSH2 0x544 JUMPI PUSH2 0x573 JUMP JUMPDEST PUSH1 0x1 SWAP2 POP POP PUSH2 0x5D2 JUMP JUMPDEST PUSH1 0xFF DUP5 GT ISZERO PUSH2 0x556 JUMPI PUSH2 0x555 PUSH2 0x6A2 JUMP JUMPDEST JUMPDEST DUP4 PUSH1 0x2 EXP SWAP2 POP DUP5 DUP3 GT ISZERO PUSH2 0x56D JUMPI PUSH2 0x56C PUSH2 0x6A2 JUMP JUMPDEST JUMPDEST POP PUSH2 0x5D2 JUMP JUMPDEST POP PUSH1 0x20 DUP4 LT PUSH2 0x133 DUP4 LT AND PUSH1 0x4E DUP5 LT PUSH1 0xB DUP5 LT AND OR ISZERO PUSH2 0x5A8 JUMPI DUP3 DUP3 EXP SWAP1 POP DUP4 DUP2 GT ISZERO PUSH2 0x5A3 JUMPI PUSH2 0x5A2 PUSH2 0x6A2 JUMP JUMPDEST JUMPDEST PUSH2 0x5D2 JUMP JUMPDEST PUSH2 0x5B5 DUP5 DUP5 DUP5 PUSH1 0x1 PUSH2 0x468 JUMP JUMPDEST SWAP3 POP SWAP1 POP DUP2 DUP5 DIV DUP2 GT ISZERO PUSH2 0x5CC JUMPI PUSH2 0x5CB PUSH2 0x6A2 JUMP JUMPDEST JUMPDEST DUP2 DUP2 MUL SWAP1 POP JUMPDEST SWAP4 SWAP3 POP POP POP JUMP JUMPDEST PUSH1 0x0 PUSH2 0x5E4 DUP3 PUSH2 0x667 JUMP JUMPDEST SWAP2 POP PUSH2 0x5EF DUP4 PUSH2 0x667 JUMP JUMPDEST SWAP3 POP DUP2 PUSH32 0xFFFFFFFFFFFFFFFFFFFFFFFFFFFFFFFFFFFFFFFFFFFFFFFFFFFFFFFFFFFFFFFF DIV DUP4 GT DUP3 ISZERO ISZERO AND ISZERO PUSH2 0x628 JUMPI PUSH2 0x627 PUSH2 0x6A2 JUMP JUMPDEST JUMPDEST DUP3 DUP3 MUL SWAP1 POP SWAP3 SWAP2 POP POP JUMP JUMPDEST PUSH1 0x0 PUSH2 0x63E DUP3 PUSH2 0x667 JUMP JUMPDEST SWAP2 POP PUSH2 0x649 DUP4 PUSH2 0x667 JUMP JUMPDEST SWAP3 POP DUP3 DUP3 LT ISZERO PUSH2 0x65C JUMPI PUSH2 0x65B PUSH2 0x6A2 JUMP JUMPDEST JUMPDEST DUP3 DUP3 SUB SWAP1 POP SWAP3 SWAP2 POP POP JUMP JUMPDEST PUSH1 0x0 DUP2 SWAP1 POP SWAP2 SWAP1 POP JUMP JUMPDEST PUSH1 0x0 PUSH2 0x67C DUP3 PUSH2 0x667 JUMP JUMPDEST SWAP2 POP PUSH2 0x687 DUP4 PUSH2 0x667 JUMP JUMPDEST SWAP3 POP DUP3 PUSH2 0x697 JUMPI PUSH2 0x696 PUSH2 0x6D1 JUMP JUMPDEST JUMPDEST DUP3 DUP3 MOD SWAP1 POP SWAP3 SWAP2 POP POP JUMP JUMPDEST PUSH32 0x4E487B7100000000000000000000000000000000000000000000000000000000 PUSH1 0x0 MSTORE PUSH1 0x11 PUSH1 0x4 MSTORE PUSH1 0x24 PUSH1 0x0 REVERT JUMPDEST PUSH32 0x4E487B7100000000000000000000000000000000000000000000000000000000 PUSH1 0x0 MSTORE PUSH1 0x12 PUSH1 0x4 MSTORE PUSH1 0x24 PUSH1 0x0 REVERT JUMPDEST PUSH1 0x0 DUP2 PUSH1 0x1 SHR SWAP1 POP SWAP2 SWAP1 POP JUMP JUMPDEST PUSH2 0x716 DUP2 PUSH2 0x667 JUMP JUMPDEST DUP2 EQ PUSH2 0x721 JUMPI PUSH1 0x0 DUP1 REVERT JUMPDEST POP JUMP INVALID LOG2 PUSH5 0x6970667358 0x22 SLT KECCAK256 SHL 0xDB DELEGATECALL 0x48 DUP4 DUP13 POP CREATE PUSH21 0xD14993E26E2906014E32A13B9F1D7A9211B338697F SWAP14 0x2A PUSH5 0x736F6C6343 STOP ADDMOD DIV STOP CALLER "
				},
				"gasEstimates": {
					"creation": {
						"codeDepositCost": "376400",
						"executionCost": "411",
						"totalCost": "376811"
					},
					"external": {
						"_addmod(uint256,uint256,uint256)": "infinite",
						"_mulmod(uint256,uint256,uint256)": "infinite",
						"div(uint256,uint256)": "infinite",
						"expon(uint256,uint256)": "infinite",
						"mod(uint256,uint256)": "infinite",
						"prod(uint256,uint256)": "infinite",
						"resta(uint256,uint256)": "infinite",
						"suma(uint256,uint256)": "infinite"
					}
				},
				"methodIdentifiers": {
					"_addmod(uint256,uint256,uint256)": "dd125e37",
					"_mulmod(uint256,uint256,uint256)": "871f9af4",
					"div(uint256,uint256)": "a391c15b",
					"expon(uint256,uint256)": "e989d9cc",
					"mod(uint256,uint256)": "f43f523a",
					"prod(uint256,uint256)": "424bd620",
					"resta(uint256,uint256)": "52f294bc",
					"suma(uint256,uint256)": "b1b45b1b"
				}
			},
			"storageLayout": {
				"storage": [],
				"types": null
			},
			"userdoc": {
				"kind": "user",
				"methods": {},
				"version": 1
			}
		}
	}
}