{
	"contracts/artifacts/structuras_datos.sol": {
		"data_strucures": {
			"abi": [
				{
					"inputs": [
						{
							"internalType": "address",
							"name": "",
							"type": "address"
						}
					],
					"name": "addres_dataStructures",
					"outputs": [
						{
							"internalType": "uint256",
							"name": "id",
							"type": "uint256"
						},
						{
							"internalType": "string",
							"name": "name",
							"type": "string"
						},
						{
							"internalType": "string",
							"name": "email",
							"type": "string"
						}
					],
					"stateMutability": "view",
					"type": "function"
				},
				{
					"inputs": [
						{
							"internalType": "address",
							"name": "",
							"type": "address"
						}
					],
					"name": "addres_uint",
					"outputs": [
						{
							"internalType": "uint256",
							"name": "",
							"type": "uint256"
						}
					],
					"stateMutability": "view",
					"type": "function"
				},
				{
					"inputs": [
						{
							"internalType": "uint256",
							"name": "_id",
							"type": "uint256"
						},
						{
							"internalType": "string",
							"name": "_name",
							"type": "string"
						},
						{
							"internalType": "string",
							"name": "_email",
							"type": "string"
						}
					],
					"name": "array_modicacion",
					"outputs": [],
					"stateMutability": "nonpayable",
					"type": "function"
				},
				{
					"inputs": [
						{
							"internalType": "uint256",
							"name": "_id",
							"type": "uint256"
						},
						{
							"internalType": "string",
							"name": "_name",
							"type": "string"
						},
						{
							"internalType": "string",
							"name": "_email",
							"type": "string"
						}
					],
					"name": "assignDataStructur",
					"outputs": [],
					"stateMutability": "nonpayable",
					"type": "function"
				},
				{
					"inputs": [
						{
							"internalType": "string",
							"name": "_name",
							"type": "string"
						},
						{
							"internalType": "uint256",
							"name": "_number",
							"type": "uint256"
						}
					],
					"name": "assignList",
					"outputs": [],
					"stateMutability": "nonpayable",
					"type": "function"
				},
				{
					"inputs": [
						{
							"internalType": "uint256",
							"name": "_number",
							"type": "uint256"
						}
					],
					"name": "assingNumber",
					"outputs": [],
					"stateMutability": "nonpayable",
					"type": "function"
				},
				{
					"inputs": [
						{
							"internalType": "uint256",
							"name": "",
							"type": "uint256"
						}
					],
					"name": "dinamic_list_custumer",
					"outputs": [
						{
							"internalType": "uint256",
							"name": "id",
							"type": "uint256"
						},
						{
							"internalType": "string",
							"name": "name",
							"type": "string"
						},
						{
							"internalType": "string",
							"name": "email",
							"type": "string"
						}
					],
					"stateMutability": "view",
					"type": "function"
				},
				{
					"inputs": [
						{
							"internalType": "uint256",
							"name": "",
							"type": "uint256"
						}
					],
					"name": "fixed_list_uints",
					"outputs": [
						{
							"internalType": "uint256",
							"name": "",
							"type": "uint256"
						}
					],
					"stateMutability": "view",
					"type": "function"
				},
				{
					"inputs": [
						{
							"internalType": "string",
							"name": "",
							"type": "string"
						},
						{
							"internalType": "uint256",
							"name": "",
							"type": "uint256"
						}
					],
					"name": "string_listUint",
					"outputs": [
						{
							"internalType": "uint256",
							"name": "",
							"type": "uint256"
						}
					],
					"stateMutability": "view",
					"type": "function"
				}
			],
			"devdoc": {
				"kind": "dev",
				"methods": {},
				"version": 1
			},
			"evm": {
				"assembly": "    /* \"contracts/artifacts/structuras_datos.sol\":60:1581  contract data_strucures {\r... */\n  mstore(0x40, 0x80)\n    /* \"contracts/artifacts/structuras_datos.sol\":272:316  Customer(1, \"lucas\",\"lukasprado8@gmail.com\") */\n  mload(0x40)\n  dup1\n  0x60\n  add\n  0x40\n  mstore\n  dup1\n    /* \"contracts/artifacts/structuras_datos.sol\":281:282  1 */\n  0x01\n    /* \"contracts/artifacts/structuras_datos.sol\":272:316  Customer(1, \"lucas\",\"lukasprado8@gmail.com\") */\n  dup2\n  mstore\n  0x20\n  add\n  mload(0x40)\n  dup1\n  0x40\n  add\n  0x40\n  mstore\n  dup1\n  0x05\n  dup2\n  mstore\n  0x20\n  add\n  0x6c75636173000000000000000000000000000000000000000000000000000000\n  dup2\n  mstore\n  pop\n  dup2\n  mstore\n  0x20\n  add\n  mload(0x40)\n  dup1\n  0x40\n  add\n  0x40\n  mstore\n  dup1\n  0x15\n  dup2\n  mstore\n  0x20\n  add\n  0x6c756b6173707261646f3840676d61696c2e636f6d0000000000000000000000\n  dup2\n  mstore\n  pop\n  dup2\n  mstore\n  pop\n    /* \"contracts/artifacts/structuras_datos.sol\":252:316  Customer cliente1 = Customer(1, \"lucas\",\"lukasprado8@gmail.com\") */\n  0x00\n  dup1\n  dup3\n  add\n  mload\n  dup2\n  0x00\n  add\n  sstore\n  0x20\n  dup3\n  add\n  mload\n  dup2\n  0x01\n  add\n  swap1\n  dup1\n  mload\n  swap1\n  0x20\n  add\n  swap1\n  tag_1\n  swap3\n  swap2\n  swap1\n  tag_2\n  jump\t// in\ntag_1:\n  pop\n  0x40\n  dup3\n  add\n  mload\n  dup2\n  0x02\n  add\n  swap1\n  dup1\n  mload\n  swap1\n  0x20\n  add\n  swap1\n  tag_3\n  swap3\n  swap2\n  swap1\n  tag_2\n  jump\t// in\ntag_3:\n  pop\n  pop\n  pop\n    /* \"contracts/artifacts/structuras_datos.sol\":369:418  uint256 [5] public fixed_list_uints = [1,2,3,4,5] */\n  mload(0x40)\n  dup1\n  0xa0\n  add\n  0x40\n  mstore\n  dup1\n    /* \"contracts/artifacts/structuras_datos.sol\":408:409  1 */\n  0x01\n    /* \"contracts/artifacts/structuras_datos.sol\":369:418  uint256 [5] public fixed_list_uints = [1,2,3,4,5] */\n  0xff\n  and\n  dup2\n  mstore\n  0x20\n  add\n    /* \"contracts/artifacts/structuras_datos.sol\":410:411  2 */\n  0x02\n    /* \"contracts/artifacts/structuras_datos.sol\":369:418  uint256 [5] public fixed_list_uints = [1,2,3,4,5] */\n  0xff\n  and\n  dup2\n  mstore\n  0x20\n  add\n    /* \"contracts/artifacts/structuras_datos.sol\":412:413  3 */\n  0x03\n    /* \"contracts/artifacts/structuras_datos.sol\":369:418  uint256 [5] public fixed_list_uints = [1,2,3,4,5] */\n  0xff\n  and\n  dup2\n  mstore\n  0x20\n  add\n    /* \"contracts/artifacts/structuras_datos.sol\":414:415  4 */\n  0x04\n    /* \"contracts/artifacts/structuras_datos.sol\":369:418  uint256 [5] public fixed_list_uints = [1,2,3,4,5] */\n  0xff\n  and\n  dup2\n  mstore\n  0x20\n  add\n    /* \"contracts/artifacts/structuras_datos.sol\":416:417  5 */\n  0x05\n    /* \"contracts/artifacts/structuras_datos.sol\":369:418  uint256 [5] public fixed_list_uints = [1,2,3,4,5] */\n  0xff\n  and\n  dup2\n  mstore\n  pop\n  0x03\n  swap1\n  0x05\n  tag_4\n  swap3\n  swap2\n  swap1\n  tag_5\n  jump\t// in\ntag_4:\n  pop\n    /* \"contracts/artifacts/structuras_datos.sol\":60:1581  contract data_strucures {\r... */\n  callvalue\n  dup1\n  iszero\n  tag_6\n  jumpi\n  0x00\n  dup1\n  revert\ntag_6:\n  pop\n  jump(tag_7)\ntag_2:\n  dup3\n  dup1\n  sload\n  tag_8\n  swap1\n  tag_9\n  jump\t// in\ntag_8:\n  swap1\n  0x00\n  mstore\n  keccak256(0x00, 0x20)\n  swap1\n  0x1f\n  add\n  0x20\n  swap1\n  div\n  dup2\n  add\n  swap3\n  dup3\n  tag_11\n  jumpi\n  0x00\n  dup6\n  sstore\n  jump(tag_10)\ntag_11:\n  dup3\n  0x1f\n  lt\n  tag_12\n  jumpi\n  dup1\n  mload\n  not(0xff)\n  and\n  dup4\n  dup1\n  add\n  or\n  dup6\n  sstore\n  jump(tag_10)\ntag_12:\n  dup3\n  dup1\n  add\n  0x01\n  add\n  dup6\n  sstore\n  dup3\n  iszero\n  tag_10\n  jumpi\n  swap2\n  dup3\n  add\ntag_13:\n  dup3\n  dup2\n  gt\n  iszero\n  tag_14\n  jumpi\n  dup3\n  mload\n  dup3\n  sstore\n  swap2\n  0x20\n  add\n  swap2\n  swap1\n  0x01\n  add\n  swap1\n  jump(tag_13)\ntag_14:\ntag_10:\n  pop\n  swap1\n  pop\n  tag_15\n  swap2\n  swap1\n  tag_16\n  jump\t// in\ntag_15:\n  pop\n  swap1\n  jump\t// out\ntag_5:\n  dup3\n  0x05\n  dup2\n  add\n  swap3\n  dup3\n  iszero\n  tag_17\n  jumpi\n  swap2\n  0x20\n  mul\n  dup3\n  add\ntag_18:\n  dup3\n  dup2\n  gt\n  iszero\n  tag_19\n  jumpi\n  dup3\n  mload\n  dup3\n  swap1\n  0xff\n  and\n  swap1\n  sstore\n  swap2\n  0x20\n  add\n  swap2\n  swap1\n  0x01\n  add\n  swap1\n  jump(tag_18)\ntag_19:\ntag_17:\n  pop\n  swap1\n  pop\n  tag_20\n  swap2\n  swap1\n  tag_16\n  jump\t// in\ntag_20:\n  pop\n  swap1\n  jump\t// out\ntag_16:\ntag_21:\n  dup1\n  dup3\n  gt\n  iszero\n  tag_22\n  jumpi\n  0x00\n  dup2\n  0x00\n  swap1\n  sstore\n  pop\n  0x01\n  add\n  jump(tag_21)\ntag_22:\n  pop\n  swap1\n  jump\t// out\n    /* \"#utility.yul\":7:327   */\ntag_9:\n    /* \"#utility.yul\":51:57   */\n  0x00\n    /* \"#utility.yul\":88:89   */\n  0x02\n    /* \"#utility.yul\":82:86   */\n  dup3\n    /* \"#utility.yul\":78:90   */\n  div\n    /* \"#utility.yul\":68:90   */\n  swap1\n  pop\n    /* \"#utility.yul\":135:136   */\n  0x01\n    /* \"#utility.yul\":129:133   */\n  dup3\n    /* \"#utility.yul\":125:137   */\n  and\n    /* \"#utility.yul\":156:174   */\n  dup1\n    /* \"#utility.yul\":146:148   */\n  tag_25\n  jumpi\n    /* \"#utility.yul\":212:216   */\n  0x7f\n    /* \"#utility.yul\":204:210   */\n  dup3\n    /* \"#utility.yul\":200:217   */\n  and\n    /* \"#utility.yul\":190:217   */\n  swap2\n  pop\n    /* \"#utility.yul\":146:148   */\ntag_25:\n    /* \"#utility.yul\":274:276   */\n  0x20\n    /* \"#utility.yul\":266:272   */\n  dup3\n    /* \"#utility.yul\":263:277   */\n  lt\n    /* \"#utility.yul\":243:261   */\n  dup2\n    /* \"#utility.yul\":240:278   */\n  eq\n    /* \"#utility.yul\":237:239   */\n  iszero\n  tag_26\n  jumpi\n    /* \"#utility.yul\":293:311   */\n  tag_27\n  tag_28\n  jump\t// in\ntag_27:\n    /* \"#utility.yul\":237:239   */\ntag_26:\n    /* \"#utility.yul\":58:327   */\n  pop\n  swap2\n  swap1\n  pop\n  jump\t// out\n    /* \"#utility.yul\":333:513   */\ntag_28:\n    /* \"#utility.yul\":381:458   */\n  0x4e487b7100000000000000000000000000000000000000000000000000000000\n    /* \"#utility.yul\":378:379   */\n  0x00\n    /* \"#utility.yul\":371:459   */\n  mstore\n    /* \"#utility.yul\":478:482   */\n  0x22\n    /* \"#utility.yul\":475:476   */\n  0x04\n    /* \"#utility.yul\":468:483   */\n  mstore\n    /* \"#utility.yul\":502:506   */\n  0x24\n    /* \"#utility.yul\":499:500   */\n  0x00\n    /* \"#utility.yul\":492:507   */\n  revert\n    /* \"contracts/artifacts/structuras_datos.sol\":60:1581  contract data_strucures {\r... */\ntag_7:\n  dataSize(sub_0)\n  dup1\n  dataOffset(sub_0)\n  0x00\n  codecopy\n  0x00\n  return\nstop\n\nsub_0: assembly {\n        /* \"contracts/artifacts/structuras_datos.sol\":60:1581  contract data_strucures {\r... */\n      mstore(0x40, 0x80)\n      callvalue\n      dup1\n      iszero\n      tag_1\n      jumpi\n      0x00\n      dup1\n      revert\n    tag_1:\n      pop\n      jumpi(tag_2, lt(calldatasize, 0x04))\n      shr(0xe0, calldataload(0x00))\n      dup1\n      0x89553d46\n      gt\n      tag_12\n      jumpi\n      dup1\n      0x89553d46\n      eq\n      tag_7\n      jumpi\n      dup1\n      0xbff41051\n      eq\n      tag_8\n      jumpi\n      dup1\n      0xc5d90706\n      eq\n      tag_9\n      jumpi\n      dup1\n      0xe1bdbb84\n      eq\n      tag_10\n      jumpi\n      dup1\n      0xfecb2c16\n      eq\n      tag_11\n      jumpi\n      jump(tag_2)\n    tag_12:\n      dup1\n      0x0d423262\n      eq\n      tag_3\n      jumpi\n      dup1\n      0x141c4037\n      eq\n      tag_4\n      jumpi\n      dup1\n      0x1d5b0438\n      eq\n      tag_5\n      jumpi\n      dup1\n      0x2d7bd877\n      eq\n      tag_6\n      jumpi\n    tag_2:\n      0x00\n      dup1\n      revert\n        /* \"contracts/artifacts/structuras_datos.sol\":1403:1576  function assignDataStructur (uint256 _id, string memory _name, string memory _email) public {\r... */\n    tag_3:\n      tag_13\n      0x04\n      dup1\n      calldatasize\n      sub\n      dup2\n      add\n      swap1\n      tag_14\n      swap2\n      swap1\n      tag_15\n      jump\t// in\n    tag_14:\n      tag_16\n      jump\t// in\n    tag_13:\n      stop\n        /* \"contracts/artifacts/structuras_datos.sol\":1076:1176  function assingNumber (uint256 _number) public {\r... */\n    tag_4:\n      tag_17\n      0x04\n      dup1\n      calldatasize\n      sub\n      dup2\n      add\n      swap1\n      tag_18\n      swap2\n      swap1\n      tag_19\n      jump\t// in\n    tag_18:\n      tag_20\n      jump\t// in\n    tag_17:\n      stop\n        /* \"contracts/artifacts/structuras_datos.sol\":908:961  mapping (string => uint256 []) public string_listUint */\n    tag_5:\n      tag_21\n      0x04\n      dup1\n      calldatasize\n      sub\n      dup2\n      add\n      swap1\n      tag_22\n      swap2\n      swap1\n      tag_23\n      jump\t// in\n    tag_22:\n      tag_24\n      jump\t// in\n    tag_21:\n      mload(0x40)\n      tag_25\n      swap2\n      swap1\n      tag_26\n      jump\t// in\n    tag_25:\n      mload(0x40)\n      dup1\n      swap2\n      sub\n      swap1\n      return\n        /* \"contracts/artifacts/structuras_datos.sol\":854:901  mapping (address => uint256) public addres_uint */\n    tag_6:\n      tag_27\n      0x04\n      dup1\n      calldatasize\n      sub\n      dup2\n      add\n      swap1\n      tag_28\n      swap2\n      swap1\n      tag_29\n      jump\t// in\n    tag_28:\n      tag_30\n      jump\t// in\n    tag_27:\n      mload(0x40)\n      tag_31\n      swap2\n      swap1\n      tag_26\n      jump\t// in\n    tag_31:\n      mload(0x40)\n      dup1\n      swap2\n      sub\n      swap1\n      return\n        /* \"contracts/artifacts/structuras_datos.sol\":1229:1350  function assignList (string memory _name,uint256 _number) public {\r... */\n    tag_7:\n      tag_32\n      0x04\n      dup1\n      calldatasize\n      sub\n      dup2\n      add\n      swap1\n      tag_33\n      swap2\n      swap1\n      tag_23\n      jump\t// in\n    tag_33:\n      tag_34\n      jump\t// in\n    tag_32:\n      stop\n        /* \"contracts/artifacts/structuras_datos.sol\":526:566  Customer [] public dinamic_list_custumer */\n    tag_8:\n      tag_35\n      0x04\n      dup1\n      calldatasize\n      sub\n      dup2\n      add\n      swap1\n      tag_36\n      swap2\n      swap1\n      tag_19\n      jump\t// in\n    tag_36:\n      tag_37\n      jump\t// in\n    tag_35:\n      mload(0x40)\n      tag_38\n      swap4\n      swap3\n      swap2\n      swap1\n      tag_39\n      jump\t// in\n    tag_38:\n      mload(0x40)\n      dup1\n      swap2\n      sub\n      swap1\n      return\n        /* \"contracts/artifacts/structuras_datos.sol\":968:1026  mapping (address => Customer) public addres_dataStructures */\n    tag_9:\n      tag_40\n      0x04\n      dup1\n      calldatasize\n      sub\n      dup2\n      add\n      swap1\n      tag_41\n      swap2\n      swap1\n      tag_29\n      jump\t// in\n    tag_41:\n      tag_42\n      jump\t// in\n    tag_40:\n      mload(0x40)\n      tag_43\n      swap4\n      swap3\n      swap2\n      swap1\n      tag_39\n      jump\t// in\n    tag_43:\n      mload(0x40)\n      dup1\n      swap2\n      sub\n      swap1\n      return\n        /* \"contracts/artifacts/structuras_datos.sol\":607:830  function array_modicacion (uint256 _id, string memory _name, string memory _email) public {\r... */\n    tag_10:\n      tag_44\n      0x04\n      dup1\n      calldatasize\n      sub\n      dup2\n      add\n      swap1\n      tag_45\n      swap2\n      swap1\n      tag_15\n      jump\t// in\n    tag_45:\n      tag_46\n      jump\t// in\n    tag_44:\n      stop\n        /* \"contracts/artifacts/structuras_datos.sol\":369:418  uint256 [5] public fixed_list_uints = [1,2,3,4,5] */\n    tag_11:\n      tag_47\n      0x04\n      dup1\n      calldatasize\n      sub\n      dup2\n      add\n      swap1\n      tag_48\n      swap2\n      swap1\n      tag_19\n      jump\t// in\n    tag_48:\n      tag_49\n      jump\t// in\n    tag_47:\n      mload(0x40)\n      tag_50\n      swap2\n      swap1\n      tag_26\n      jump\t// in\n    tag_50:\n      mload(0x40)\n      dup1\n      swap2\n      sub\n      swap1\n      return\n        /* \"contracts/artifacts/structuras_datos.sol\":1403:1576  function assignDataStructur (uint256 _id, string memory _name, string memory _email) public {\r... */\n    tag_16:\n        /* \"contracts/artifacts/structuras_datos.sol\":1542:1568  Customer(_id,_name,_email) */\n      mload(0x40)\n      dup1\n      0x60\n      add\n      0x40\n      mstore\n      dup1\n        /* \"contracts/artifacts/structuras_datos.sol\":1551:1554  _id */\n      dup5\n        /* \"contracts/artifacts/structuras_datos.sol\":1542:1568  Customer(_id,_name,_email) */\n      dup2\n      mstore\n      0x20\n      add\n        /* \"contracts/artifacts/structuras_datos.sol\":1555:1560  _name */\n      dup4\n        /* \"contracts/artifacts/structuras_datos.sol\":1542:1568  Customer(_id,_name,_email) */\n      dup2\n      mstore\n      0x20\n      add\n        /* \"contracts/artifacts/structuras_datos.sol\":1561:1567  _email */\n      dup3\n        /* \"contracts/artifacts/structuras_datos.sol\":1542:1568  Customer(_id,_name,_email) */\n      dup2\n      mstore\n      pop\n        /* \"contracts/artifacts/structuras_datos.sol\":1506:1527  addres_dataStructures */\n      0x0c\n        /* \"contracts/artifacts/structuras_datos.sol\":1506:1539  addres_dataStructures[msg.sender] */\n      0x00\n        /* \"contracts/artifacts/structuras_datos.sol\":1528:1538  msg.sender */\n      caller\n        /* \"contracts/artifacts/structuras_datos.sol\":1506:1539  addres_dataStructures[msg.sender] */\n      0xffffffffffffffffffffffffffffffffffffffff\n      and\n      0xffffffffffffffffffffffffffffffffffffffff\n      and\n      dup2\n      mstore\n      0x20\n      add\n      swap1\n      dup2\n      mstore\n      0x20\n      add\n      0x00\n      keccak256\n        /* \"contracts/artifacts/structuras_datos.sol\":1506:1568  addres_dataStructures[msg.sender] = Customer(_id,_name,_email) */\n      0x00\n      dup3\n      add\n      mload\n      dup2\n      0x00\n      add\n      sstore\n      0x20\n      dup3\n      add\n      mload\n      dup2\n      0x01\n      add\n      swap1\n      dup1\n      mload\n      swap1\n      0x20\n      add\n      swap1\n      tag_52\n      swap3\n      swap2\n      swap1\n      tag_53\n      jump\t// in\n    tag_52:\n      pop\n      0x40\n      dup3\n      add\n      mload\n      dup2\n      0x02\n      add\n      swap1\n      dup1\n      mload\n      swap1\n      0x20\n      add\n      swap1\n      tag_54\n      swap3\n      swap2\n      swap1\n      tag_53\n      jump\t// in\n    tag_54:\n      pop\n      swap1\n      pop\n      pop\n        /* \"contracts/artifacts/structuras_datos.sol\":1403:1576  function assignDataStructur (uint256 _id, string memory _name, string memory _email) public {\r... */\n      pop\n      pop\n      pop\n      jump\t// out\n        /* \"contracts/artifacts/structuras_datos.sol\":1076:1176  function assingNumber (uint256 _number) public {\r... */\n    tag_20:\n        /* \"contracts/artifacts/structuras_datos.sol\":1161:1168  _number */\n      dup1\n        /* \"contracts/artifacts/structuras_datos.sol\":1134:1145  addres_uint */\n      0x0a\n        /* \"contracts/artifacts/structuras_datos.sol\":1134:1158  addres_uint [msg.sender] */\n      0x00\n        /* \"contracts/artifacts/structuras_datos.sol\":1147:1157  msg.sender */\n      caller\n        /* \"contracts/artifacts/structuras_datos.sol\":1134:1158  addres_uint [msg.sender] */\n      0xffffffffffffffffffffffffffffffffffffffff\n      and\n      0xffffffffffffffffffffffffffffffffffffffff\n      and\n      dup2\n      mstore\n      0x20\n      add\n      swap1\n      dup2\n      mstore\n      0x20\n      add\n      0x00\n      keccak256\n        /* \"contracts/artifacts/structuras_datos.sol\":1134:1168  addres_uint [msg.sender] = _number */\n      dup2\n      swap1\n      sstore\n      pop\n        /* \"contracts/artifacts/structuras_datos.sol\":1076:1176  function assingNumber (uint256 _number) public {\r... */\n      pop\n      jump\t// out\n        /* \"contracts/artifacts/structuras_datos.sol\":908:961  mapping (string => uint256 []) public string_listUint */\n    tag_24:\n      0x0b\n      dup3\n      dup1\n      mload\n      0x20\n      dup2\n      add\n      dup3\n      add\n      dup1\n      mload\n      dup5\n      dup3\n      mstore\n      0x20\n      dup4\n      add\n      0x20\n      dup6\n      add\n      keccak256\n      dup2\n      dup4\n      mstore\n      dup1\n      swap6\n      pop\n      pop\n      pop\n      pop\n      pop\n      pop\n      dup2\n      dup2\n      sload\n      dup2\n      lt\n      tag_56\n      jumpi\n      0x00\n      dup1\n      revert\n    tag_56:\n      swap1\n      0x00\n      mstore\n      keccak256(0x00, 0x20)\n      add\n      0x00\n      swap2\n      pop\n      swap2\n      pop\n      pop\n      sload\n      dup2\n      jump\t// out\n        /* \"contracts/artifacts/structuras_datos.sol\":854:901  mapping (address => uint256) public addres_uint */\n    tag_30:\n      mstore(0x20, 0x0a)\n      dup1\n      0x00\n      mstore\n      keccak256(0x00, 0x40)\n      0x00\n      swap2\n      pop\n      swap1\n      pop\n      sload\n      dup2\n      jump\t// out\n        /* \"contracts/artifacts/structuras_datos.sol\":1229:1350  function assignList (string memory _name,uint256 _number) public {\r... */\n    tag_34:\n        /* \"contracts/artifacts/structuras_datos.sol\":1305:1320  string_listUint */\n      0x0b\n        /* \"contracts/artifacts/structuras_datos.sol\":1322:1327  _name */\n      dup3\n        /* \"contracts/artifacts/structuras_datos.sol\":1305:1328  string_listUint [_name] */\n      mload(0x40)\n      tag_59\n      swap2\n      swap1\n      tag_60\n      jump\t// in\n    tag_59:\n      swap1\n      dup2\n      mstore\n      0x20\n      add\n      mload(0x40)\n      dup1\n      swap2\n      sub\n      swap1\n      keccak256\n        /* \"contracts/artifacts/structuras_datos.sol\":1334:1341  _number */\n      dup2\n        /* \"contracts/artifacts/structuras_datos.sol\":1305:1342  string_listUint [_name].push(_number) */\n      swap1\n      dup1\n      0x01\n      dup2\n      sload\n      add\n      dup1\n      dup3\n      sstore\n      dup1\n      swap2\n      pop\n      pop\n      0x01\n      swap1\n      sub\n      swap1\n      0x00\n      mstore\n      keccak256(0x00, 0x20)\n      add\n      0x00\n      swap1\n      swap2\n      swap1\n      swap2\n      swap1\n      swap2\n      pop\n      sstore\n        /* \"contracts/artifacts/structuras_datos.sol\":1229:1350  function assignList (string memory _name,uint256 _number) public {\r... */\n      pop\n      pop\n      jump\t// out\n        /* \"contracts/artifacts/structuras_datos.sol\":526:566  Customer [] public dinamic_list_custumer */\n    tag_37:\n      0x09\n      dup2\n      dup2\n      sload\n      dup2\n      lt\n      tag_62\n      jumpi\n      0x00\n      dup1\n      revert\n    tag_62:\n      swap1\n      0x00\n      mstore\n      keccak256(0x00, 0x20)\n      swap1\n      0x03\n      mul\n      add\n      0x00\n      swap2\n      pop\n      swap1\n      pop\n      dup1\n      0x00\n      add\n      sload\n      swap1\n      dup1\n      0x01\n      add\n      dup1\n      sload\n      tag_64\n      swap1\n      tag_65\n      jump\t// in\n    tag_64:\n      dup1\n      0x1f\n      add\n      0x20\n      dup1\n      swap2\n      div\n      mul\n      0x20\n      add\n      mload(0x40)\n      swap1\n      dup2\n      add\n      0x40\n      mstore\n      dup1\n      swap3\n      swap2\n      swap1\n      dup2\n      dup2\n      mstore\n      0x20\n      add\n      dup3\n      dup1\n      sload\n      tag_66\n      swap1\n      tag_65\n      jump\t// in\n    tag_66:\n      dup1\n      iszero\n      tag_67\n      jumpi\n      dup1\n      0x1f\n      lt\n      tag_68\n      jumpi\n      0x0100\n      dup1\n      dup4\n      sload\n      div\n      mul\n      dup4\n      mstore\n      swap2\n      0x20\n      add\n      swap2\n      jump(tag_67)\n    tag_68:\n      dup3\n      add\n      swap2\n      swap1\n      0x00\n      mstore\n      keccak256(0x00, 0x20)\n      swap1\n    tag_69:\n      dup2\n      sload\n      dup2\n      mstore\n      swap1\n      0x01\n      add\n      swap1\n      0x20\n      add\n      dup1\n      dup4\n      gt\n      tag_69\n      jumpi\n      dup3\n      swap1\n      sub\n      0x1f\n      and\n      dup3\n      add\n      swap2\n    tag_67:\n      pop\n      pop\n      pop\n      pop\n      pop\n      swap1\n      dup1\n      0x02\n      add\n      dup1\n      sload\n      tag_70\n      swap1\n      tag_65\n      jump\t// in\n    tag_70:\n      dup1\n      0x1f\n      add\n      0x20\n      dup1\n      swap2\n      div\n      mul\n      0x20\n      add\n      mload(0x40)\n      swap1\n      dup2\n      add\n      0x40\n      mstore\n      dup1\n      swap3\n      swap2\n      swap1\n      dup2\n      dup2\n      mstore\n      0x20\n      add\n      dup3\n      dup1\n      sload\n      tag_71\n      swap1\n      tag_65\n      jump\t// in\n    tag_71:\n      dup1\n      iszero\n      tag_72\n      jumpi\n      dup1\n      0x1f\n      lt\n      tag_73\n      jumpi\n      0x0100\n      dup1\n      dup4\n      sload\n      div\n      mul\n      dup4\n      mstore\n      swap2\n      0x20\n      add\n      swap2\n      jump(tag_72)\n    tag_73:\n      dup3\n      add\n      swap2\n      swap1\n      0x00\n      mstore\n      keccak256(0x00, 0x20)\n      swap1\n    tag_74:\n      dup2\n      sload\n      dup2\n      mstore\n      swap1\n      0x01\n      add\n      swap1\n      0x20\n      add\n      dup1\n      dup4\n      gt\n      tag_74\n      jumpi\n      dup3\n      swap1\n      sub\n      0x1f\n      and\n      dup3\n      add\n      swap2\n    tag_72:\n      pop\n      pop\n      pop\n      pop\n      pop\n      swap1\n      pop\n      dup4\n      jump\t// out\n        /* \"contracts/artifacts/structuras_datos.sol\":968:1026  mapping (address => Customer) public addres_dataStructures */\n    tag_42:\n      mstore(0x20, 0x0c)\n      dup1\n      0x00\n      mstore\n      keccak256(0x00, 0x40)\n      0x00\n      swap2\n      pop\n      swap1\n      pop\n      dup1\n      0x00\n      add\n      sload\n      swap1\n      dup1\n      0x01\n      add\n      dup1\n      sload\n      tag_75\n      swap1\n      tag_65\n      jump\t// in\n    tag_75:\n      dup1\n      0x1f\n      add\n      0x20\n      dup1\n      swap2\n      div\n      mul\n      0x20\n      add\n      mload(0x40)\n      swap1\n      dup2\n      add\n      0x40\n      mstore\n      dup1\n      swap3\n      swap2\n      swap1\n      dup2\n      dup2\n      mstore\n      0x20\n      add\n      dup3\n      dup1\n      sload\n      tag_76\n      swap1\n      tag_65\n      jump\t// in\n    tag_76:\n      dup1\n      iszero\n      tag_77\n      jumpi\n      dup1\n      0x1f\n      lt\n      tag_78\n      jumpi\n      0x0100\n      dup1\n      dup4\n      sload\n      div\n      mul\n      dup4\n      mstore\n      swap2\n      0x20\n      add\n      swap2\n      jump(tag_77)\n    tag_78:\n      dup3\n      add\n      swap2\n      swap1\n      0x00\n      mstore\n      keccak256(0x00, 0x20)\n      swap1\n    tag_79:\n      dup2\n      sload\n      dup2\n      mstore\n      swap1\n      0x01\n      add\n      swap1\n      0x20\n      add\n      dup1\n      dup4\n      gt\n      tag_79\n      jumpi\n      dup3\n      swap1\n      sub\n      0x1f\n      and\n      dup3\n      add\n      swap2\n    tag_77:\n      pop\n      pop\n      pop\n      pop\n      pop\n      swap1\n      dup1\n      0x02\n      add\n      dup1\n      sload\n      tag_80\n      swap1\n      tag_65\n      jump\t// in\n    tag_80:\n      dup1\n      0x1f\n      add\n      0x20\n      dup1\n      swap2\n      div\n      mul\n      0x20\n      add\n      mload(0x40)\n      swap1\n      dup2\n      add\n      0x40\n      mstore\n      dup1\n      swap3\n      swap2\n      swap1\n      dup2\n      dup2\n      mstore\n      0x20\n      add\n      dup3\n      dup1\n      sload\n      tag_81\n      swap1\n      tag_65\n      jump\t// in\n    tag_81:\n      dup1\n      iszero\n      tag_82\n      jumpi\n      dup1\n      0x1f\n      lt\n      tag_83\n      jumpi\n      0x0100\n      dup1\n      dup4\n      sload\n      div\n      mul\n      dup4\n      mstore\n      swap2\n      0x20\n      add\n      swap2\n      jump(tag_82)\n    tag_83:\n      dup3\n      add\n      swap2\n      swap1\n      0x00\n      mstore\n      keccak256(0x00, 0x20)\n      swap1\n    tag_84:\n      dup2\n      sload\n      dup2\n      mstore\n      swap1\n      0x01\n      add\n      swap1\n      0x20\n      add\n      dup1\n      dup4\n      gt\n      tag_84\n      jumpi\n      dup3\n      swap1\n      sub\n      0x1f\n      and\n      dup3\n      add\n      swap2\n    tag_82:\n      pop\n      pop\n      pop\n      pop\n      pop\n      swap1\n      pop\n      dup4\n      jump\t// out\n        /* \"contracts/artifacts/structuras_datos.sol\":607:830  function array_modicacion (uint256 _id, string memory _name, string memory _email) public {\r... */\n    tag_46:\n        /* \"contracts/artifacts/structuras_datos.sol\":708:739  Customer memory random_custumer */\n      0x00\n        /* \"contracts/artifacts/structuras_datos.sol\":742:768  Customer(_id,_name,_email) */\n      mload(0x40)\n      dup1\n      0x60\n      add\n      0x40\n      mstore\n      dup1\n        /* \"contracts/artifacts/structuras_datos.sol\":751:754  _id */\n      dup6\n        /* \"contracts/artifacts/structuras_datos.sol\":742:768  Customer(_id,_name,_email) */\n      dup2\n      mstore\n      0x20\n      add\n        /* \"contracts/artifacts/structuras_datos.sol\":755:760  _name */\n      dup5\n        /* \"contracts/artifacts/structuras_datos.sol\":742:768  Customer(_id,_name,_email) */\n      dup2\n      mstore\n      0x20\n      add\n        /* \"contracts/artifacts/structuras_datos.sol\":761:767  _email */\n      dup4\n        /* \"contracts/artifacts/structuras_datos.sol\":742:768  Customer(_id,_name,_email) */\n      dup2\n      mstore\n      pop\n        /* \"contracts/artifacts/structuras_datos.sol\":708:768  Customer memory random_custumer = Customer(_id,_name,_email) */\n      swap1\n      pop\n        /* \"contracts/artifacts/structuras_datos.sol\":779:800  dinamic_list_custumer */\n      0x09\n        /* \"contracts/artifacts/structuras_datos.sol\":806:821  random_custumer */\n      dup2\n        /* \"contracts/artifacts/structuras_datos.sol\":779:822  dinamic_list_custumer.push(random_custumer) */\n      swap1\n      dup1\n      0x01\n      dup2\n      sload\n      add\n      dup1\n      dup3\n      sstore\n      dup1\n      swap2\n      pop\n      pop\n      0x01\n      swap1\n      sub\n      swap1\n      0x00\n      mstore\n      keccak256(0x00, 0x20)\n      swap1\n      0x03\n      mul\n      add\n      0x00\n      swap1\n      swap2\n      swap1\n      swap2\n      swap1\n      swap2\n      pop\n      0x00\n      dup3\n      add\n      mload\n      dup2\n      0x00\n      add\n      sstore\n      0x20\n      dup3\n      add\n      mload\n      dup2\n      0x01\n      add\n      swap1\n      dup1\n      mload\n      swap1\n      0x20\n      add\n      swap1\n      tag_87\n      swap3\n      swap2\n      swap1\n      tag_53\n      jump\t// in\n    tag_87:\n      pop\n      0x40\n      dup3\n      add\n      mload\n      dup2\n      0x02\n      add\n      swap1\n      dup1\n      mload\n      swap1\n      0x20\n      add\n      swap1\n      tag_88\n      swap3\n      swap2\n      swap1\n      tag_53\n      jump\t// in\n    tag_88:\n      pop\n      pop\n      pop\n        /* \"contracts/artifacts/structuras_datos.sol\":607:830  function array_modicacion (uint256 _id, string memory _name, string memory _email) public {\r... */\n      pop\n      pop\n      pop\n      pop\n      jump\t// out\n        /* \"contracts/artifacts/structuras_datos.sol\":369:418  uint256 [5] public fixed_list_uints = [1,2,3,4,5] */\n    tag_49:\n      0x03\n      dup2\n      0x05\n      dup2\n      lt\n      tag_89\n      jumpi\n      0x00\n      dup1\n      revert\n    tag_89:\n      add\n      0x00\n      swap2\n      pop\n      swap1\n      pop\n      sload\n      dup2\n      jump\t// out\n    tag_53:\n      dup3\n      dup1\n      sload\n      tag_91\n      swap1\n      tag_65\n      jump\t// in\n    tag_91:\n      swap1\n      0x00\n      mstore\n      keccak256(0x00, 0x20)\n      swap1\n      0x1f\n      add\n      0x20\n      swap1\n      div\n      dup2\n      add\n      swap3\n      dup3\n      tag_93\n      jumpi\n      0x00\n      dup6\n      sstore\n      jump(tag_92)\n    tag_93:\n      dup3\n      0x1f\n      lt\n      tag_94\n      jumpi\n      dup1\n      mload\n      not(0xff)\n      and\n      dup4\n      dup1\n      add\n      or\n      dup6\n      sstore\n      jump(tag_92)\n    tag_94:\n      dup3\n      dup1\n      add\n      0x01\n      add\n      dup6\n      sstore\n      dup3\n      iszero\n      tag_92\n      jumpi\n      swap2\n      dup3\n      add\n    tag_95:\n      dup3\n      dup2\n      gt\n      iszero\n      tag_96\n      jumpi\n      dup3\n      mload\n      dup3\n      sstore\n      swap2\n      0x20\n      add\n      swap2\n      swap1\n      0x01\n      add\n      swap1\n      jump(tag_95)\n    tag_96:\n    tag_92:\n      pop\n      swap1\n      pop\n      tag_97\n      swap2\n      swap1\n      tag_98\n      jump\t// in\n    tag_97:\n      pop\n      swap1\n      jump\t// out\n    tag_98:\n    tag_99:\n      dup1\n      dup3\n      gt\n      iszero\n      tag_100\n      jumpi\n      0x00\n      dup2\n      0x00\n      swap1\n      sstore\n      pop\n      0x01\n      add\n      jump(tag_99)\n    tag_100:\n      pop\n      swap1\n      jump\t// out\n        /* \"#utility.yul\":7:352   */\n    tag_102:\n        /* \"#utility.yul\":85:90   */\n      0x00\n        /* \"#utility.yul\":110:176   */\n      tag_104\n        /* \"#utility.yul\":126:175   */\n      tag_105\n        /* \"#utility.yul\":168:174   */\n      dup5\n        /* \"#utility.yul\":126:175   */\n      tag_106\n      jump\t// in\n    tag_105:\n        /* \"#utility.yul\":110:176   */\n      tag_107\n      jump\t// in\n    tag_104:\n        /* \"#utility.yul\":101:176   */\n      swap1\n      pop\n        /* \"#utility.yul\":199:205   */\n      dup3\n        /* \"#utility.yul\":192:197   */\n      dup2\n        /* \"#utility.yul\":185:206   */\n      mstore\n        /* \"#utility.yul\":237:241   */\n      0x20\n        /* \"#utility.yul\":230:235   */\n      dup2\n        /* \"#utility.yul\":226:242   */\n      add\n        /* \"#utility.yul\":275:278   */\n      dup5\n        /* \"#utility.yul\":266:272   */\n      dup5\n        /* \"#utility.yul\":261:264   */\n      dup5\n        /* \"#utility.yul\":257:273   */\n      add\n        /* \"#utility.yul\":254:279   */\n      gt\n        /* \"#utility.yul\":251:253   */\n      iszero\n      tag_108\n      jumpi\n        /* \"#utility.yul\":292:293   */\n      0x00\n        /* \"#utility.yul\":289:290   */\n      dup1\n        /* \"#utility.yul\":282:294   */\n      revert\n        /* \"#utility.yul\":251:253   */\n    tag_108:\n        /* \"#utility.yul\":305:346   */\n      tag_109\n        /* \"#utility.yul\":339:345   */\n      dup5\n        /* \"#utility.yul\":334:337   */\n      dup3\n        /* \"#utility.yul\":329:332   */\n      dup6\n        /* \"#utility.yul\":305:346   */\n      tag_110\n      jump\t// in\n    tag_109:\n        /* \"#utility.yul\":91:352   */\n      pop\n      swap4\n      swap3\n      pop\n      pop\n      pop\n      jump\t// out\n        /* \"#utility.yul\":358:497   */\n    tag_111:\n        /* \"#utility.yul\":404:409   */\n      0x00\n        /* \"#utility.yul\":442:448   */\n      dup2\n        /* \"#utility.yul\":429:449   */\n      calldataload\n        /* \"#utility.yul\":420:449   */\n      swap1\n      pop\n        /* \"#utility.yul\":458:491   */\n      tag_113\n        /* \"#utility.yul\":485:490   */\n      dup2\n        /* \"#utility.yul\":458:491   */\n      tag_114\n      jump\t// in\n    tag_113:\n        /* \"#utility.yul\":410:497   */\n      swap3\n      swap2\n      pop\n      pop\n      jump\t// out\n        /* \"#utility.yul\":517:790   */\n    tag_115:\n        /* \"#utility.yul\":573:578   */\n      0x00\n        /* \"#utility.yul\":622:625   */\n      dup3\n        /* \"#utility.yul\":615:619   */\n      0x1f\n        /* \"#utility.yul\":607:613   */\n      dup4\n        /* \"#utility.yul\":603:620   */\n      add\n        /* \"#utility.yul\":599:626   */\n      slt\n        /* \"#utility.yul\":589:591   */\n      tag_117\n      jumpi\n        /* \"#utility.yul\":640:641   */\n      0x00\n        /* \"#utility.yul\":637:638   */\n      dup1\n        /* \"#utility.yul\":630:642   */\n      revert\n        /* \"#utility.yul\":589:591   */\n    tag_117:\n        /* \"#utility.yul\":680:686   */\n      dup2\n        /* \"#utility.yul\":667:687   */\n      calldataload\n        /* \"#utility.yul\":705:784   */\n      tag_118\n        /* \"#utility.yul\":780:783   */\n      dup5\n        /* \"#utility.yul\":772:778   */\n      dup3\n        /* \"#utility.yul\":765:769   */\n      0x20\n        /* \"#utility.yul\":757:763   */\n      dup7\n        /* \"#utility.yul\":753:770   */\n      add\n        /* \"#utility.yul\":705:784   */\n      tag_102\n      jump\t// in\n    tag_118:\n        /* \"#utility.yul\":696:784   */\n      swap2\n      pop\n        /* \"#utility.yul\":579:790   */\n      pop\n      swap3\n      swap2\n      pop\n      pop\n      jump\t// out\n        /* \"#utility.yul\":796:935   */\n    tag_119:\n        /* \"#utility.yul\":842:847   */\n      0x00\n        /* \"#utility.yul\":880:886   */\n      dup2\n        /* \"#utility.yul\":867:887   */\n      calldataload\n        /* \"#utility.yul\":858:887   */\n      swap1\n      pop\n        /* \"#utility.yul\":896:929   */\n      tag_121\n        /* \"#utility.yul\":923:928   */\n      dup2\n        /* \"#utility.yul\":896:929   */\n      tag_122\n      jump\t// in\n    tag_121:\n        /* \"#utility.yul\":848:935   */\n      swap3\n      swap2\n      pop\n      pop\n      jump\t// out\n        /* \"#utility.yul\":941:1203   */\n    tag_29:\n        /* \"#utility.yul\":1000:1006   */\n      0x00\n        /* \"#utility.yul\":1049:1051   */\n      0x20\n        /* \"#utility.yul\":1037:1046   */\n      dup3\n        /* \"#utility.yul\":1028:1035   */\n      dup5\n        /* \"#utility.yul\":1024:1047   */\n      sub\n        /* \"#utility.yul\":1020:1052   */\n      slt\n        /* \"#utility.yul\":1017:1019   */\n      iszero\n      tag_124\n      jumpi\n        /* \"#utility.yul\":1065:1066   */\n      0x00\n        /* \"#utility.yul\":1062:1063   */\n      dup1\n        /* \"#utility.yul\":1055:1067   */\n      revert\n        /* \"#utility.yul\":1017:1019   */\n    tag_124:\n        /* \"#utility.yul\":1108:1109   */\n      0x00\n        /* \"#utility.yul\":1133:1186   */\n      tag_125\n        /* \"#utility.yul\":1178:1185   */\n      dup5\n        /* \"#utility.yul\":1169:1175   */\n      dup3\n        /* \"#utility.yul\":1158:1167   */\n      dup6\n        /* \"#utility.yul\":1154:1176   */\n      add\n        /* \"#utility.yul\":1133:1186   */\n      tag_111\n      jump\t// in\n    tag_125:\n        /* \"#utility.yul\":1123:1186   */\n      swap2\n      pop\n        /* \"#utility.yul\":1079:1196   */\n      pop\n        /* \"#utility.yul\":1007:1203   */\n      swap3\n      swap2\n      pop\n      pop\n      jump\t// out\n        /* \"#utility.yul\":1209:1729   */\n    tag_23:\n        /* \"#utility.yul\":1287:1293   */\n      0x00\n        /* \"#utility.yul\":1295:1301   */\n      dup1\n        /* \"#utility.yul\":1344:1346   */\n      0x40\n        /* \"#utility.yul\":1332:1341   */\n      dup4\n        /* \"#utility.yul\":1323:1330   */\n      dup6\n        /* \"#utility.yul\":1319:1342   */\n      sub\n        /* \"#utility.yul\":1315:1347   */\n      slt\n        /* \"#utility.yul\":1312:1314   */\n      iszero\n      tag_127\n      jumpi\n        /* \"#utility.yul\":1360:1361   */\n      0x00\n        /* \"#utility.yul\":1357:1358   */\n      dup1\n        /* \"#utility.yul\":1350:1362   */\n      revert\n        /* \"#utility.yul\":1312:1314   */\n    tag_127:\n        /* \"#utility.yul\":1431:1432   */\n      0x00\n        /* \"#utility.yul\":1420:1429   */\n      dup4\n        /* \"#utility.yul\":1416:1433   */\n      add\n        /* \"#utility.yul\":1403:1434   */\n      calldataload\n        /* \"#utility.yul\":1461:1479   */\n      0xffffffffffffffff\n        /* \"#utility.yul\":1453:1459   */\n      dup2\n        /* \"#utility.yul\":1450:1480   */\n      gt\n        /* \"#utility.yul\":1447:1449   */\n      iszero\n      tag_128\n      jumpi\n        /* \"#utility.yul\":1493:1494   */\n      0x00\n        /* \"#utility.yul\":1490:1491   */\n      dup1\n        /* \"#utility.yul\":1483:1495   */\n      revert\n        /* \"#utility.yul\":1447:1449   */\n    tag_128:\n        /* \"#utility.yul\":1521:1584   */\n      tag_129\n        /* \"#utility.yul\":1576:1583   */\n      dup6\n        /* \"#utility.yul\":1567:1573   */\n      dup3\n        /* \"#utility.yul\":1556:1565   */\n      dup7\n        /* \"#utility.yul\":1552:1574   */\n      add\n        /* \"#utility.yul\":1521:1584   */\n      tag_115\n      jump\t// in\n    tag_129:\n        /* \"#utility.yul\":1511:1584   */\n      swap3\n      pop\n        /* \"#utility.yul\":1374:1594   */\n      pop\n        /* \"#utility.yul\":1633:1635   */\n      0x20\n        /* \"#utility.yul\":1659:1712   */\n      tag_130\n        /* \"#utility.yul\":1704:1711   */\n      dup6\n        /* \"#utility.yul\":1695:1701   */\n      dup3\n        /* \"#utility.yul\":1684:1693   */\n      dup7\n        /* \"#utility.yul\":1680:1702   */\n      add\n        /* \"#utility.yul\":1659:1712   */\n      tag_119\n      jump\t// in\n    tag_130:\n        /* \"#utility.yul\":1649:1712   */\n      swap2\n      pop\n        /* \"#utility.yul\":1604:1722   */\n      pop\n        /* \"#utility.yul\":1302:1729   */\n      swap3\n      pop\n      swap3\n      swap1\n      pop\n      jump\t// out\n        /* \"#utility.yul\":1735:1997   */\n    tag_19:\n        /* \"#utility.yul\":1794:1800   */\n      0x00\n        /* \"#utility.yul\":1843:1845   */\n      0x20\n        /* \"#utility.yul\":1831:1840   */\n      dup3\n        /* \"#utility.yul\":1822:1829   */\n      dup5\n        /* \"#utility.yul\":1818:1841   */\n      sub\n        /* \"#utility.yul\":1814:1846   */\n      slt\n        /* \"#utility.yul\":1811:1813   */\n      iszero\n      tag_132\n      jumpi\n        /* \"#utility.yul\":1859:1860   */\n      0x00\n        /* \"#utility.yul\":1856:1857   */\n      dup1\n        /* \"#utility.yul\":1849:1861   */\n      revert\n        /* \"#utility.yul\":1811:1813   */\n    tag_132:\n        /* \"#utility.yul\":1902:1903   */\n      0x00\n        /* \"#utility.yul\":1927:1980   */\n      tag_133\n        /* \"#utility.yul\":1972:1979   */\n      dup5\n        /* \"#utility.yul\":1963:1969   */\n      dup3\n        /* \"#utility.yul\":1952:1961   */\n      dup6\n        /* \"#utility.yul\":1948:1970   */\n      add\n        /* \"#utility.yul\":1927:1980   */\n      tag_119\n      jump\t// in\n    tag_133:\n        /* \"#utility.yul\":1917:1980   */\n      swap2\n      pop\n        /* \"#utility.yul\":1873:1990   */\n      pop\n        /* \"#utility.yul\":1801:1997   */\n      swap3\n      swap2\n      pop\n      pop\n      jump\t// out\n        /* \"#utility.yul\":2003:2781   */\n    tag_15:\n        /* \"#utility.yul\":2100:2106   */\n      0x00\n        /* \"#utility.yul\":2108:2114   */\n      dup1\n        /* \"#utility.yul\":2116:2122   */\n      0x00\n        /* \"#utility.yul\":2165:2167   */\n      0x60\n        /* \"#utility.yul\":2153:2162   */\n      dup5\n        /* \"#utility.yul\":2144:2151   */\n      dup7\n        /* \"#utility.yul\":2140:2163   */\n      sub\n        /* \"#utility.yul\":2136:2168   */\n      slt\n        /* \"#utility.yul\":2133:2135   */\n      iszero\n      tag_135\n      jumpi\n        /* \"#utility.yul\":2181:2182   */\n      0x00\n        /* \"#utility.yul\":2178:2179   */\n      dup1\n        /* \"#utility.yul\":2171:2183   */\n      revert\n        /* \"#utility.yul\":2133:2135   */\n    tag_135:\n        /* \"#utility.yul\":2224:2225   */\n      0x00\n        /* \"#utility.yul\":2249:2302   */\n      tag_136\n        /* \"#utility.yul\":2294:2301   */\n      dup7\n        /* \"#utility.yul\":2285:2291   */\n      dup3\n        /* \"#utility.yul\":2274:2283   */\n      dup8\n        /* \"#utility.yul\":2270:2292   */\n      add\n        /* \"#utility.yul\":2249:2302   */\n      tag_119\n      jump\t// in\n    tag_136:\n        /* \"#utility.yul\":2239:2302   */\n      swap4\n      pop\n        /* \"#utility.yul\":2195:2312   */\n      pop\n        /* \"#utility.yul\":2379:2381   */\n      0x20\n        /* \"#utility.yul\":2368:2377   */\n      dup5\n        /* \"#utility.yul\":2364:2382   */\n      add\n        /* \"#utility.yul\":2351:2383   */\n      calldataload\n        /* \"#utility.yul\":2410:2428   */\n      0xffffffffffffffff\n        /* \"#utility.yul\":2402:2408   */\n      dup2\n        /* \"#utility.yul\":2399:2429   */\n      gt\n        /* \"#utility.yul\":2396:2398   */\n      iszero\n      tag_137\n      jumpi\n        /* \"#utility.yul\":2442:2443   */\n      0x00\n        /* \"#utility.yul\":2439:2440   */\n      dup1\n        /* \"#utility.yul\":2432:2444   */\n      revert\n        /* \"#utility.yul\":2396:2398   */\n    tag_137:\n        /* \"#utility.yul\":2470:2533   */\n      tag_138\n        /* \"#utility.yul\":2525:2532   */\n      dup7\n        /* \"#utility.yul\":2516:2522   */\n      dup3\n        /* \"#utility.yul\":2505:2514   */\n      dup8\n        /* \"#utility.yul\":2501:2523   */\n      add\n        /* \"#utility.yul\":2470:2533   */\n      tag_115\n      jump\t// in\n    tag_138:\n        /* \"#utility.yul\":2460:2533   */\n      swap3\n      pop\n        /* \"#utility.yul\":2322:2543   */\n      pop\n        /* \"#utility.yul\":2610:2612   */\n      0x40\n        /* \"#utility.yul\":2599:2608   */\n      dup5\n        /* \"#utility.yul\":2595:2613   */\n      add\n        /* \"#utility.yul\":2582:2614   */\n      calldataload\n        /* \"#utility.yul\":2641:2659   */\n      0xffffffffffffffff\n        /* \"#utility.yul\":2633:2639   */\n      dup2\n        /* \"#utility.yul\":2630:2660   */\n      gt\n        /* \"#utility.yul\":2627:2629   */\n      iszero\n      tag_139\n      jumpi\n        /* \"#utility.yul\":2673:2674   */\n      0x00\n        /* \"#utility.yul\":2670:2671   */\n      dup1\n        /* \"#utility.yul\":2663:2675   */\n      revert\n        /* \"#utility.yul\":2627:2629   */\n    tag_139:\n        /* \"#utility.yul\":2701:2764   */\n      tag_140\n        /* \"#utility.yul\":2756:2763   */\n      dup7\n        /* \"#utility.yul\":2747:2753   */\n      dup3\n        /* \"#utility.yul\":2736:2745   */\n      dup8\n        /* \"#utility.yul\":2732:2754   */\n      add\n        /* \"#utility.yul\":2701:2764   */\n      tag_115\n      jump\t// in\n    tag_140:\n        /* \"#utility.yul\":2691:2764   */\n      swap2\n      pop\n        /* \"#utility.yul\":2553:2774   */\n      pop\n        /* \"#utility.yul\":2123:2781   */\n      swap3\n      pop\n      swap3\n      pop\n      swap3\n      jump\t// out\n        /* \"#utility.yul\":2787:3151   */\n    tag_141:\n        /* \"#utility.yul\":2875:2878   */\n      0x00\n        /* \"#utility.yul\":2903:2942   */\n      tag_143\n        /* \"#utility.yul\":2936:2941   */\n      dup3\n        /* \"#utility.yul\":2903:2942   */\n      tag_144\n      jump\t// in\n    tag_143:\n        /* \"#utility.yul\":2958:3029   */\n      tag_145\n        /* \"#utility.yul\":3022:3028   */\n      dup2\n        /* \"#utility.yul\":3017:3020   */\n      dup6\n        /* \"#utility.yul\":2958:3029   */\n      tag_146\n      jump\t// in\n    tag_145:\n        /* \"#utility.yul\":2951:3029   */\n      swap4\n      pop\n        /* \"#utility.yul\":3038:3090   */\n      tag_147\n        /* \"#utility.yul\":3083:3089   */\n      dup2\n        /* \"#utility.yul\":3078:3081   */\n      dup6\n        /* \"#utility.yul\":3071:3075   */\n      0x20\n        /* \"#utility.yul\":3064:3069   */\n      dup7\n        /* \"#utility.yul\":3060:3076   */\n      add\n        /* \"#utility.yul\":3038:3090   */\n      tag_148\n      jump\t// in\n    tag_147:\n        /* \"#utility.yul\":3115:3144   */\n      tag_149\n        /* \"#utility.yul\":3137:3143   */\n      dup2\n        /* \"#utility.yul\":3115:3144   */\n      tag_150\n      jump\t// in\n    tag_149:\n        /* \"#utility.yul\":3110:3113   */\n      dup5\n        /* \"#utility.yul\":3106:3145   */\n      add\n        /* \"#utility.yul\":3099:3145   */\n      swap2\n      pop\n        /* \"#utility.yul\":2879:3151   */\n      pop\n      swap3\n      swap2\n      pop\n      pop\n      jump\t// out\n        /* \"#utility.yul\":3157:3534   */\n    tag_151:\n        /* \"#utility.yul\":3263:3266   */\n      0x00\n        /* \"#utility.yul\":3291:3330   */\n      tag_153\n        /* \"#utility.yul\":3324:3329   */\n      dup3\n        /* \"#utility.yul\":3291:3330   */\n      tag_144\n      jump\t// in\n    tag_153:\n        /* \"#utility.yul\":3346:3435   */\n      tag_154\n        /* \"#utility.yul\":3428:3434   */\n      dup2\n        /* \"#utility.yul\":3423:3426   */\n      dup6\n        /* \"#utility.yul\":3346:3435   */\n      tag_155\n      jump\t// in\n    tag_154:\n        /* \"#utility.yul\":3339:3435   */\n      swap4\n      pop\n        /* \"#utility.yul\":3444:3496   */\n      tag_156\n        /* \"#utility.yul\":3489:3495   */\n      dup2\n        /* \"#utility.yul\":3484:3487   */\n      dup6\n        /* \"#utility.yul\":3477:3481   */\n      0x20\n        /* \"#utility.yul\":3470:3475   */\n      dup7\n        /* \"#utility.yul\":3466:3482   */\n      add\n        /* \"#utility.yul\":3444:3496   */\n      tag_148\n      jump\t// in\n    tag_156:\n        /* \"#utility.yul\":3521:3527   */\n      dup1\n        /* \"#utility.yul\":3516:3519   */\n      dup5\n        /* \"#utility.yul\":3512:3528   */\n      add\n        /* \"#utility.yul\":3505:3528   */\n      swap2\n      pop\n        /* \"#utility.yul\":3267:3534   */\n      pop\n      swap3\n      swap2\n      pop\n      pop\n      jump\t// out\n        /* \"#utility.yul\":3540:3658   */\n    tag_157:\n        /* \"#utility.yul\":3627:3651   */\n      tag_159\n        /* \"#utility.yul\":3645:3650   */\n      dup2\n        /* \"#utility.yul\":3627:3651   */\n      tag_160\n      jump\t// in\n    tag_159:\n        /* \"#utility.yul\":3622:3625   */\n      dup3\n        /* \"#utility.yul\":3615:3652   */\n      mstore\n        /* \"#utility.yul\":3605:3658   */\n      pop\n      pop\n      jump\t// out\n        /* \"#utility.yul\":3664:3939   */\n    tag_60:\n        /* \"#utility.yul\":3796:3799   */\n      0x00\n        /* \"#utility.yul\":3818:3913   */\n      tag_162\n        /* \"#utility.yul\":3909:3912   */\n      dup3\n        /* \"#utility.yul\":3900:3906   */\n      dup5\n        /* \"#utility.yul\":3818:3913   */\n      tag_151\n      jump\t// in\n    tag_162:\n        /* \"#utility.yul\":3811:3913   */\n      swap2\n      pop\n        /* \"#utility.yul\":3930:3933   */\n      dup2\n        /* \"#utility.yul\":3923:3933   */\n      swap1\n      pop\n        /* \"#utility.yul\":3800:3939   */\n      swap3\n      swap2\n      pop\n      pop\n      jump\t// out\n        /* \"#utility.yul\":3945:4167   */\n    tag_26:\n        /* \"#utility.yul\":4038:4042   */\n      0x00\n        /* \"#utility.yul\":4076:4078   */\n      0x20\n        /* \"#utility.yul\":4065:4074   */\n      dup3\n        /* \"#utility.yul\":4061:4079   */\n      add\n        /* \"#utility.yul\":4053:4079   */\n      swap1\n      pop\n        /* \"#utility.yul\":4089:4160   */\n      tag_164\n        /* \"#utility.yul\":4157:4158   */\n      0x00\n        /* \"#utility.yul\":4146:4155   */\n      dup4\n        /* \"#utility.yul\":4142:4159   */\n      add\n        /* \"#utility.yul\":4133:4139   */\n      dup5\n        /* \"#utility.yul\":4089:4160   */\n      tag_157\n      jump\t// in\n    tag_164:\n        /* \"#utility.yul\":4043:4167   */\n      swap3\n      swap2\n      pop\n      pop\n      jump\t// out\n        /* \"#utility.yul\":4173:4797   */\n    tag_39:\n        /* \"#utility.yul\":4362:4366   */\n      0x00\n        /* \"#utility.yul\":4400:4402   */\n      0x60\n        /* \"#utility.yul\":4389:4398   */\n      dup3\n        /* \"#utility.yul\":4385:4403   */\n      add\n        /* \"#utility.yul\":4377:4403   */\n      swap1\n      pop\n        /* \"#utility.yul\":4413:4484   */\n      tag_166\n        /* \"#utility.yul\":4481:4482   */\n      0x00\n        /* \"#utility.yul\":4470:4479   */\n      dup4\n        /* \"#utility.yul\":4466:4483   */\n      add\n        /* \"#utility.yul\":4457:4463   */\n      dup7\n        /* \"#utility.yul\":4413:4484   */\n      tag_157\n      jump\t// in\n    tag_166:\n        /* \"#utility.yul\":4531:4540   */\n      dup2\n        /* \"#utility.yul\":4525:4529   */\n      dup2\n        /* \"#utility.yul\":4521:4541   */\n      sub\n        /* \"#utility.yul\":4516:4518   */\n      0x20\n        /* \"#utility.yul\":4505:4514   */\n      dup4\n        /* \"#utility.yul\":4501:4519   */\n      add\n        /* \"#utility.yul\":4494:4542   */\n      mstore\n        /* \"#utility.yul\":4559:4637   */\n      tag_167\n        /* \"#utility.yul\":4632:4636   */\n      dup2\n        /* \"#utility.yul\":4623:4629   */\n      dup6\n        /* \"#utility.yul\":4559:4637   */\n      tag_141\n      jump\t// in\n    tag_167:\n        /* \"#utility.yul\":4551:4637   */\n      swap1\n      pop\n        /* \"#utility.yul\":4684:4693   */\n      dup2\n        /* \"#utility.yul\":4678:4682   */\n      dup2\n        /* \"#utility.yul\":4674:4694   */\n      sub\n        /* \"#utility.yul\":4669:4671   */\n      0x40\n        /* \"#utility.yul\":4658:4667   */\n      dup4\n        /* \"#utility.yul\":4654:4672   */\n      add\n        /* \"#utility.yul\":4647:4695   */\n      mstore\n        /* \"#utility.yul\":4712:4790   */\n      tag_168\n        /* \"#utility.yul\":4785:4789   */\n      dup2\n        /* \"#utility.yul\":4776:4782   */\n      dup5\n        /* \"#utility.yul\":4712:4790   */\n      tag_141\n      jump\t// in\n    tag_168:\n        /* \"#utility.yul\":4704:4790   */\n      swap1\n      pop\n        /* \"#utility.yul\":4367:4797   */\n      swap5\n      swap4\n      pop\n      pop\n      pop\n      pop\n      jump\t// out\n        /* \"#utility.yul\":4803:4932   */\n    tag_107:\n        /* \"#utility.yul\":4837:4843   */\n      0x00\n        /* \"#utility.yul\":4864:4884   */\n      tag_170\n      tag_171\n      jump\t// in\n    tag_170:\n        /* \"#utility.yul\":4854:4884   */\n      swap1\n      pop\n        /* \"#utility.yul\":4893:4926   */\n      tag_172\n        /* \"#utility.yul\":4921:4925   */\n      dup3\n        /* \"#utility.yul\":4913:4919   */\n      dup3\n        /* \"#utility.yul\":4893:4926   */\n      tag_173\n      jump\t// in\n    tag_172:\n        /* \"#utility.yul\":4844:4932   */\n      swap2\n      swap1\n      pop\n      jump\t// out\n        /* \"#utility.yul\":4938:5013   */\n    tag_171:\n        /* \"#utility.yul\":4971:4977   */\n      0x00\n        /* \"#utility.yul\":5004:5006   */\n      0x40\n        /* \"#utility.yul\":4998:5007   */\n      mload\n        /* \"#utility.yul\":4988:5007   */\n      swap1\n      pop\n        /* \"#utility.yul\":4978:5013   */\n      swap1\n      jump\t// out\n        /* \"#utility.yul\":5019:5327   */\n    tag_106:\n        /* \"#utility.yul\":5081:5085   */\n      0x00\n        /* \"#utility.yul\":5171:5189   */\n      0xffffffffffffffff\n        /* \"#utility.yul\":5163:5169   */\n      dup3\n        /* \"#utility.yul\":5160:5190   */\n      gt\n        /* \"#utility.yul\":5157:5159   */\n      iszero\n      tag_176\n      jumpi\n        /* \"#utility.yul\":5193:5211   */\n      tag_177\n      tag_178\n      jump\t// in\n    tag_177:\n        /* \"#utility.yul\":5157:5159   */\n    tag_176:\n        /* \"#utility.yul\":5231:5260   */\n      tag_179\n        /* \"#utility.yul\":5253:5259   */\n      dup3\n        /* \"#utility.yul\":5231:5260   */\n      tag_150\n      jump\t// in\n    tag_179:\n        /* \"#utility.yul\":5223:5260   */\n      swap1\n      pop\n        /* \"#utility.yul\":5315:5319   */\n      0x20\n        /* \"#utility.yul\":5309:5313   */\n      dup2\n        /* \"#utility.yul\":5305:5320   */\n      add\n        /* \"#utility.yul\":5297:5320   */\n      swap1\n      pop\n        /* \"#utility.yul\":5086:5327   */\n      swap2\n      swap1\n      pop\n      jump\t// out\n        /* \"#utility.yul\":5333:5432   */\n    tag_144:\n        /* \"#utility.yul\":5385:5391   */\n      0x00\n        /* \"#utility.yul\":5419:5424   */\n      dup2\n        /* \"#utility.yul\":5413:5425   */\n      mload\n        /* \"#utility.yul\":5403:5425   */\n      swap1\n      pop\n        /* \"#utility.yul\":5392:5432   */\n      swap2\n      swap1\n      pop\n      jump\t// out\n        /* \"#utility.yul\":5438:5607   */\n    tag_146:\n        /* \"#utility.yul\":5522:5533   */\n      0x00\n        /* \"#utility.yul\":5556:5562   */\n      dup3\n        /* \"#utility.yul\":5551:5554   */\n      dup3\n        /* \"#utility.yul\":5544:5563   */\n      mstore\n        /* \"#utility.yul\":5596:5600   */\n      0x20\n        /* \"#utility.yul\":5591:5594   */\n      dup3\n        /* \"#utility.yul\":5587:5601   */\n      add\n        /* \"#utility.yul\":5572:5601   */\n      swap1\n      pop\n        /* \"#utility.yul\":5534:5607   */\n      swap3\n      swap2\n      pop\n      pop\n      jump\t// out\n        /* \"#utility.yul\":5613:5761   */\n    tag_155:\n        /* \"#utility.yul\":5715:5726   */\n      0x00\n        /* \"#utility.yul\":5752:5755   */\n      dup2\n        /* \"#utility.yul\":5737:5755   */\n      swap1\n      pop\n        /* \"#utility.yul\":5727:5761   */\n      swap3\n      swap2\n      pop\n      pop\n      jump\t// out\n        /* \"#utility.yul\":5767:5863   */\n    tag_183:\n        /* \"#utility.yul\":5804:5811   */\n      0x00\n        /* \"#utility.yul\":5833:5857   */\n      tag_185\n        /* \"#utility.yul\":5851:5856   */\n      dup3\n        /* \"#utility.yul\":5833:5857   */\n      tag_186\n      jump\t// in\n    tag_185:\n        /* \"#utility.yul\":5822:5857   */\n      swap1\n      pop\n        /* \"#utility.yul\":5812:5863   */\n      swap2\n      swap1\n      pop\n      jump\t// out\n        /* \"#utility.yul\":5869:5995   */\n    tag_186:\n        /* \"#utility.yul\":5906:5913   */\n      0x00\n        /* \"#utility.yul\":5946:5988   */\n      0xffffffffffffffffffffffffffffffffffffffff\n        /* \"#utility.yul\":5939:5944   */\n      dup3\n        /* \"#utility.yul\":5935:5989   */\n      and\n        /* \"#utility.yul\":5924:5989   */\n      swap1\n      pop\n        /* \"#utility.yul\":5914:5995   */\n      swap2\n      swap1\n      pop\n      jump\t// out\n        /* \"#utility.yul\":6001:6078   */\n    tag_160:\n        /* \"#utility.yul\":6038:6045   */\n      0x00\n        /* \"#utility.yul\":6067:6072   */\n      dup2\n        /* \"#utility.yul\":6056:6072   */\n      swap1\n      pop\n        /* \"#utility.yul\":6046:6078   */\n      swap2\n      swap1\n      pop\n      jump\t// out\n        /* \"#utility.yul\":6084:6238   */\n    tag_110:\n        /* \"#utility.yul\":6168:6174   */\n      dup3\n        /* \"#utility.yul\":6163:6166   */\n      dup2\n        /* \"#utility.yul\":6158:6161   */\n      dup4\n        /* \"#utility.yul\":6145:6175   */\n      calldatacopy\n        /* \"#utility.yul\":6230:6231   */\n      0x00\n        /* \"#utility.yul\":6221:6227   */\n      dup4\n        /* \"#utility.yul\":6216:6219   */\n      dup4\n        /* \"#utility.yul\":6212:6228   */\n      add\n        /* \"#utility.yul\":6205:6232   */\n      mstore\n        /* \"#utility.yul\":6135:6238   */\n      pop\n      pop\n      pop\n      jump\t// out\n        /* \"#utility.yul\":6244:6551   */\n    tag_148:\n        /* \"#utility.yul\":6312:6313   */\n      0x00\n        /* \"#utility.yul\":6322:6435   */\n    tag_191:\n        /* \"#utility.yul\":6336:6342   */\n      dup4\n        /* \"#utility.yul\":6333:6334   */\n      dup2\n        /* \"#utility.yul\":6330:6343   */\n      lt\n        /* \"#utility.yul\":6322:6435   */\n      iszero\n      tag_193\n      jumpi\n        /* \"#utility.yul\":6421:6422   */\n      dup1\n        /* \"#utility.yul\":6416:6419   */\n      dup3\n        /* \"#utility.yul\":6412:6423   */\n      add\n        /* \"#utility.yul\":6406:6424   */\n      mload\n        /* \"#utility.yul\":6402:6403   */\n      dup2\n        /* \"#utility.yul\":6397:6400   */\n      dup5\n        /* \"#utility.yul\":6393:6404   */\n      add\n        /* \"#utility.yul\":6386:6425   */\n      mstore\n        /* \"#utility.yul\":6358:6360   */\n      0x20\n        /* \"#utility.yul\":6355:6356   */\n      dup2\n        /* \"#utility.yul\":6351:6361   */\n      add\n        /* \"#utility.yul\":6346:6361   */\n      swap1\n      pop\n        /* \"#utility.yul\":6322:6435   */\n      jump(tag_191)\n    tag_193:\n        /* \"#utility.yul\":6453:6459   */\n      dup4\n        /* \"#utility.yul\":6450:6451   */\n      dup2\n        /* \"#utility.yul\":6447:6460   */\n      gt\n        /* \"#utility.yul\":6444:6446   */\n      iszero\n      tag_194\n      jumpi\n        /* \"#utility.yul\":6533:6534   */\n      0x00\n        /* \"#utility.yul\":6524:6530   */\n      dup5\n        /* \"#utility.yul\":6519:6522   */\n      dup5\n        /* \"#utility.yul\":6515:6531   */\n      add\n        /* \"#utility.yul\":6508:6535   */\n      mstore\n        /* \"#utility.yul\":6444:6446   */\n    tag_194:\n        /* \"#utility.yul\":6293:6551   */\n      pop\n      pop\n      pop\n      pop\n      jump\t// out\n        /* \"#utility.yul\":6557:6877   */\n    tag_65:\n        /* \"#utility.yul\":6601:6607   */\n      0x00\n        /* \"#utility.yul\":6638:6639   */\n      0x02\n        /* \"#utility.yul\":6632:6636   */\n      dup3\n        /* \"#utility.yul\":6628:6640   */\n      div\n        /* \"#utility.yul\":6618:6640   */\n      swap1\n      pop\n        /* \"#utility.yul\":6685:6686   */\n      0x01\n        /* \"#utility.yul\":6679:6683   */\n      dup3\n        /* \"#utility.yul\":6675:6687   */\n      and\n        /* \"#utility.yul\":6706:6724   */\n      dup1\n        /* \"#utility.yul\":6696:6698   */\n      tag_196\n      jumpi\n        /* \"#utility.yul\":6762:6766   */\n      0x7f\n        /* \"#utility.yul\":6754:6760   */\n      dup3\n        /* \"#utility.yul\":6750:6767   */\n      and\n        /* \"#utility.yul\":6740:6767   */\n      swap2\n      pop\n        /* \"#utility.yul\":6696:6698   */\n    tag_196:\n        /* \"#utility.yul\":6824:6826   */\n      0x20\n        /* \"#utility.yul\":6816:6822   */\n      dup3\n        /* \"#utility.yul\":6813:6827   */\n      lt\n        /* \"#utility.yul\":6793:6811   */\n      dup2\n        /* \"#utility.yul\":6790:6828   */\n      eq\n        /* \"#utility.yul\":6787:6789   */\n      iszero\n      tag_197\n      jumpi\n        /* \"#utility.yul\":6843:6861   */\n      tag_198\n      tag_199\n      jump\t// in\n    tag_198:\n        /* \"#utility.yul\":6787:6789   */\n    tag_197:\n        /* \"#utility.yul\":6608:6877   */\n      pop\n      swap2\n      swap1\n      pop\n      jump\t// out\n        /* \"#utility.yul\":6883:7164   */\n    tag_173:\n        /* \"#utility.yul\":6966:6993   */\n      tag_201\n        /* \"#utility.yul\":6988:6992   */\n      dup3\n        /* \"#utility.yul\":6966:6993   */\n      tag_150\n      jump\t// in\n    tag_201:\n        /* \"#utility.yul\":6958:6964   */\n      dup2\n        /* \"#utility.yul\":6954:6994   */\n      add\n        /* \"#utility.yul\":7096:7102   */\n      dup2\n        /* \"#utility.yul\":7084:7094   */\n      dup2\n        /* \"#utility.yul\":7081:7103   */\n      lt\n        /* \"#utility.yul\":7060:7078   */\n      0xffffffffffffffff\n        /* \"#utility.yul\":7048:7058   */\n      dup3\n        /* \"#utility.yul\":7045:7079   */\n      gt\n        /* \"#utility.yul\":7042:7104   */\n      or\n        /* \"#utility.yul\":7039:7041   */\n      iszero\n      tag_202\n      jumpi\n        /* \"#utility.yul\":7107:7125   */\n      tag_203\n      tag_178\n      jump\t// in\n    tag_203:\n        /* \"#utility.yul\":7039:7041   */\n    tag_202:\n        /* \"#utility.yul\":7147:7157   */\n      dup1\n        /* \"#utility.yul\":7143:7145   */\n      0x40\n        /* \"#utility.yul\":7136:7158   */\n      mstore\n        /* \"#utility.yul\":6926:7164   */\n      pop\n      pop\n      pop\n      jump\t// out\n        /* \"#utility.yul\":7170:7350   */\n    tag_199:\n        /* \"#utility.yul\":7218:7295   */\n      0x4e487b7100000000000000000000000000000000000000000000000000000000\n        /* \"#utility.yul\":7215:7216   */\n      0x00\n        /* \"#utility.yul\":7208:7296   */\n      mstore\n        /* \"#utility.yul\":7315:7319   */\n      0x22\n        /* \"#utility.yul\":7312:7313   */\n      0x04\n        /* \"#utility.yul\":7305:7320   */\n      mstore\n        /* \"#utility.yul\":7339:7343   */\n      0x24\n        /* \"#utility.yul\":7336:7337   */\n      0x00\n        /* \"#utility.yul\":7329:7344   */\n      revert\n        /* \"#utility.yul\":7356:7536   */\n    tag_178:\n        /* \"#utility.yul\":7404:7481   */\n      0x4e487b7100000000000000000000000000000000000000000000000000000000\n        /* \"#utility.yul\":7401:7402   */\n      0x00\n        /* \"#utility.yul\":7394:7482   */\n      mstore\n        /* \"#utility.yul\":7501:7505   */\n      0x41\n        /* \"#utility.yul\":7498:7499   */\n      0x04\n        /* \"#utility.yul\":7491:7506   */\n      mstore\n        /* \"#utility.yul\":7525:7529   */\n      0x24\n        /* \"#utility.yul\":7522:7523   */\n      0x00\n        /* \"#utility.yul\":7515:7530   */\n      revert\n        /* \"#utility.yul\":7542:7644   */\n    tag_150:\n        /* \"#utility.yul\":7583:7589   */\n      0x00\n        /* \"#utility.yul\":7634:7636   */\n      0x1f\n        /* \"#utility.yul\":7630:7637   */\n      not\n        /* \"#utility.yul\":7625:7627   */\n      0x1f\n        /* \"#utility.yul\":7618:7623   */\n      dup4\n        /* \"#utility.yul\":7614:7628   */\n      add\n        /* \"#utility.yul\":7610:7638   */\n      and\n        /* \"#utility.yul\":7600:7638   */\n      swap1\n      pop\n        /* \"#utility.yul\":7590:7644   */\n      swap2\n      swap1\n      pop\n      jump\t// out\n        /* \"#utility.yul\":7650:7772   */\n    tag_114:\n        /* \"#utility.yul\":7723:7747   */\n      tag_208\n        /* \"#utility.yul\":7741:7746   */\n      dup2\n        /* \"#utility.yul\":7723:7747   */\n      tag_183\n      jump\t// in\n    tag_208:\n        /* \"#utility.yul\":7716:7721   */\n      dup2\n        /* \"#utility.yul\":7713:7748   */\n      eq\n        /* \"#utility.yul\":7703:7705   */\n      tag_209\n      jumpi\n        /* \"#utility.yul\":7762:7763   */\n      0x00\n        /* \"#utility.yul\":7759:7760   */\n      dup1\n        /* \"#utility.yul\":7752:7764   */\n      revert\n        /* \"#utility.yul\":7703:7705   */\n    tag_209:\n        /* \"#utility.yul\":7693:7772   */\n      pop\n      jump\t// out\n        /* \"#utility.yul\":7778:7900   */\n    tag_122:\n        /* \"#utility.yul\":7851:7875   */\n      tag_211\n        /* \"#utility.yul\":7869:7874   */\n      dup2\n        /* \"#utility.yul\":7851:7875   */\n      tag_160\n      jump\t// in\n    tag_211:\n        /* \"#utility.yul\":7844:7849   */\n      dup2\n        /* \"#utility.yul\":7841:7876   */\n      eq\n        /* \"#utility.yul\":7831:7833   */\n      tag_212\n      jumpi\n        /* \"#utility.yul\":7890:7891   */\n      0x00\n        /* \"#utility.yul\":7887:7888   */\n      dup1\n        /* \"#utility.yul\":7880:7892   */\n      revert\n        /* \"#utility.yul\":7831:7833   */\n    tag_212:\n        /* \"#utility.yul\":7821:7900   */\n      pop\n      jump\t// out\n\n    auxdata: 0xa26469706673582212202493d877e3cbd7f1013845c4e2313ac1c0f3272963a75e5e7991829a6110fa3c64736f6c63430008040033\n}\n",
				"bytecode": {
					"linkReferences": {},
					"object": "60806040526040518060600160405280600181526020016040518060400160405280600581526020017f6c7563617300000000000000000000000000000000000000000000000000000081525081526020016040518060400160405280601581526020017f6c756b6173707261646f3840676d61696c2e636f6d000000000000000000000081525081525060008082015181600001556020820151816001019080519060200190620000b392919062000137565b506040820151816002019080519060200190620000d292919062000137565b5050506040518060a00160405280600160ff168152602001600260ff168152602001600360ff168152602001600460ff168152602001600560ff16815250600390600562000122929190620001c8565b503480156200013057600080fd5b5062000296565b828054620001459062000231565b90600052602060002090601f016020900481019282620001695760008555620001b5565b82601f106200018457805160ff1916838001178555620001b5565b82800160010185558215620001b5579182015b82811115620001b457825182559160200191906001019062000197565b5b509050620001c4919062000212565b5090565b8260058101928215620001ff579160200282015b82811115620001fe578251829060ff16905591602001919060010190620001dc565b5b5090506200020e919062000212565b5090565b5b808211156200022d57600081600090555060010162000213565b5090565b600060028204905060018216806200024a57607f821691505b6020821081141562000261576200026062000267565b5b50919050565b7f4e487b7100000000000000000000000000000000000000000000000000000000600052602260045260246000fd5b610c4280620002a66000396000f3fe608060405234801561001057600080fd5b50600436106100935760003560e01c806389553d461161006657806389553d4614610130578063bff410511461014c578063c5d907061461017e578063e1bdbb84146101b0578063fecb2c16146101cc57610093565b80630d42326214610098578063141c4037146100b45780631d5b0438146100d05780632d7bd87714610100575b600080fd5b6100b260048036038101906100ad91906108a2565b6101fc565b005b6100ce60048036038101906100c99190610879565b6102a2565b005b6100ea60048036038101906100e59190610825565b6102e9565b6040516100f791906109b1565b60405180910390f35b61011a600480360381019061011591906107fc565b610330565b60405161012791906109b1565b60405180910390f35b61014a60048036038101906101459190610825565b610348565b005b61016660048036038101906101619190610879565b610391565b604051610175939291906109cc565b60405180910390f35b610198600480360381019061019391906107fc565b6104db565b6040516101a7939291906109cc565b60405180910390f35b6101ca60048036038101906101c591906108a2565b610615565b005b6101e660048036038101906101e19190610879565b6106ac565b6040516101f391906109b1565b60405180910390f35b604051806060016040528084815260200183815260200182815250600c60003373ffffffffffffffffffffffffffffffffffffffff1673ffffffffffffffffffffffffffffffffffffffff16815260200190815260200160002060008201518160000155602082015181600101908051906020019061027c9291906106c7565b5060408201518160020190805190602001906102999291906106c7565b50905050505050565b80600a60003373ffffffffffffffffffffffffffffffffffffffff1673ffffffffffffffffffffffffffffffffffffffff1681526020019081526020016000208190555050565b600b82805160208101820180518482526020830160208501208183528095505050505050818154811061031b57600080fd5b90600052602060002001600091509150505481565b600a6020528060005260406000206000915090505481565b600b82604051610358919061099a565b90815260200160405180910390208190806001815401808255809150506001900390600052602060002001600090919091909150555050565b600981815481106103a157600080fd5b90600052602060002090600302016000915090508060000154908060010180546103ca90610b0c565b80601f01602080910402602001604051908101604052809291908181526020018280546103f690610b0c565b80156104435780601f1061041857610100808354040283529160200191610443565b820191906000526020600020905b81548152906001019060200180831161042657829003601f168201915b50505050509080600201805461045890610b0c565b80601f016020809104026020016040519081016040528092919081815260200182805461048490610b0c565b80156104d15780601f106104a6576101008083540402835291602001916104d1565b820191906000526020600020905b8154815290600101906020018083116104b457829003601f168201915b5050505050905083565b600c60205280600052604060002060009150905080600001549080600101805461050490610b0c565b80601f016020809104026020016040519081016040528092919081815260200182805461053090610b0c565b801561057d5780601f106105525761010080835404028352916020019161057d565b820191906000526020600020905b81548152906001019060200180831161056057829003601f168201915b50505050509080600201805461059290610b0c565b80601f01602080910402602001604051908101604052809291908181526020018280546105be90610b0c565b801561060b5780601f106105e05761010080835404028352916020019161060b565b820191906000526020600020905b8154815290600101906020018083116105ee57829003601f168201915b5050505050905083565b6000604051806060016040528085815260200184815260200183815250905060098190806001815401808255809150506001900390600052602060002090600302016000909190919091506000820151816000015560208201518160010190805190602001906106869291906106c7565b5060408201518160020190805190602001906106a39291906106c7565b50505050505050565b600381600581106106bc57600080fd5b016000915090505481565b8280546106d390610b0c565b90600052602060002090601f0160209004810192826106f5576000855561073c565b82601f1061070e57805160ff191683800117855561073c565b8280016001018555821561073c579182015b8281111561073b578251825591602001919060010190610720565b5b509050610749919061074d565b5090565b5b8082111561076657600081600090555060010161074e565b5090565b600061077d61077884610a36565b610a11565b90508281526020810184848401111561079557600080fd5b6107a0848285610aca565b509392505050565b6000813590506107b781610bde565b92915050565b600082601f8301126107ce57600080fd5b81356107de84826020860161076a565b91505092915050565b6000813590506107f681610bf5565b92915050565b60006020828403121561080e57600080fd5b600061081c848285016107a8565b91505092915050565b6000806040838503121561083857600080fd5b600083013567ffffffffffffffff81111561085257600080fd5b61085e858286016107bd565b925050602061086f858286016107e7565b9150509250929050565b60006020828403121561088b57600080fd5b6000610899848285016107e7565b91505092915050565b6000806000606084860312156108b757600080fd5b60006108c5868287016107e7565b935050602084013567ffffffffffffffff8111156108e257600080fd5b6108ee868287016107bd565b925050604084013567ffffffffffffffff81111561090b57600080fd5b610917868287016107bd565b9150509250925092565b600061092c82610a67565b6109368185610a72565b9350610946818560208601610ad9565b61094f81610bcd565b840191505092915050565b600061096582610a67565b61096f8185610a83565b935061097f818560208601610ad9565b80840191505092915050565b61099481610ac0565b82525050565b60006109a6828461095a565b915081905092915050565b60006020820190506109c6600083018461098b565b92915050565b60006060820190506109e1600083018661098b565b81810360208301526109f38185610921565b90508181036040830152610a078184610921565b9050949350505050565b6000610a1b610a2c565b9050610a278282610b3e565b919050565b6000604051905090565b600067ffffffffffffffff821115610a5157610a50610b9e565b5b610a5a82610bcd565b9050602081019050919050565b600081519050919050565b600082825260208201905092915050565b600081905092915050565b6000610a9982610aa0565b9050919050565b600073ffffffffffffffffffffffffffffffffffffffff82169050919050565b6000819050919050565b82818337600083830152505050565b60005b83811015610af7578082015181840152602081019050610adc565b83811115610b06576000848401525b50505050565b60006002820490506001821680610b2457607f821691505b60208210811415610b3857610b37610b6f565b5b50919050565b610b4782610bcd565b810181811067ffffffffffffffff82111715610b6657610b65610b9e565b5b80604052505050565b7f4e487b7100000000000000000000000000000000000000000000000000000000600052602260045260246000fd5b7f4e487b7100000000000000000000000000000000000000000000000000000000600052604160045260246000fd5b6000601f19601f8301169050919050565b610be781610a8e565b8114610bf257600080fd5b50565b610bfe81610ac0565b8114610c0957600080fd5b5056fea26469706673582212202493d877e3cbd7f1013845c4e2313ac1c0f3272963a75e5e7991829a6110fa3c64736f6c63430008040033",
					"opcodes": "PUSH1 0x80 PUSH1 0x40 MSTORE PUSH1 0x40 MLOAD DUP1 PUSH1 0x60 ADD PUSH1 0x40 MSTORE DUP1 PUSH1 0x1 DUP2 MSTORE PUSH1 0x20 ADD PUSH1 0x40 MLOAD DUP1 PUSH1 0x40 ADD PUSH1 0x40 MSTORE DUP1 PUSH1 0x5 DUP2 MSTORE PUSH1 0x20 ADD PUSH32 0x6C75636173000000000000000000000000000000000000000000000000000000 DUP2 MSTORE POP DUP2 MSTORE PUSH1 0x20 ADD PUSH1 0x40 MLOAD DUP1 PUSH1 0x40 ADD PUSH1 0x40 MSTORE DUP1 PUSH1 0x15 DUP2 MSTORE PUSH1 0x20 ADD PUSH32 0x6C756B6173707261646F3840676D61696C2E636F6D0000000000000000000000 DUP2 MSTORE POP DUP2 MSTORE POP PUSH1 0x0 DUP1 DUP3 ADD MLOAD DUP2 PUSH1 0x0 ADD SSTORE PUSH1 0x20 DUP3 ADD MLOAD DUP2 PUSH1 0x1 ADD SWAP1 DUP1 MLOAD SWAP1 PUSH1 0x20 ADD SWAP1 PUSH3 0xB3 SWAP3 SWAP2 SWAP1 PUSH3 0x137 JUMP JUMPDEST POP PUSH1 0x40 DUP3 ADD MLOAD DUP2 PUSH1 0x2 ADD SWAP1 DUP1 MLOAD SWAP1 PUSH1 0x20 ADD SWAP1 PUSH3 0xD2 SWAP3 SWAP2 SWAP1 PUSH3 0x137 JUMP JUMPDEST POP POP POP PUSH1 0x40 MLOAD DUP1 PUSH1 0xA0 ADD PUSH1 0x40 MSTORE DUP1 PUSH1 0x1 PUSH1 0xFF AND DUP2 MSTORE PUSH1 0x20 ADD PUSH1 0x2 PUSH1 0xFF AND DUP2 MSTORE PUSH1 0x20 ADD PUSH1 0x3 PUSH1 0xFF AND DUP2 MSTORE PUSH1 0x20 ADD PUSH1 0x4 PUSH1 0xFF AND DUP2 MSTORE PUSH1 0x20 ADD PUSH1 0x5 PUSH1 0xFF AND DUP2 MSTORE POP PUSH1 0x3 SWAP1 PUSH1 0x5 PUSH3 0x122 SWAP3 SWAP2 SWAP1 PUSH3 0x1C8 JUMP JUMPDEST POP CALLVALUE DUP1 ISZERO PUSH3 0x130 JUMPI PUSH1 0x0 DUP1 REVERT JUMPDEST POP PUSH3 0x296 JUMP JUMPDEST DUP3 DUP1 SLOAD PUSH3 0x145 SWAP1 PUSH3 0x231 JUMP JUMPDEST SWAP1 PUSH1 0x0 MSTORE PUSH1 0x20 PUSH1 0x0 KECCAK256 SWAP1 PUSH1 0x1F ADD PUSH1 0x20 SWAP1 DIV DUP2 ADD SWAP3 DUP3 PUSH3 0x169 JUMPI PUSH1 0x0 DUP6 SSTORE PUSH3 0x1B5 JUMP JUMPDEST DUP3 PUSH1 0x1F LT PUSH3 0x184 JUMPI DUP1 MLOAD PUSH1 0xFF NOT AND DUP4 DUP1 ADD OR DUP6 SSTORE PUSH3 0x1B5 JUMP JUMPDEST DUP3 DUP1 ADD PUSH1 0x1 ADD DUP6 SSTORE DUP3 ISZERO PUSH3 0x1B5 JUMPI SWAP2 DUP3 ADD JUMPDEST DUP3 DUP2 GT ISZERO PUSH3 0x1B4 JUMPI DUP3 MLOAD DUP3 SSTORE SWAP2 PUSH1 0x20 ADD SWAP2 SWAP1 PUSH1 0x1 ADD SWAP1 PUSH3 0x197 JUMP JUMPDEST JUMPDEST POP SWAP1 POP PUSH3 0x1C4 SWAP2 SWAP1 PUSH3 0x212 JUMP JUMPDEST POP SWAP1 JUMP JUMPDEST DUP3 PUSH1 0x5 DUP2 ADD SWAP3 DUP3 ISZERO PUSH3 0x1FF JUMPI SWAP2 PUSH1 0x20 MUL DUP3 ADD JUMPDEST DUP3 DUP2 GT ISZERO PUSH3 0x1FE JUMPI DUP3 MLOAD DUP3 SWAP1 PUSH1 0xFF AND SWAP1 SSTORE SWAP2 PUSH1 0x20 ADD SWAP2 SWAP1 PUSH1 0x1 ADD SWAP1 PUSH3 0x1DC JUMP JUMPDEST JUMPDEST POP SWAP1 POP PUSH3 0x20E SWAP2 SWAP1 PUSH3 0x212 JUMP JUMPDEST POP SWAP1 JUMP JUMPDEST JUMPDEST DUP1 DUP3 GT ISZERO PUSH3 0x22D JUMPI PUSH1 0x0 DUP2 PUSH1 0x0 SWAP1 SSTORE POP PUSH1 0x1 ADD PUSH3 0x213 JUMP JUMPDEST POP SWAP1 JUMP JUMPDEST PUSH1 0x0 PUSH1 0x2 DUP3 DIV SWAP1 POP PUSH1 0x1 DUP3 AND DUP1 PUSH3 0x24A JUMPI PUSH1 0x7F DUP3 AND SWAP2 POP JUMPDEST PUSH1 0x20 DUP3 LT DUP2 EQ ISZERO PUSH3 0x261 JUMPI PUSH3 0x260 PUSH3 0x267 JUMP JUMPDEST JUMPDEST POP SWAP2 SWAP1 POP JUMP JUMPDEST PUSH32 0x4E487B7100000000000000000000000000000000000000000000000000000000 PUSH1 0x0 MSTORE PUSH1 0x22 PUSH1 0x4 MSTORE PUSH1 0x24 PUSH1 0x0 REVERT JUMPDEST PUSH2 0xC42 DUP1 PUSH3 0x2A6 PUSH1 0x0 CODECOPY PUSH1 0x0 RETURN INVALID PUSH1 0x80 PUSH1 0x40 MSTORE CALLVALUE DUP1 ISZERO PUSH2 0x10 JUMPI PUSH1 0x0 DUP1 REVERT JUMPDEST POP PUSH1 0x4 CALLDATASIZE LT PUSH2 0x93 JUMPI PUSH1 0x0 CALLDATALOAD PUSH1 0xE0 SHR DUP1 PUSH4 0x89553D46 GT PUSH2 0x66 JUMPI DUP1 PUSH4 0x89553D46 EQ PUSH2 0x130 JUMPI DUP1 PUSH4 0xBFF41051 EQ PUSH2 0x14C JUMPI DUP1 PUSH4 0xC5D90706 EQ PUSH2 0x17E JUMPI DUP1 PUSH4 0xE1BDBB84 EQ PUSH2 0x1B0 JUMPI DUP1 PUSH4 0xFECB2C16 EQ PUSH2 0x1CC JUMPI PUSH2 0x93 JUMP JUMPDEST DUP1 PUSH4 0xD423262 EQ PUSH2 0x98 JUMPI DUP1 PUSH4 0x141C4037 EQ PUSH2 0xB4 JUMPI DUP1 PUSH4 0x1D5B0438 EQ PUSH2 0xD0 JUMPI DUP1 PUSH4 0x2D7BD877 EQ PUSH2 0x100 JUMPI JUMPDEST PUSH1 0x0 DUP1 REVERT JUMPDEST PUSH2 0xB2 PUSH1 0x4 DUP1 CALLDATASIZE SUB DUP2 ADD SWAP1 PUSH2 0xAD SWAP2 SWAP1 PUSH2 0x8A2 JUMP JUMPDEST PUSH2 0x1FC JUMP JUMPDEST STOP JUMPDEST PUSH2 0xCE PUSH1 0x4 DUP1 CALLDATASIZE SUB DUP2 ADD SWAP1 PUSH2 0xC9 SWAP2 SWAP1 PUSH2 0x879 JUMP JUMPDEST PUSH2 0x2A2 JUMP JUMPDEST STOP JUMPDEST PUSH2 0xEA PUSH1 0x4 DUP1 CALLDATASIZE SUB DUP2 ADD SWAP1 PUSH2 0xE5 SWAP2 SWAP1 PUSH2 0x825 JUMP JUMPDEST PUSH2 0x2E9 JUMP JUMPDEST PUSH1 0x40 MLOAD PUSH2 0xF7 SWAP2 SWAP1 PUSH2 0x9B1 JUMP JUMPDEST PUSH1 0x40 MLOAD DUP1 SWAP2 SUB SWAP1 RETURN JUMPDEST PUSH2 0x11A PUSH1 0x4 DUP1 CALLDATASIZE SUB DUP2 ADD SWAP1 PUSH2 0x115 SWAP2 SWAP1 PUSH2 0x7FC JUMP JUMPDEST PUSH2 0x330 JUMP JUMPDEST PUSH1 0x40 MLOAD PUSH2 0x127 SWAP2 SWAP1 PUSH2 0x9B1 JUMP JUMPDEST PUSH1 0x40 MLOAD DUP1 SWAP2 SUB SWAP1 RETURN JUMPDEST PUSH2 0x14A PUSH1 0x4 DUP1 CALLDATASIZE SUB DUP2 ADD SWAP1 PUSH2 0x145 SWAP2 SWAP1 PUSH2 0x825 JUMP JUMPDEST PUSH2 0x348 JUMP JUMPDEST STOP JUMPDEST PUSH2 0x166 PUSH1 0x4 DUP1 CALLDATASIZE SUB DUP2 ADD SWAP1 PUSH2 0x161 SWAP2 SWAP1 PUSH2 0x879 JUMP JUMPDEST PUSH2 0x391 JUMP JUMPDEST PUSH1 0x40 MLOAD PUSH2 0x175 SWAP4 SWAP3 SWAP2 SWAP1 PUSH2 0x9CC JUMP JUMPDEST PUSH1 0x40 MLOAD DUP1 SWAP2 SUB SWAP1 RETURN JUMPDEST PUSH2 0x198 PUSH1 0x4 DUP1 CALLDATASIZE SUB DUP2 ADD SWAP1 PUSH2 0x193 SWAP2 SWAP1 PUSH2 0x7FC JUMP JUMPDEST PUSH2 0x4DB JUMP JUMPDEST PUSH1 0x40 MLOAD PUSH2 0x1A7 SWAP4 SWAP3 SWAP2 SWAP1 PUSH2 0x9CC JUMP JUMPDEST PUSH1 0x40 MLOAD DUP1 SWAP2 SUB SWAP1 RETURN JUMPDEST PUSH2 0x1CA PUSH1 0x4 DUP1 CALLDATASIZE SUB DUP2 ADD SWAP1 PUSH2 0x1C5 SWAP2 SWAP1 PUSH2 0x8A2 JUMP JUMPDEST PUSH2 0x615 JUMP JUMPDEST STOP JUMPDEST PUSH2 0x1E6 PUSH1 0x4 DUP1 CALLDATASIZE SUB DUP2 ADD SWAP1 PUSH2 0x1E1 SWAP2 SWAP1 PUSH2 0x879 JUMP JUMPDEST PUSH2 0x6AC JUMP JUMPDEST PUSH1 0x40 MLOAD PUSH2 0x1F3 SWAP2 SWAP1 PUSH2 0x9B1 JUMP JUMPDEST PUSH1 0x40 MLOAD DUP1 SWAP2 SUB SWAP1 RETURN JUMPDEST PUSH1 0x40 MLOAD DUP1 PUSH1 0x60 ADD PUSH1 0x40 MSTORE DUP1 DUP5 DUP2 MSTORE PUSH1 0x20 ADD DUP4 DUP2 MSTORE PUSH1 0x20 ADD DUP3 DUP2 MSTORE POP PUSH1 0xC PUSH1 0x0 CALLER PUSH20 0xFFFFFFFFFFFFFFFFFFFFFFFFFFFFFFFFFFFFFFFF AND PUSH20 0xFFFFFFFFFFFFFFFFFFFFFFFFFFFFFFFFFFFFFFFF AND DUP2 MSTORE PUSH1 0x20 ADD SWAP1 DUP2 MSTORE PUSH1 0x20 ADD PUSH1 0x0 KECCAK256 PUSH1 0x0 DUP3 ADD MLOAD DUP2 PUSH1 0x0 ADD SSTORE PUSH1 0x20 DUP3 ADD MLOAD DUP2 PUSH1 0x1 ADD SWAP1 DUP1 MLOAD SWAP1 PUSH1 0x20 ADD SWAP1 PUSH2 0x27C SWAP3 SWAP2 SWAP1 PUSH2 0x6C7 JUMP JUMPDEST POP PUSH1 0x40 DUP3 ADD MLOAD DUP2 PUSH1 0x2 ADD SWAP1 DUP1 MLOAD SWAP1 PUSH1 0x20 ADD SWAP1 PUSH2 0x299 SWAP3 SWAP2 SWAP1 PUSH2 0x6C7 JUMP JUMPDEST POP SWAP1 POP POP POP POP POP JUMP JUMPDEST DUP1 PUSH1 0xA PUSH1 0x0 CALLER PUSH20 0xFFFFFFFFFFFFFFFFFFFFFFFFFFFFFFFFFFFFFFFF AND PUSH20 0xFFFFFFFFFFFFFFFFFFFFFFFFFFFFFFFFFFFFFFFF AND DUP2 MSTORE PUSH1 0x20 ADD SWAP1 DUP2 MSTORE PUSH1 0x20 ADD PUSH1 0x0 KECCAK256 DUP2 SWAP1 SSTORE POP POP JUMP JUMPDEST PUSH1 0xB DUP3 DUP1 MLOAD PUSH1 0x20 DUP2 ADD DUP3 ADD DUP1 MLOAD DUP5 DUP3 MSTORE PUSH1 0x20 DUP4 ADD PUSH1 0x20 DUP6 ADD KECCAK256 DUP2 DUP4 MSTORE DUP1 SWAP6 POP POP POP POP POP POP DUP2 DUP2 SLOAD DUP2 LT PUSH2 0x31B JUMPI PUSH1 0x0 DUP1 REVERT JUMPDEST SWAP1 PUSH1 0x0 MSTORE PUSH1 0x20 PUSH1 0x0 KECCAK256 ADD PUSH1 0x0 SWAP2 POP SWAP2 POP POP SLOAD DUP2 JUMP JUMPDEST PUSH1 0xA PUSH1 0x20 MSTORE DUP1 PUSH1 0x0 MSTORE PUSH1 0x40 PUSH1 0x0 KECCAK256 PUSH1 0x0 SWAP2 POP SWAP1 POP SLOAD DUP2 JUMP JUMPDEST PUSH1 0xB DUP3 PUSH1 0x40 MLOAD PUSH2 0x358 SWAP2 SWAP1 PUSH2 0x99A JUMP JUMPDEST SWAP1 DUP2 MSTORE PUSH1 0x20 ADD PUSH1 0x40 MLOAD DUP1 SWAP2 SUB SWAP1 KECCAK256 DUP2 SWAP1 DUP1 PUSH1 0x1 DUP2 SLOAD ADD DUP1 DUP3 SSTORE DUP1 SWAP2 POP POP PUSH1 0x1 SWAP1 SUB SWAP1 PUSH1 0x0 MSTORE PUSH1 0x20 PUSH1 0x0 KECCAK256 ADD PUSH1 0x0 SWAP1 SWAP2 SWAP1 SWAP2 SWAP1 SWAP2 POP SSTORE POP POP JUMP JUMPDEST PUSH1 0x9 DUP2 DUP2 SLOAD DUP2 LT PUSH2 0x3A1 JUMPI PUSH1 0x0 DUP1 REVERT JUMPDEST SWAP1 PUSH1 0x0 MSTORE PUSH1 0x20 PUSH1 0x0 KECCAK256 SWAP1 PUSH1 0x3 MUL ADD PUSH1 0x0 SWAP2 POP SWAP1 POP DUP1 PUSH1 0x0 ADD SLOAD SWAP1 DUP1 PUSH1 0x1 ADD DUP1 SLOAD PUSH2 0x3CA SWAP1 PUSH2 0xB0C JUMP JUMPDEST DUP1 PUSH1 0x1F ADD PUSH1 0x20 DUP1 SWAP2 DIV MUL PUSH1 0x20 ADD PUSH1 0x40 MLOAD SWAP1 DUP2 ADD PUSH1 0x40 MSTORE DUP1 SWAP3 SWAP2 SWAP1 DUP2 DUP2 MSTORE PUSH1 0x20 ADD DUP3 DUP1 SLOAD PUSH2 0x3F6 SWAP1 PUSH2 0xB0C JUMP JUMPDEST DUP1 ISZERO PUSH2 0x443 JUMPI DUP1 PUSH1 0x1F LT PUSH2 0x418 JUMPI PUSH2 0x100 DUP1 DUP4 SLOAD DIV MUL DUP4 MSTORE SWAP2 PUSH1 0x20 ADD SWAP2 PUSH2 0x443 JUMP JUMPDEST DUP3 ADD SWAP2 SWAP1 PUSH1 0x0 MSTORE PUSH1 0x20 PUSH1 0x0 KECCAK256 SWAP1 JUMPDEST DUP2 SLOAD DUP2 MSTORE SWAP1 PUSH1 0x1 ADD SWAP1 PUSH1 0x20 ADD DUP1 DUP4 GT PUSH2 0x426 JUMPI DUP3 SWAP1 SUB PUSH1 0x1F AND DUP3 ADD SWAP2 JUMPDEST POP POP POP POP POP SWAP1 DUP1 PUSH1 0x2 ADD DUP1 SLOAD PUSH2 0x458 SWAP1 PUSH2 0xB0C JUMP JUMPDEST DUP1 PUSH1 0x1F ADD PUSH1 0x20 DUP1 SWAP2 DIV MUL PUSH1 0x20 ADD PUSH1 0x40 MLOAD SWAP1 DUP2 ADD PUSH1 0x40 MSTORE DUP1 SWAP3 SWAP2 SWAP1 DUP2 DUP2 MSTORE PUSH1 0x20 ADD DUP3 DUP1 SLOAD PUSH2 0x484 SWAP1 PUSH2 0xB0C JUMP JUMPDEST DUP1 ISZERO PUSH2 0x4D1 JUMPI DUP1 PUSH1 0x1F LT PUSH2 0x4A6 JUMPI PUSH2 0x100 DUP1 DUP4 SLOAD DIV MUL DUP4 MSTORE SWAP2 PUSH1 0x20 ADD SWAP2 PUSH2 0x4D1 JUMP JUMPDEST DUP3 ADD SWAP2 SWAP1 PUSH1 0x0 MSTORE PUSH1 0x20 PUSH1 0x0 KECCAK256 SWAP1 JUMPDEST DUP2 SLOAD DUP2 MSTORE SWAP1 PUSH1 0x1 ADD SWAP1 PUSH1 0x20 ADD DUP1 DUP4 GT PUSH2 0x4B4 JUMPI DUP3 SWAP1 SUB PUSH1 0x1F AND DUP3 ADD SWAP2 JUMPDEST POP POP POP POP POP SWAP1 POP DUP4 JUMP JUMPDEST PUSH1 0xC PUSH1 0x20 MSTORE DUP1 PUSH1 0x0 MSTORE PUSH1 0x40 PUSH1 0x0 KECCAK256 PUSH1 0x0 SWAP2 POP SWAP1 POP DUP1 PUSH1 0x0 ADD SLOAD SWAP1 DUP1 PUSH1 0x1 ADD DUP1 SLOAD PUSH2 0x504 SWAP1 PUSH2 0xB0C JUMP JUMPDEST DUP1 PUSH1 0x1F ADD PUSH1 0x20 DUP1 SWAP2 DIV MUL PUSH1 0x20 ADD PUSH1 0x40 MLOAD SWAP1 DUP2 ADD PUSH1 0x40 MSTORE DUP1 SWAP3 SWAP2 SWAP1 DUP2 DUP2 MSTORE PUSH1 0x20 ADD DUP3 DUP1 SLOAD PUSH2 0x530 SWAP1 PUSH2 0xB0C JUMP JUMPDEST DUP1 ISZERO PUSH2 0x57D JUMPI DUP1 PUSH1 0x1F LT PUSH2 0x552 JUMPI PUSH2 0x100 DUP1 DUP4 SLOAD DIV MUL DUP4 MSTORE SWAP2 PUSH1 0x20 ADD SWAP2 PUSH2 0x57D JUMP JUMPDEST DUP3 ADD SWAP2 SWAP1 PUSH1 0x0 MSTORE PUSH1 0x20 PUSH1 0x0 KECCAK256 SWAP1 JUMPDEST DUP2 SLOAD DUP2 MSTORE SWAP1 PUSH1 0x1 ADD SWAP1 PUSH1 0x20 ADD DUP1 DUP4 GT PUSH2 0x560 JUMPI DUP3 SWAP1 SUB PUSH1 0x1F AND DUP3 ADD SWAP2 JUMPDEST POP POP POP POP POP SWAP1 DUP1 PUSH1 0x2 ADD DUP1 SLOAD PUSH2 0x592 SWAP1 PUSH2 0xB0C JUMP JUMPDEST DUP1 PUSH1 0x1F ADD PUSH1 0x20 DUP1 SWAP2 DIV MUL PUSH1 0x20 ADD PUSH1 0x40 MLOAD SWAP1 DUP2 ADD PUSH1 0x40 MSTORE DUP1 SWAP3 SWAP2 SWAP1 DUP2 DUP2 MSTORE PUSH1 0x20 ADD DUP3 DUP1 SLOAD PUSH2 0x5BE SWAP1 PUSH2 0xB0C JUMP JUMPDEST DUP1 ISZERO PUSH2 0x60B JUMPI DUP1 PUSH1 0x1F LT PUSH2 0x5E0 JUMPI PUSH2 0x100 DUP1 DUP4 SLOAD DIV MUL DUP4 MSTORE SWAP2 PUSH1 0x20 ADD SWAP2 PUSH2 0x60B JUMP JUMPDEST DUP3 ADD SWAP2 SWAP1 PUSH1 0x0 MSTORE PUSH1 0x20 PUSH1 0x0 KECCAK256 SWAP1 JUMPDEST DUP2 SLOAD DUP2 MSTORE SWAP1 PUSH1 0x1 ADD SWAP1 PUSH1 0x20 ADD DUP1 DUP4 GT PUSH2 0x5EE JUMPI DUP3 SWAP1 SUB PUSH1 0x1F AND DUP3 ADD SWAP2 JUMPDEST POP POP POP POP POP SWAP1 POP DUP4 JUMP JUMPDEST PUSH1 0x0 PUSH1 0x40 MLOAD DUP1 PUSH1 0x60 ADD PUSH1 0x40 MSTORE DUP1 DUP6 DUP2 MSTORE PUSH1 0x20 ADD DUP5 DUP2 MSTORE PUSH1 0x20 ADD DUP4 DUP2 MSTORE POP SWAP1 POP PUSH1 0x9 DUP2 SWAP1 DUP1 PUSH1 0x1 DUP2 SLOAD ADD DUP1 DUP3 SSTORE DUP1 SWAP2 POP POP PUSH1 0x1 SWAP1 SUB SWAP1 PUSH1 0x0 MSTORE PUSH1 0x20 PUSH1 0x0 KECCAK256 SWAP1 PUSH1 0x3 MUL ADD PUSH1 0x0 SWAP1 SWAP2 SWAP1 SWAP2 SWAP1 SWAP2 POP PUSH1 0x0 DUP3 ADD MLOAD DUP2 PUSH1 0x0 ADD SSTORE PUSH1 0x20 DUP3 ADD MLOAD DUP2 PUSH1 0x1 ADD SWAP1 DUP1 MLOAD SWAP1 PUSH1 0x20 ADD SWAP1 PUSH2 0x686 SWAP3 SWAP2 SWAP1 PUSH2 0x6C7 JUMP JUMPDEST POP PUSH1 0x40 DUP3 ADD MLOAD DUP2 PUSH1 0x2 ADD SWAP1 DUP1 MLOAD SWAP1 PUSH1 0x20 ADD SWAP1 PUSH2 0x6A3 SWAP3 SWAP2 SWAP1 PUSH2 0x6C7 JUMP JUMPDEST POP POP POP POP POP POP POP JUMP JUMPDEST PUSH1 0x3 DUP2 PUSH1 0x5 DUP2 LT PUSH2 0x6BC JUMPI PUSH1 0x0 DUP1 REVERT JUMPDEST ADD PUSH1 0x0 SWAP2 POP SWAP1 POP SLOAD DUP2 JUMP JUMPDEST DUP3 DUP1 SLOAD PUSH2 0x6D3 SWAP1 PUSH2 0xB0C JUMP JUMPDEST SWAP1 PUSH1 0x0 MSTORE PUSH1 0x20 PUSH1 0x0 KECCAK256 SWAP1 PUSH1 0x1F ADD PUSH1 0x20 SWAP1 DIV DUP2 ADD SWAP3 DUP3 PUSH2 0x6F5 JUMPI PUSH1 0x0 DUP6 SSTORE PUSH2 0x73C JUMP JUMPDEST DUP3 PUSH1 0x1F LT PUSH2 0x70E JUMPI DUP1 MLOAD PUSH1 0xFF NOT AND DUP4 DUP1 ADD OR DUP6 SSTORE PUSH2 0x73C JUMP JUMPDEST DUP3 DUP1 ADD PUSH1 0x1 ADD DUP6 SSTORE DUP3 ISZERO PUSH2 0x73C JUMPI SWAP2 DUP3 ADD JUMPDEST DUP3 DUP2 GT ISZERO PUSH2 0x73B JUMPI DUP3 MLOAD DUP3 SSTORE SWAP2 PUSH1 0x20 ADD SWAP2 SWAP1 PUSH1 0x1 ADD SWAP1 PUSH2 0x720 JUMP JUMPDEST JUMPDEST POP SWAP1 POP PUSH2 0x749 SWAP2 SWAP1 PUSH2 0x74D JUMP JUMPDEST POP SWAP1 JUMP JUMPDEST JUMPDEST DUP1 DUP3 GT ISZERO PUSH2 0x766 JUMPI PUSH1 0x0 DUP2 PUSH1 0x0 SWAP1 SSTORE POP PUSH1 0x1 ADD PUSH2 0x74E JUMP JUMPDEST POP SWAP1 JUMP JUMPDEST PUSH1 0x0 PUSH2 0x77D PUSH2 0x778 DUP5 PUSH2 0xA36 JUMP JUMPDEST PUSH2 0xA11 JUMP JUMPDEST SWAP1 POP DUP3 DUP2 MSTORE PUSH1 0x20 DUP2 ADD DUP5 DUP5 DUP5 ADD GT ISZERO PUSH2 0x795 JUMPI PUSH1 0x0 DUP1 REVERT JUMPDEST PUSH2 0x7A0 DUP5 DUP3 DUP6 PUSH2 0xACA JUMP JUMPDEST POP SWAP4 SWAP3 POP POP POP JUMP JUMPDEST PUSH1 0x0 DUP2 CALLDATALOAD SWAP1 POP PUSH2 0x7B7 DUP2 PUSH2 0xBDE JUMP JUMPDEST SWAP3 SWAP2 POP POP JUMP JUMPDEST PUSH1 0x0 DUP3 PUSH1 0x1F DUP4 ADD SLT PUSH2 0x7CE JUMPI PUSH1 0x0 DUP1 REVERT JUMPDEST DUP2 CALLDATALOAD PUSH2 0x7DE DUP5 DUP3 PUSH1 0x20 DUP7 ADD PUSH2 0x76A JUMP JUMPDEST SWAP2 POP POP SWAP3 SWAP2 POP POP JUMP JUMPDEST PUSH1 0x0 DUP2 CALLDATALOAD SWAP1 POP PUSH2 0x7F6 DUP2 PUSH2 0xBF5 JUMP JUMPDEST SWAP3 SWAP2 POP POP JUMP JUMPDEST PUSH1 0x0 PUSH1 0x20 DUP3 DUP5 SUB SLT ISZERO PUSH2 0x80E JUMPI PUSH1 0x0 DUP1 REVERT JUMPDEST PUSH1 0x0 PUSH2 0x81C DUP5 DUP3 DUP6 ADD PUSH2 0x7A8 JUMP JUMPDEST SWAP2 POP POP SWAP3 SWAP2 POP POP JUMP JUMPDEST PUSH1 0x0 DUP1 PUSH1 0x40 DUP4 DUP6 SUB SLT ISZERO PUSH2 0x838 JUMPI PUSH1 0x0 DUP1 REVERT JUMPDEST PUSH1 0x0 DUP4 ADD CALLDATALOAD PUSH8 0xFFFFFFFFFFFFFFFF DUP2 GT ISZERO PUSH2 0x852 JUMPI PUSH1 0x0 DUP1 REVERT JUMPDEST PUSH2 0x85E DUP6 DUP3 DUP7 ADD PUSH2 0x7BD JUMP JUMPDEST SWAP3 POP POP PUSH1 0x20 PUSH2 0x86F DUP6 DUP3 DUP7 ADD PUSH2 0x7E7 JUMP JUMPDEST SWAP2 POP POP SWAP3 POP SWAP3 SWAP1 POP JUMP JUMPDEST PUSH1 0x0 PUSH1 0x20 DUP3 DUP5 SUB SLT ISZERO PUSH2 0x88B JUMPI PUSH1 0x0 DUP1 REVERT JUMPDEST PUSH1 0x0 PUSH2 0x899 DUP5 DUP3 DUP6 ADD PUSH2 0x7E7 JUMP JUMPDEST SWAP2 POP POP SWAP3 SWAP2 POP POP JUMP JUMPDEST PUSH1 0x0 DUP1 PUSH1 0x0 PUSH1 0x60 DUP5 DUP7 SUB SLT ISZERO PUSH2 0x8B7 JUMPI PUSH1 0x0 DUP1 REVERT JUMPDEST PUSH1 0x0 PUSH2 0x8C5 DUP7 DUP3 DUP8 ADD PUSH2 0x7E7 JUMP JUMPDEST SWAP4 POP POP PUSH1 0x20 DUP5 ADD CALLDATALOAD PUSH8 0xFFFFFFFFFFFFFFFF DUP2 GT ISZERO PUSH2 0x8E2 JUMPI PUSH1 0x0 DUP1 REVERT JUMPDEST PUSH2 0x8EE DUP7 DUP3 DUP8 ADD PUSH2 0x7BD JUMP JUMPDEST SWAP3 POP POP PUSH1 0x40 DUP5 ADD CALLDATALOAD PUSH8 0xFFFFFFFFFFFFFFFF DUP2 GT ISZERO PUSH2 0x90B JUMPI PUSH1 0x0 DUP1 REVERT JUMPDEST PUSH2 0x917 DUP7 DUP3 DUP8 ADD PUSH2 0x7BD JUMP JUMPDEST SWAP2 POP POP SWAP3 POP SWAP3 POP SWAP3 JUMP JUMPDEST PUSH1 0x0 PUSH2 0x92C DUP3 PUSH2 0xA67 JUMP JUMPDEST PUSH2 0x936 DUP2 DUP6 PUSH2 0xA72 JUMP JUMPDEST SWAP4 POP PUSH2 0x946 DUP2 DUP6 PUSH1 0x20 DUP7 ADD PUSH2 0xAD9 JUMP JUMPDEST PUSH2 0x94F DUP2 PUSH2 0xBCD JUMP JUMPDEST DUP5 ADD SWAP2 POP POP SWAP3 SWAP2 POP POP JUMP JUMPDEST PUSH1 0x0 PUSH2 0x965 DUP3 PUSH2 0xA67 JUMP JUMPDEST PUSH2 0x96F DUP2 DUP6 PUSH2 0xA83 JUMP JUMPDEST SWAP4 POP PUSH2 0x97F DUP2 DUP6 PUSH1 0x20 DUP7 ADD PUSH2 0xAD9 JUMP JUMPDEST DUP1 DUP5 ADD SWAP2 POP POP SWAP3 SWAP2 POP POP JUMP JUMPDEST PUSH2 0x994 DUP2 PUSH2 0xAC0 JUMP JUMPDEST DUP3 MSTORE POP POP JUMP JUMPDEST PUSH1 0x0 PUSH2 0x9A6 DUP3 DUP5 PUSH2 0x95A JUMP JUMPDEST SWAP2 POP DUP2 SWAP1 POP SWAP3 SWAP2 POP POP JUMP JUMPDEST PUSH1 0x0 PUSH1 0x20 DUP3 ADD SWAP1 POP PUSH2 0x9C6 PUSH1 0x0 DUP4 ADD DUP5 PUSH2 0x98B JUMP JUMPDEST SWAP3 SWAP2 POP POP JUMP JUMPDEST PUSH1 0x0 PUSH1 0x60 DUP3 ADD SWAP1 POP PUSH2 0x9E1 PUSH1 0x0 DUP4 ADD DUP7 PUSH2 0x98B JUMP JUMPDEST DUP2 DUP2 SUB PUSH1 0x20 DUP4 ADD MSTORE PUSH2 0x9F3 DUP2 DUP6 PUSH2 0x921 JUMP JUMPDEST SWAP1 POP DUP2 DUP2 SUB PUSH1 0x40 DUP4 ADD MSTORE PUSH2 0xA07 DUP2 DUP5 PUSH2 0x921 JUMP JUMPDEST SWAP1 POP SWAP5 SWAP4 POP POP POP POP JUMP JUMPDEST PUSH1 0x0 PUSH2 0xA1B PUSH2 0xA2C JUMP JUMPDEST SWAP1 POP PUSH2 0xA27 DUP3 DUP3 PUSH2 0xB3E JUMP JUMPDEST SWAP2 SWAP1 POP JUMP JUMPDEST PUSH1 0x0 PUSH1 0x40 MLOAD SWAP1 POP SWAP1 JUMP JUMPDEST PUSH1 0x0 PUSH8 0xFFFFFFFFFFFFFFFF DUP3 GT ISZERO PUSH2 0xA51 JUMPI PUSH2 0xA50 PUSH2 0xB9E JUMP JUMPDEST JUMPDEST PUSH2 0xA5A DUP3 PUSH2 0xBCD JUMP JUMPDEST SWAP1 POP PUSH1 0x20 DUP2 ADD SWAP1 POP SWAP2 SWAP1 POP JUMP JUMPDEST PUSH1 0x0 DUP2 MLOAD SWAP1 POP SWAP2 SWAP1 POP JUMP JUMPDEST PUSH1 0x0 DUP3 DUP3 MSTORE PUSH1 0x20 DUP3 ADD SWAP1 POP SWAP3 SWAP2 POP POP JUMP JUMPDEST PUSH1 0x0 DUP2 SWAP1 POP SWAP3 SWAP2 POP POP JUMP JUMPDEST PUSH1 0x0 PUSH2 0xA99 DUP3 PUSH2 0xAA0 JUMP JUMPDEST SWAP1 POP SWAP2 SWAP1 POP JUMP JUMPDEST PUSH1 0x0 PUSH20 0xFFFFFFFFFFFFFFFFFFFFFFFFFFFFFFFFFFFFFFFF DUP3 AND SWAP1 POP SWAP2 SWAP1 POP JUMP JUMPDEST PUSH1 0x0 DUP2 SWAP1 POP SWAP2 SWAP1 POP JUMP JUMPDEST DUP3 DUP2 DUP4 CALLDATACOPY PUSH1 0x0 DUP4 DUP4 ADD MSTORE POP POP POP JUMP JUMPDEST PUSH1 0x0 JUMPDEST DUP4 DUP2 LT ISZERO PUSH2 0xAF7 JUMPI DUP1 DUP3 ADD MLOAD DUP2 DUP5 ADD MSTORE PUSH1 0x20 DUP2 ADD SWAP1 POP PUSH2 0xADC JUMP JUMPDEST DUP4 DUP2 GT ISZERO PUSH2 0xB06 JUMPI PUSH1 0x0 DUP5 DUP5 ADD MSTORE JUMPDEST POP POP POP POP JUMP JUMPDEST PUSH1 0x0 PUSH1 0x2 DUP3 DIV SWAP1 POP PUSH1 0x1 DUP3 AND DUP1 PUSH2 0xB24 JUMPI PUSH1 0x7F DUP3 AND SWAP2 POP JUMPDEST PUSH1 0x20 DUP3 LT DUP2 EQ ISZERO PUSH2 0xB38 JUMPI PUSH2 0xB37 PUSH2 0xB6F JUMP JUMPDEST JUMPDEST POP SWAP2 SWAP1 POP JUMP JUMPDEST PUSH2 0xB47 DUP3 PUSH2 0xBCD JUMP JUMPDEST DUP2 ADD DUP2 DUP2 LT PUSH8 0xFFFFFFFFFFFFFFFF DUP3 GT OR ISZERO PUSH2 0xB66 JUMPI PUSH2 0xB65 PUSH2 0xB9E JUMP JUMPDEST JUMPDEST DUP1 PUSH1 0x40 MSTORE POP POP POP JUMP JUMPDEST PUSH32 0x4E487B7100000000000000000000000000000000000000000000000000000000 PUSH1 0x0 MSTORE PUSH1 0x22 PUSH1 0x4 MSTORE PUSH1 0x24 PUSH1 0x0 REVERT JUMPDEST PUSH32 0x4E487B7100000000000000000000000000000000000000000000000000000000 PUSH1 0x0 MSTORE PUSH1 0x41 PUSH1 0x4 MSTORE PUSH1 0x24 PUSH1 0x0 REVERT JUMPDEST PUSH1 0x0 PUSH1 0x1F NOT PUSH1 0x1F DUP4 ADD AND SWAP1 POP SWAP2 SWAP1 POP JUMP JUMPDEST PUSH2 0xBE7 DUP2 PUSH2 0xA8E JUMP JUMPDEST DUP2 EQ PUSH2 0xBF2 JUMPI PUSH1 0x0 DUP1 REVERT JUMPDEST POP JUMP JUMPDEST PUSH2 0xBFE DUP2 PUSH2 0xAC0 JUMP JUMPDEST DUP2 EQ PUSH2 0xC09 JUMPI PUSH1 0x0 DUP1 REVERT JUMPDEST POP JUMP INVALID LOG2 PUSH5 0x6970667358 0x22 SLT KECCAK256 0x24 SWAP4 0xD8 PUSH24 0xE3CBD7F1013845C4E2313AC1C0F3272963A75E5E7991829A PUSH2 0x10FA EXTCODECOPY PUSH5 0x736F6C6343 STOP ADDMOD DIV STOP CALLER "
				},
				"gasEstimates": {
					"creation": {
						"codeDepositCost": "627600",
						"executionCost": "infinite",
						"totalCost": "infinite"
					},
					"external": {
						"addres_dataStructures(address)": "infinite",
						"addres_uint(address)": "1581",
						"array_modicacion(uint256,string,string)": "infinite",
						"assignDataStructur(uint256,string,string)": "infinite",
						"assignList(string,uint256)": "infinite",
						"assingNumber(uint256)": "20532",
						"dinamic_list_custumer(uint256)": "infinite",
						"fixed_list_uints(uint256)": "infinite",
						"string_listUint(string,uint256)": "infinite"
					}
				},
				"methodIdentifiers": {
					"addres_dataStructures(address)": "c5d90706",
					"addres_uint(address)": "2d7bd877",
					"array_modicacion(uint256,string,string)": "e1bdbb84",
					"assignDataStructur(uint256,string,string)": "0d423262",
					"assignList(string,uint256)": "89553d46",
					"assingNumber(uint256)": "141c4037",
					"dinamic_list_custumer(uint256)": "bff41051",
					"fixed_list_uints(uint256)": "fecb2c16",
					"string_listUint(string,uint256)": "1d5b0438"
				}
			},
			"storageLayout": {
				"storage": [
					{
						"astId": 16,
						"contract": "contracts/artifacts/structuras_datos.sol:data_strucures",
						"label": "cliente1",
						"offset": 0,
						"slot": "0",
						"type": "t_struct(Customer)8_storage"
					},
					{
						"astId": 26,
						"contract": "contracts/artifacts/structuras_datos.sol:data_strucures",
						"label": "fixed_list_uints",
						"offset": 0,
						"slot": "3",
						"type": "t_array(t_uint256)5_storage"
					},
					{
						"astId": 29,
						"contract": "contracts/artifacts/structuras_datos.sol:data_strucures",
						"label": "dinamic_list_uints",
						"offset": 0,
						"slot": "8",
						"type": "t_array(t_uint256)dyn_storage"
					},
					{
						"astId": 33,
						"contract": "contracts/artifacts/structuras_datos.sol:data_strucures",
						"label": "dinamic_list_custumer",
						"offset": 0,
						"slot": "9",
						"type": "t_array(t_struct(Customer)8_storage)dyn_storage"
					},
					{
						"astId": 62,
						"contract": "contracts/artifacts/structuras_datos.sol:data_strucures",
						"label": "addres_uint",
						"offset": 0,
						"slot": "10",
						"type": "t_mapping(t_address,t_uint256)"
					},
					{
						"astId": 67,
						"contract": "contracts/artifacts/structuras_datos.sol:data_strucures",
						"label": "string_listUint",
						"offset": 0,
						"slot": "11",
						"type": "t_mapping(t_string_memory_ptr,t_array(t_uint256)dyn_storage)"
					},
					{
						"astId": 72,
						"contract": "contracts/artifacts/structuras_datos.sol:data_strucures",
						"label": "addres_dataStructures",
						"offset": 0,
						"slot": "12",
						"type": "t_mapping(t_address,t_struct(Customer)8_storage)"
					}
				],
				"types": {
					"t_address": {
						"encoding": "inplace",
						"label": "address",
						"numberOfBytes": "20"
					},
					"t_array(t_struct(Customer)8_storage)dyn_storage": {
						"base": "t_struct(Customer)8_storage",
						"encoding": "dynamic_array",
						"label": "struct data_strucures.Customer[]",
						"numberOfBytes": "32"
					},
					"t_array(t_uint256)5_storage": {
						"base": "t_uint256",
						"encoding": "inplace",
						"label": "uint256[5]",
						"numberOfBytes": "160"
					},
					"t_array(t_uint256)dyn_storage": {
						"base": "t_uint256",
						"encoding": "dynamic_array",
						"label": "uint256[]",
						"numberOfBytes": "32"
					},
					"t_mapping(t_address,t_struct(Customer)8_storage)": {
						"encoding": "mapping",
						"key": "t_address",
						"label": "mapping(address => struct data_strucures.Customer)",
						"numberOfBytes": "32",
						"value": "t_struct(Customer)8_storage"
					},
					"t_mapping(t_address,t_uint256)": {
						"encoding": "mapping",
						"key": "t_address",
						"label": "mapping(address => uint256)",
						"numberOfBytes": "32",
						"value": "t_uint256"
					},
					"t_mapping(t_string_memory_ptr,t_array(t_uint256)dyn_storage)": {
						"encoding": "mapping",
						"key": "t_string_memory_ptr",
						"label": "mapping(string => uint256[])",
						"numberOfBytes": "32",
						"value": "t_array(t_uint256)dyn_storage"
					},
					"t_string_memory_ptr": {
						"encoding": "bytes",
						"label": "string",
						"numberOfBytes": "32"
					},
					"t_string_storage": {
						"encoding": "bytes",
						"label": "string",
						"numberOfBytes": "32"
					},
					"t_struct(Customer)8_storage": {
						"encoding": "inplace",
						"label": "struct data_strucures.Customer",
						"members": [
							{
								"astId": 3,
								"contract": "contracts/artifacts/structuras_datos.sol:data_strucures",
								"label": "id",
								"offset": 0,
								"slot": "0",
								"type": "t_uint256"
							},
							{
								"astId": 5,
								"contract": "contracts/artifacts/structuras_datos.sol:data_strucures",
								"label": "name",
								"offset": 0,
								"slot": "1",
								"type": "t_string_storage"
							},
							{
								"astId": 7,
								"contract": "contracts/artifacts/structuras_datos.sol:data_strucures",
								"label": "email",
								"offset": 0,
								"slot": "2",
								"type": "t_string_storage"
							}
						],
						"numberOfBytes": "96"
					},
					"t_uint256": {
						"encoding": "inplace",
						"label": "uint256",
						"numberOfBytes": "32"
					}
				}
			},
			"userdoc": {
				"kind": "user",
				"methods": {},
				"version": 1
			}
		}
	}
}